:020000040800F2
:10000000401F002095010008150200081702000893
:10001000270200082B0200082F0200080000000041
:1000200000000000000000000000000009010008BE
:1000300035020008000000003D010008C932000838
:10004000AF010008AF010008AF010008E32200087B
:10005000AF010008AF010008AF010008AF010008C0
:10006000AF010008AF010008AF010008AF010008B0
:10007000AF010008AF010008AF010008AF010008A0
:10008000AF010008AF010008AF010008AF01000890
:10009000AF010008AF010008AF010008AF01000880
:1000A000AF010008AF010008AF010008AF01000870
:1000B000AF010008AF010008AF010008AF01000860
:1000C000AF010008AF010008AF010008AF01000850
:1000D000AF010008AF010008AF010008AF01000840
:1000E000AF010008AF010008AF010008AF01000830
:1000F000AF010008DFF80CD003F016F90048004704
:10010000E1010008401F00201A4B19680868B0E898
:10011000F00F80F309884FF0000080F311884EF053
:100120000D0E70470000000003480068006880F36F
:10013000088862B600DF00BF08ED00E0EFF3098039
:100140000C4B1A6820E9F00F106008B54FF0BF00A3
:1001500080F3118802F091FD4FF0000080F31188C8
:10016000BDE8084019680868B0E8F00F80F3098816
:10017000704700BF3C00002001B44FF0BF0080F387
:10018000118801BC704701B44FF0000080F3118862
:1001900001BC70470648804706480047FEE7FEE777
:1001A000FEE7FEE7FEE7FEE7FEE7FEE7FEE7FEE727
:1001B0008D1A0008F500000808B500BF02F070FEB7
:1001C000009001F0B2FD01F0D3FF0021042002F005
:1001D00017F804E04FF47A71684602F07AFCF9E708
:1001E0001FB500200123CDE9003002900346802294
:1001F00004A10390AFF23F0002F0FEFA02F02DFEE0
:1002000000BFFEE7427574746F6E2048616E646CC7
:100210006500000070470948006810F0010F00D029
:1002200000BE00BFFEE700BFFEE700BFFEE700BF65
:10023000FEE770477047704770470000F0ED00E040
:1002400010B504468548844208D10121084600F0D3
:10025000BCFA0021012000F0B8FA52E08048844244
:1002600008D10121022000F0B0FA0021022000F0A4
:10027000ACFA46E07B48844208D10121042000F01A
:10028000A4FA0021042000F0A0FA3AE07648844263
:1002900008D10121082000F098FA0021082000F080
:1002A00094FA2EE07148844208D10121102000F018
:1002B0008CFA0021102000F088FA22E06C48844279
:1002C00008D10121402000F080FA0021402000F0F8
:1002D0007CFA16E06748844208D10121802000F0B2
:1002E00074FA0021802000F070FA0AE0624884422B
:1002F00007D10121202000F068FA0021202000F021
:1003000064FA10BDF0B50A4600210023002400BFA6
:100310003DE0012505FA01F3156805EA03049C4256
:1003200034D105684F000326BE40B54305601579FA
:100330004E00B5400668354305601579012D02D0A1
:100340001579022D16D185684F000326BE40B543AE
:10035000856055794E00B54086683543856085884F
:1003600001268E40B5438580858896798E40B6B249
:1003700035438580C5684F000326BE40B543C56040
:10038000D5794E00B540C6683543C560491C102973
:10039000BFD3F0BD4FF6FF710160002101714171C3
:1003A0008171C171704708B54FF480320092009A94
:1003B0000A430092009AC261C161009AC261C26997
:1003C0000092C269009208BD02460020138A0B42C7
:1003D00001D0012000E0002070470146088A7047E4
:1003E00002460020938A0B4201D0012000E0002049
:1003F00070470146888A7047018370474183704780
:100400000AB1018300E04183704781827047828A8C
:100410004A4082827047F0B5002300244D07ED0E5C
:1004200002FA05F3CE1000F1200555F826504E07CC
:10043000F70E0F26BE40B543CF1000F1200646F858
:100440002750CE1000F1200555F8265045EA030448
:10045000CE1000F1200545F82640F0BD0000024016
:100460000004024000080240000C0240001002405C
:1004700000180240001C024000140240F9480068C5
:1004800040F48070F7490860F64808300068F64983
:100490000840F44908310860F2480068F349084010
:1004A000F04908600846006820F480200860ED48A4
:1004B0000830006820F47D00EA4908310860002017
:1004C000091D086070470021E64A921C1170114610
:1004D0000870704710B501460022002300204A1121
:1004E000012A02D1DF4C236802E0DE4C3434236859
:1004F00001F01F02012494401C4201D0012000E0C1
:10050000002010BD38B5002000900024002500BF59
:100510003120FFF7DFFF05460098401C009000984F
:10052000B0F5A06F01D0002DF2D03120FFF7D2FF3F
:1005300008B1012400E00024204638BDC949C91D86
:100540000870704701460020C64A121D106820F44A
:100550006040084310607047C54908627047014613
:100560000020C04A121D106820F4F85040EA012013
:1005700010607047BE49086070470021B94A3532A3
:100580001170114608707047BA490860704710B57D
:1005900041EA02030343B34C0A34237010BDB4494B
:1005A00008667047B24908677047B2492C31086045
:1005B000704740EA0102AB4B0B331A70704701469B
:1005C0000020A84A0832106820F003000843106099
:1005D0007047A4480830006800F00C0070470146DE
:1005E0000020A04A0832106820F0F0000843106094
:1005F0007047014600209B4A0832106820F4E060F2
:1006000008431060704701460020964A083210687F
:1006100020F4605040EAC10010607047F0B500213E
:10062000002200230026002400258E4F08373F6853
:1006300007F00C0131B1042912D0082913D00C297C
:1006400037D113E0874F3F1D3F68C7F342356F1C1A
:100650004FF0010C0CFA07FC4FEACC37076036E08C
:10066000854F076033E0854F076030E07D4F0837E6
:100670003F6807F470127B4F08373F6807F4400368
:100680007F4F07EB92473A78012707EB9353754F5B
:1006900008373F6807F480362EB9774F5743B7FBCA
:1006A000F3F7076004E0754F5743B7FBF3F70760B4
:1006B0000DE06C4F3F1D3F68C7F342356F1C4FF094
:1006C000010C0CFA07FC4FEACC37076000BF00BFF3
:1006D000644F08373F6807F0F0010909694F7C5CF7
:1006E0000768E74047605F4F08373F6807F4E061FD
:1006F000090A644F7C5C4768E7408760594F0837B8
:100700003F6807F46051C90A5E4F7C5C4768E74068
:10071000C760F0BD002100F44032B2F5403F08D17F
:10072000504A116821F0C04100F0C04211434D4AC7
:1007300011604C4A3432126822F44032494B34334F
:100740001A601A46126800F440331A43454B34339A
:100750001A607047474958310860704745495C3115
:100760000860704739B13F4A1C32126802433D4B62
:100770001C331A6006E03B4A1C3212688243394B34
:100780001C331A60704739B1364A2032126802436E
:10079000344B20331A6006E0324A2032126882431A
:1007A000304B20331A60704739B12E4A2432126818
:1007B00002432C4B24331A6006E02A4A2432126882
:1007C0008243284B24331A60704739B1254A1032CE
:1007D00012680243234B10331A6006E0214A10329C
:1007E000126882431F4B10331A60704739B11D4A9B
:1007F0001432126802431B4B14331A6006E0194A84
:10080000143212688243174B14331A60704739B19F
:10081000144A183212680243124B18331A6006E069
:10082000104A1832126882430E4B18331A60704710
:1008300039B10C4A2832126802430A4B28331A6035
:1008400006E0084A283212688243064B28331A60B1
:100850007047C9B1034A2C3212680243014B2C3352
:100860001A6016E0003802400CC0FF88FEFFFEEE62
:1008700000004742800647420024F40000127A003C
:1008800000000020090000201F4A126882431E4B0E
:100890001A60704739B11C4A121D126802431A4B84
:1008A0001B1D1A6006E0184A121D12688243164B7F
:1008B0001B1D1A60704739B1134A1F3A1278024360
:1008C000114B1F3B1A7006E00F4A1F3A1278824301
:1008D0000D4B1F3B1A7070470B480830006840F002
:1008E0008070094908310860704701460020064AB7
:1008F000203A12680A4201D0012000E0002070472F
:1009000001491E39087070472C38024033490143B1
:10091000334A1160704770B5002100230F22C4785C
:1009200024B32F4C246804F4E064C4F5E064C4F3F9
:100930000721C1F10404E3B20A4144789C40E1B2CA
:100940008478144021430C07210E264C057861550C
:10095000047804F01F050124AC4005786D114FF0B8
:10096000E02606EB8505C5F8004109E0047804F0AF
:100970001F040125A5401C4C0678761144F826502A
:1009800070BD1A4A0A400243154B1B1F1A6070477C
:1009900039B1134A121D12680243114B1B1D1A6014
:1009A00006E00F4A121D126882430D4B1B1D1A6090
:1009B0007047042808D14FF0E021096941F0040193
:1009C0004FF0E022116107E04FF0E021096921F0CA
:1009D00004014FF0E0221161704700000000FA05A9
:1009E0000CED00E000E400E080E100E080FFFF1F8C
:1009F000002041490860091D0860091D0860091DA3
:100A000008606FF07F403C49143108607047002156
:100A100039498279002A3AD00A46126803689A4313
:100A20000B461A600A1D126803689A430B1D1A6070
:100A3000027911440A6803681A430A602E4A083290
:100A4000126803689A432C4B08331A601A1D126807
:100A500003689A43284B0C331A604279102A0ED14E
:100A60001A1F126803681A43234B08331A601A1DB1
:100A7000126803681A43204B0C331A600DE01E49BC
:100A8000427911440A6803681A430A6005E0027952
:100A900011440A6803689A430A60704700210160A4
:100AA00001710C214171002181717047124910318F
:100AB00009680143104A1032116070470146002056
:100AC0000D4A143212680A4201D0012000E00020D1
:100AD0007047094914310860704701460020064AF2
:100AE000143212680A4201D0012000E00020704751
:100AF00001491431086070470004014008B5002224
:100B0000009200200021CA22F94B1A6053221A6079
:100B1000F74A183A126822F0A002F54B183B1A6007
:100B200000BFF34A183A126802F02001009A521CE2
:100B30000092009AB2F5004F01D00029F1D0EC4AA2
:100B4000183A126812F0200F01D0012000E00020B6
:100B5000FF22E74B1A6008BD08B500220092002072
:100B60000021E34A183A126812F0400F1CD1421ECD
:100B7000DF4B183B1A6000BFDD4A183A126802F0DA
:100B80004001009A521C0092009AB2F5005F01D019
:100B90000029F1D0D64A183A126812F0400F01D05D
:100BA000012002E0002000E0012008BD38B500204F
:100BB000009000240025CA20CD4908605320086019
:100BC000FFF7CAFF00B952E00020C9492439086084
:100BD00042F20110091D0860081D006800F00700BE
:100BE000091D086000BFC2481838006800F00404FE
:100BF0000098401C00900098B0F5005F01D0002CD8
:100C0000F1D0BB481838006810F0040F01D100255E
:100C10002DE0B7481C3800680020B5491C39086031
:100C20004FF6FF70B24910390860B248091F0860DA
:100C30000020AF490C390860091D0860091D0860D3
:100C4000AB4908310860AA4918310860A849203129
:100C50000860091D0860A64918390860A4491C31BC
:100C60000860FFF74BFF08B9002500E00125FF20D1
:100C70009F490860284638BD9D481838006820F014
:100C800080009B4918390860704730B5044600253C
:100C9000CA209749086053200860FFF75DFF00B93C
:100CA0001DE093481C38006820F0400090491C3932
:100CB000086008460068216808438D491C390860AF
:100CC0008B491439A068086008460068A18840EA8A
:100CD0000140874914390860FFF7CEFF0125FF2046
:100CE00083490860284630BD002101607F214160B2
:100CF000FF218160704718B1FF217D4A116004E037
:100D0000CA217B4A116053211160704730B50446F7
:100D10000025CA207649086053200860FFF71CFFB1
:100D200000B914E044B172481C38006840F010006B
:100D30006F491C39086007E06D481C38006820F0D6
:100D400010006B491C390860FFF796FF0125FF2052
:100D500067490860284630BDCA21654A11605321A1
:100D6000116040B162491C39096841F02001604AB4
:100D70001C3A116007E05E491C39096801F0DF0187
:100D80005B4A1C3A1160FF21594A116070470146C5
:100D9000002204E0501CC2B2A1F10A00C1B20A292B
:100DA000F8DA100741EA10607047014600BF0809F1
:100DB00000EB8000420001F00F001044C0B2704709
:100DC0002DE9F04105460C460026002755B9484854
:100DD0001C38006810F0400F00D002E00020E070E6
:100DE00000BF0EE042481C38006810F0400F04D0ED
:100DF0002078FFF7DAFF064602E00020E07000BF2F
:100E000000BF55B120780004617840EA0120A17844
:100E10000843E17840EA014611E02078FFF7B7FF88
:100E20004FEA00486078FFF7B2FF48EA0028A07850
:100E3000FFF7ADFF48EA0008E07848EA0046CA201C
:100E40002B49086053200860FFF786FE08B9002789
:100E500014E029483040264924390860FFF70CFF88
:100E600023481C38006810F0200F06D1FFF746FE1B
:100E700008B9002702E0012700E00127FF201C49F4
:100E800008603846BDE8F0810021C17001704170F2
:100E90008170704770B506460C460025144824380A
:100EA0000068154900EA0105C5F305402070C5F347
:100EB0000620607005F07F00A07005F48000000C33
:100EC000E0705EB92078FFF770FF20706078FFF760
:100ED0006CFF6070A078FFF768FFA07070BD002005
:100EE0000349091D08680249203909687047000054
:100EF00024280040FF007F007F7F7F002DE9F04124
:100F000005460C46002600274DB9607800F0100019
:100F1000102804D1607820F010000A30607005B904
:100F200008E06078FFF741FF0646A078FFF73DFF35
:100F3000064600BF55B1E0780004617840EA012020
:100F4000A1780843217840EA413611E0E078FFF7C4
:100F50001EFF4FEA00486078FFF719FF48EA0028B3
:100F6000A078FFF714FF48EA0008207848EA4036E6
:100F7000CA20FE49086053200860FFF7EDFD08B95C
:100F8000002714E0FA483040F84920390860FFF79C
:100F900073FEF6481C38006810F0200F06D1FFF7EA
:100FA000ADFD08B9002702E0012700E00127FF207E
:100FB000EE4908603846BDE8F0810121017081707A
:100FC00041700021C170704770B506460C4600257F
:100FD000E64820380068E64900EA0105280CE07080
:100FE000C5F30420607005F03F00A070C5F34230E7
:100FF00020705EB9E078FFF7D8FEE0706078FFF708
:10100000D4FE6070A078FFF7D0FEA07070BD2DE90F
:10101000F04105460E46144600276DB9D3481C38EA
:10102000006810F0400F00D002E00020E07000BF28
:10103000A06800B91AE019E0CC481C38006810F02C
:10104000400F04D02078FFF7B0FE074602E00020F2
:10105000E07000BFA06820B9207BFFF7A6FE07461E
:1010600004E0207BFFF7A1FE074600BF95B1207882
:101070000004617840EA0120A1780843E17840EA61
:101080000140217B40EA0160A1680843616840EAB1
:1010900001071BE02078FFF77AFE4FEA00486078EE
:1010A000FFF775FE48EA0028A078FFF770FE48EACF
:1010B0000008E07848EA0048207BFFF768FE48EA2D
:1010C0000060A1680843616840EA0107CA20A74997
:1010D000086053200860B6F5807F03D1A348083824
:1010E000076002E0A148001F0760FF209F490860D9
:1010F000BDE8F0810021C170017041708170816094
:10110000012101730021416070472DE9F04106463D
:101110000F4614460025B7F5807F03D19348083861
:10112000056802E09148001F0568C5F3054020707E
:10113000C5F30620607005F07F00A07005F4800004
:10114000000CE070C5F30560207305F08040A060DE
:1011500005F0803060607EB92078FFF726FE2070B1
:101160006078FFF722FE6070A078FFF71EFEA07087
:10117000207BFFF71AFE2073BDE8F08138B50246E8
:101180000024009400230020CA24784D2C605324AE
:101190002C6041B1754C1C3C24681443734D1C3DBC
:1011A0002C6001201EE0714C1C3C246894436F4D60
:1011B0001C3D2C6000BF6D4C183C246804EA1223CF
:1011C000009C641C0094009CB4F5005F01D0002BCF
:1011D000F1D0664C183C246814EA122F01D100208B
:1011E00000E00120FF24614D2C6038BD30B50023A4
:1011F000CA245E4D2C6053242C6041EA0203B0F5F2
:10120000807F03D1594C2034236002E0574C2434B2
:101210002360FF24554D2C6030BD01460020B1F500
:10122000807F05D1514A20321268C2F30E0004E0DB
:101230004E4A24321268C2F30E007047CA214B4A4C
:1012400011605321116049491C39096821F00701D7
:10125000464A1C3A11601146096801431160FF219A
:10126000424A11607047CA21404A116053211160FF
:101270003E4910390860FF21116070473B48103823
:10128000006880B2704718B5014600230093002221
:101290000020CA23354C23605323236049B1334BCC
:1012A0001C3B1B6843F48063304C1C3C23600120D2
:1012B0001FE02E4B1C3B1B6823F480632B4C1C3C13
:1012C000236000BF294B183B1B6803F00402009BFE
:1012D0005B1C0093009BB3F5005F01D0002AF1D0A6
:1012E000224B183B1B6813F0040F01D1002000E0D3
:1012F0000120FF231D4C236018BDCA221B4B1A601E
:1013000053221A60194A1C3A126822F48022174BA1
:101310001C3B1A601A46126840EA01031A43134B39
:101320001C3B1A60FF22114B1A6070470F481C3893
:10133000006800F480207047CA220C4B1A605322C8
:101340001A600A4A1C3A126822F4E002074B1C3B5E
:101350001A601A46126840EA01031A43034B1C3B09
:101360001A60FF22014B1A607047000024280040D9
:101370003FFFFF0070B504460D460026CA20FE4917
:10138000086053200860FFF7E7FB00B907E044EA74
:101390000500F9490C390860FFF76EFC0126FF20B3
:1013A000F5490860304670BD30B504460025CA20B6
:1013B000F149086053200860FFF7CEFB00B914E044
:1013C00044B1ED481C38006840F08000EA491C39FF
:1013D000086007E0E8481C38006820F08000E64913
:1013E0001C390860FFF748FC0125FF20E24908602E
:1013F000284630BDCA21E04A11605321116040B136
:10140000DD491C39096841F40001DB4A1C3A1160CE
:1014100007E0D9491C39096821F40001D64A1C3A71
:101420001160FF21D44A11607047CA21D24A11606D
:1014300053211160D0491C39096821F40021CE4A9A
:101440001C3A11601146096801431160FF21CA4A24
:101450001160704770B5034600200024CA25C64EAF
:10146000356053253560C44D183D2D6815F4803F17
:101470000AD000E0641CC04D183D2D6815F4803F73
:1014800002D0B4F5805FF5D1BB4D183D2D6815F441
:10149000803F07D143EA01051543B74E1836356042
:1014A000012000E00020FF25B34E356070BD10B56F
:1014B0000A460021B04B1C3B1B6840F6080423EA97
:1014C00004011AB140F40063194300E00143CA2348
:1014D000A94C236053232360A74B1C3B1960FF23B7
:1014E000236010BD2DE9F04180460C4615460026CC
:1014F0000027A1480C300068A04900EA01069E4878
:10150000103000689E4900EA0107C6F305402070CC
:10151000C6F30620607006F07F00A07006F480001D
:10152000000CE0700020E870C7F30420687007F03A
:101530003F00A870C7F342302870B8F1000F17D1F0
:101540002078FFF732FC20706078FFF72EFC607087
:10155000A078FFF72AFCA0706878FFF726FC687077
:10156000A878FFF722FCA8702878FFF71EFC2870E7
:10157000BDE8F081804814300068704741B97E4A68
:101580001C32126822EA40027B4B1C331A6007E0CF
:10159000794A1C32126842EA4002774B1C331A60C7
:1015A000704739B1744A1C3212680243724B1C33C3
:1015B0001A6006E0704A1C32126882436E4B1C337C
:1015C0001A6070476C491C31096821F4C0516A4A9D
:1015D0001C32116011460968014311607047664969
:1015E0001C31096821F4E061634A1C321160114624
:1015F00009680143116070475F491C31096821F493
:10160000C0415D4A1C3211601146096801431160F6
:10161000704740B158491C31096841F08001564A71
:101620001C32116007E054491C31096821F0800127
:10163000514A1C321160704740B14F491C31096852
:1016400021F400414C4A1C32116007E04A491C3128
:10165000096841F40041484A1C321160704708B5DE
:1016600000220092444A2C320092009A02EB80023F
:101670000092009A116008BD08B501460020009054
:101680003D482C300090009800EB810000900098BD
:10169000006808BD38491C31096821F48021364AA8
:1016A0001C32116011460968014311607047F0B5A2
:1016B00004460D4600270026CA202F490860532003
:1016C00008602D481838006810F0080F0AD000E0B4
:1016D000761C29481838006810F0080F02D0B6F5BB
:1016E000005FF5D124481838006810F0080F13D1B6
:1016F00021481C38006810F0100F0BD145EA040097
:101700001D4908310860FFF7F9F908B9002704E01E
:10171000012702E0002700E00027FF2016490860AB
:101720003846F0BDCA22144B1A6053221A6091B198
:10173000114A1C3A126820F004031A430E4B1C3B5A
:101740001A600D4A1C32126800F004031A430A4B57
:101750001C331A6018E0084A1C3A126820F004038F
:101760009A43054B1C3B1A60034A1C32126800F076
:1017700004039A43004B05E0242800407F7F7F004C
:101780003FFFFF001C331A60FF222A4B1A6070478C
:1017900010B5014600200022264B183B1B68264C42
:1017A00003EA04020A4201D0012000E0002010BD3B
:1017B000C0F3100141F080011E4A183A126802F08D
:1017C000800262EA01011B4A183A1160704730B585
:1017D0000146002000220023164C1C34246804F02B
:1017E0000402144C1C3C24680C408D0C21FA05F5B5
:1017F00002EAD53544EA05030E4C183C246804EA95
:10180000111223B11404240C01D0012000E00020A7
:1018100030BD002101098AB242F08002054B183B1D
:101820001B6803F0800363EA0202024B183B1A6054
:1018300070470000242800407FFF010010B50121FF
:101840000807FEF7E4FF00214FF08050FEF7DFFFAE
:1018500010BD4D4908627047014600204B4A106890
:1018600020F0E00008431060704747490861704766
:1018700008B500220092444AA03202440092009A25
:10188000116008BD4049886270473F49486270470F
:10189000014600203D4A106820F4C050084320F063
:1018A0000C023A4B1A60704758B13849096841F048
:1018B0000101364A11601146096841F48041116006
:1018C0000AE03249096821F48041304A116011462A
:1018D000096821F001011160704710B5024600202F
:1018E0002A4B186820F0030010431860284B1B682F
:1018F00023F00403264C2360012901D130BF00E00E
:1019000020BF10BD10B502460020204B186820F003
:101910000300104318601E4B1B6843F004031C4C6B
:101920002360012901D130BF00E020BF184B1B68A4
:1019300023F00403164C236010BD1448006840F0E7
:101940000400124908600846006840F00200086080
:101950000F48006840F004000D49086000BF00BF58
:1019600030BF704701460020084A52680A4201D041
:10197000012000E0002070470449096841EA800125
:10198000024A11607047000000000E4200700040E3
:1019900010ED00E00CB50020019000908448006834
:1019A00040F001008249086000BF8148006800F0F3
:1019B00002000090009818B90198B0F5A06FF4D11A
:1019C0007B48006810F0020F02D00120009001E077
:1019D000002000900098012857D17648006840F018
:1019E0000400744908600846006840F0020008607E
:1019F0000846006840F0010008606D482430006827
:101A000040F080506A4924310860C8146A4908606F
:101A100000BF6948406810F0100FFAD164480830E0
:101A20000068634908310860084600680860084695
:101A3000006808600846006820F47D0008600846D9
:101A4000006840F4880008605948006840F08070E1
:101A50005749086000BF5648006810F0007FFAD070
:101A600053480830006820F00300514908310860ED
:101A70000846006840F00300086000BF4C4808308A
:101A8000006800F00C000C28F8D10CBD10B54848D7
:101A9000006840F480704649086045480830006896
:101AA00046490840424908310860414800684449B5
:101AB00008403F4908600846006820F4802008601C
:101AC0003B480830006820F47D003949083108603F
:101AD0000020091D0860FFF75DFF4FF000603949E5
:101AE000086010BD70B500220020002100240023F2
:101AF0002F4D08352D6805F00C0232B1042A10D0A4
:101B0000082A12D00C2A39D113E0294D2D1D2D6839
:101B1000C5F342335D1C0126AE40F5032A4E356005
:101B200038E02A4D284E356034E0294D264E356088
:101B300030E01F4D08352D6805F470101C4D083538
:101B40002D6805F44001234D05EB904528780125CB
:101B500005EB9151164D08352D6805F4803434B9E4
:101B60001A4D4543B5FBF1F5174E356005E0184DAC
:101B70004543B5FBF1F5144E35600BE00C4D2D1DC2
:101B80002D68C5F342335D1C0126AE40F5030E4EB1
:101B9000356000BF00BF064D08352D68C5F303153D
:101BA0000D4E725D084D2D68D540074E356070BDF5
:101BB00000380240003C0240007000400CC0FF882A
:101BC000FEFFFEEE08ED00E01C0000200024F40003
:101BD00000127A00200000202900002010B5012109
:101BE000F848FEF709FC0221F648FEF705FC012142
:101BF000F448FEF703FC0221F248FEF7FFFB10BD9C
:101C000010B50121EF48FEF7F9FB0221ED48FEF780
:101C1000F3FB0121EB48FEF7EFFB10BD10B50121EE
:101C2000E848FEF7EBFB0221E648FEF7E5FB022160
:101C3000E448FEF7E3FB10BD70B504460825022119
:101C4000E048FEF7DBFB15E014F0800F04D0012123
:101C5000DC48FEF7D1FB03E00121DA48FEF7CEFBBA
:101C60000221D848FEF7C8FB0221D648FEF7C6FB82
:101C70006006040E2800A5F10101CDB2E4D170BDCB
:101C800070B5FFF7ABFF7820FFF7D6FFFFF7C6FF71
:101C90004020FFF7D1FFFFF7C1FF00240FE0002530
:101CA00009E0C94901EB8501085DFFF7C5FFFFF7B2
:101CB000B5FF681CC5B2802DF3DB601CC4B2042CD8
:101CC000EDDBFFF79DFF70BD70B500240CE0002533
:101CD00006E00020BC4901EB85010855681CC5B22F
:101CE000802DF6DB601CC4B2042CF0DBFFF7C8FFCC
:101CF00070BD70B505460C46FFF770FF7820FFF702
:101D00009BFFFFF78BFF1CB90020FFF795FF02E058
:101D10004020FFF791FFFFF781FF2846FFF78CFF78
:101D2000FFF77CFFFFF76CFF70BD1CB5012103209E
:101D3000FEF718FD012000908DF8040000208DF8BA
:101D4000060002208DF8050069469E48FEF7DAFA83
:101D50000220009001208DF8040000208DF806007C
:101D600002208DF8050069469648FEF7CBFA8020E0
:101D7000009001208DF8040000208DF8060002205C
:101D80008DF8050069469148FEF7BCFA80218F481E
:101D9000FEF732FB01218B48FEF72EFB022189481A
:101DA000FEF72AFB80218948FEF728FB0A2000F075
:101DB000EDFE80218548FEF71FFB0021AE20FFF7D6
:101DC00098FF0021D520FFF794FF00218020FFF726
:101DD00090FF0021A820FFF78CFF00211F20FFF7B4
:101DE00088FF0021D320FFF784FF00210846FFF77A
:101DF00080FF00214020FFF77CFF00218D20FFF7AE
:101E000078FF00211420FFF774FF0021A120FFF7C5
:101E100070FF0021C820FFF76CFF0021DA20FFF7D8
:101E200068FF00210220FFF764FF00218120FFF7F7
:101E300060FF00218F20FFF75CFF0021D920FFF712
:101E400058FF0021F120FFF754FF0021DB20FFF7AE
:101E500050FF00214020FFF74CFF0021A420FFF796
:101E600048FF0021A620FFF744FF00212020FFF7B4
:101E700040FF00210846FFF73CFF00212120FFF72B
:101E800038FF00210846FFF734FF00217F20FFF7CD
:101E900030FF00212220FFF72CFF00210846FFF72A
:101EA00028FF00210320FFF724FF0021AF20FFF7C8
:101EB00020FFFFF709FF1CBD10B500218D20FFF7A3
:101EC00018FF00211420FFF714FF0021AF20FFF7B7
:101ED00010FF10BD10B500218D20FFF70AFF002173
:101EE0001020FFF706FF0021AE20FFF702FF10BD14
:101EF000F0B5144600267F2801DC1F2900DDF0BD67
:101F00000B46CF1701EB5777C7F3C702CF1701EB8B
:101F10005777FF10A1EBC707FDB20123AB40DEB23C
:101F20004CB1294B03EB80039B5C3343264F07EBFB
:101F30008007BB5408E0244B03EB80039B5CB34356
:101F4000214F07EB8007BB5400BFD8E72DE9F047CE
:101F500006460F4690469946DDF820A034460CE030
:101F60003D4606E0524629462046FFF7C1FF681C61
:101F7000C5B24D45F6DD601CC4B24445F0DDFFF747
:101F80007FFEBDE8F0872DE9F04F80460C461546F0
:101F90001E46A346A5F12000C5B2002749E00C2E3D
:101FA00007D105EB45000A4901EB800010F80790C6
:101FB00004E0084800EB051010F807904FF0000A05
:101FC00031E00000000402409000002000000240C8
:101FD0006A330008DE37000819F0800F05D021466B
:101FE0004046099AFFF784FF09E0099808B90120E3
:101FF00000E00020024621464046FFF779FF4FEA05
:1020000049604FEA1069601CC4B2A4EB0B00B042F7
:1020100005D15C4608F1010000F0FF0806E00AF176
:10202000010000F0FF0ABAF1080FD5DB00BF781CF1
:10203000C7B2B742B3DBBDE8F08F10B5024601204E
:1020400000E050430B00A1F10104E1B2F9D110BD51
:102050002DE9FF4F81B0074691461E460E9D4FF079
:10206000000A002439E0301B401EC1B20A20FFF7ED
:10207000E4FFB9FBF0F00A21B0FBF1F201FB12081A
:10208000BAF1000F16D1701EA04213DDB8F1000F97
:102090000ED10120AB4605EBDB71491001FB047149
:1020A0000090C8B22B4620220299FFF76CFF12E085
:1020B0004FF0010A0120AB4605EBDB71491001FB33
:1020C00004710090C8B208F13001CAB22B460299DF
:1020D000FFF759FF00BF601CC4B2B442C3DB05B0B8
:1020E000BDE8F08FF8B505460E46144618E07A2D87
:1020F00003DD002506F11000C6B21A2E04DD002013
:1021000005460646FFF7E0FD0120009022781023E7
:1021100031462846FFF737FF05F10800C5B2641CB9
:1021200020780028E3D1F8BDF8B504460D461746DF
:102130001E468DF802708DF801508DF800608DF804
:10214000034069460020FEF7D9FEF8BDF8B5044605
:102150000D4617461E468DF800408DF801508DF84B
:1021600002708DF8036069460020FEF729FEF8BD75
:102170003EB5002401210807FEF716FB0120FFF7FA
:1021800068FB0020FFF778FAA0F5A041503935D060
:102190000120FEF7F2F904E0601CC4B20A2000F04E
:1021A000F5FC4920FEF796F908B9FA2CF4DBFA2C75
:1021B00001DB01203EBD4FF48030FEF7ABFA012079
:1021C000FEF7C8FAFEF79AFC7F200190FF200290EC
:1021D000002000906846FEF758FD00231A463B2178
:1021E0001720FFF7B3FF07230C2204210F20FFF76E
:1021F0009BFF45F250010020FFF731FA0020D9E79C
:102200003EB505460C460020FFF73DF80420FFF7D9
:1022100015F82046FFF727F84FF48040FFF7F9FA4A
:102220004FF48010FEF764FC01218803FFF77AFA6F
:102230000120FFF728F84FF48010019000208DF85E
:10224000080008208DF8090001208DF80A0001A877
:10225000FEF7DDFB03208DF8000000208DF8010063
:102260008DF8020001208DF803006846FEF753FB4D
:102270003EBD1CB501A90020FEF70CFE69460020FA
:10228000FEF7A2FE9DF80400F84908709DF80500CD
:1022900048709DF8060088709DF8030088809DF8BE
:1022A000010088719DF80200C8719DF80000087255
:1022B0001CBD70B520240825EDA208212046FFF79B
:1022C00011FF05EB45010819EAA20821FFF70AFFF3
:1022D00005EBC5012144C8B2E8A20821FFF702FFBF
:1022E00070BD10B54FF48060FFF752FA012809D194
:1022F000FFF7BFFFFFF7DDFFFFF7C2FC4FF4806081
:10230000FFF756FA4FF48010FEF7F2FB10BD2DE9EF
:10231000F843232706264FF00C080F250824022334
:10232000142200213846CDF80080FFF791FECF49F6
:10233000CDF800808A8807EB460002230021FFF7D2
:1023400087FE0120009007EB860043462F220021E4
:10235000FFF719FEC549CDF800808A7906EB8601A2
:10236000C81902230021FFF773FE0120C6EBC60146
:102370000090C81943462F220021FFF704FEBB49F5
:10238000CDF80080CA7907EBC60002230021FFF7D1
:102390005FFE10200090B5480278022310212846E5
:1023A000FFF756FE0120009005EB44001023202289
:1023B0001946FFF7E8FD012004EB4401009048199D
:1023C00010233A221946FFF7DEFD0120009005EBAD
:1023D0008400102320221946FFF7D5FD1020A349C1
:1023E00000904A7804EB8401481902231021FFF77A
:1023F0002FFE0120C4EBC4010090481910232022B5
:102400001946FFF7C0FD0120009005EBC400102322
:102410003A221946FFF7B7FD012004EBC401294415
:102420000090C8B2102320221946FFF7ACFD1020FF
:102430008E4900908A7804EB840105EB4101C8B213
:1024400002231021FFF704FEBDE8F8832DE9F843CD
:10245000002506240C2604EB440005EB8007A0466B
:102460004FF00C0902231422002128460096FFF7A2
:10247000EFFD7E4900968A8805EB44000223002187
:10248000FFF7E6FD0120009005EB840033462F2284
:102490000021FFF778FD754900968A7904EB8401E5
:1024A000481902230021FFF7D3FD0120C4EBC4012A
:1024B0000090481933462F220021FFF764FD6B4935
:1024C0000096CA7905EBC40002230021FFF7C0FD86
:1024D0006648CDF800900278022300213846FFF7C5
:1024E000B7FD012007EB48010090C8B24B463A22E5
:1024F0000021FFF748FD5D49CDF800904A7808EBD0
:1025000048013944C8B202230021FFF7A1FD012090
:1025100008EB880139440090C8B24B463A220021AA
:10252000FFF731FD5149CDF800908A7808EB48015A
:1025300007EB4101C8B202230021FFF789FD50A239
:1025400010210020FFF7CEFD50A210215820FFF7E8
:10255000C9FDBDE8F8832DE9F843002506240C26C3
:1025600004EB440005EB8007A0464FF00C09022362
:102570001422002128460096FFF76AFD3B49009689
:102580008A8805EB440002230021FFF761FD01204A
:10259000009005EB840033462F220021FFF7F3FC67
:1025A000324900968A7904EB8401481902230021FC
:1025B000FFF74EFD0120C4EBC401009048193346DB
:1025C0002F220021FFF7DFFC28490096CA7905EB8E
:1025D000C40002230021FFF73BFD2448CDF8009002
:1025E0000278022300213846FFF732FD012007EB75
:1025F00048010090C8B24B463A220021FFF7C3FCC5
:102600001A49CDF800904A7808EB48013944C8B21D
:1026100002230021FFF71CFD012008EB880139444B
:102620000090C8B24B463A220021FFF7ACFC0F499C
:10263000CDF800908A7808EB480107EB4101C8B259
:1026400002230021FFF704FD12A210210020FFF752
:1026500049FD12A210213820FFF744FD10A21021DD
:102660005820FFF73FFDBDE8F883000090020020EE
:102670005A0000002D2D2D3E0000000042000000F9
:10268000312E53446361726400000000322E5365A2
:1026900074000000312E54696D650000322E420036
:1026A000332E5A0000F1080141604FF0FF31816084
:1026B00000F10801C1600161002101607047002143
:1026C00001617047426853684B6043688B60536890
:1026D000996051604160086103685B1C036070474A
:1026E00010B502460B685C1C01D1106907E002F1CD
:1026F000080000E04068446824689C42FAD94468B5
:102700004C604C68A160886041600A611468641C78
:10271000146010BDD0E901329A60D0E901235A60FB
:1027200001694A68824201D182684A6000220261DE
:102730000A68521E0A60704710B5002407E004EBD7
:102740008401FE4A02EB8100FFF7ACFF641C042CFD
:10275000F5D3FB48FFF7A6FFFA48FFF7A3FFFA48B7
:10276000FFF7A0FFF948FFF79DFFF548F84908601B
:10277000F448F849086010BD2DE9F04104460E46C2
:1027800015469846069F1022314604F1340000F0A9
:10279000BFFD002143200155042D00D30325E56230
:1027A0006564201DFFF78BFF04F11800FFF787FF1A
:1027B0002461C5F10400A0616462BDE8F08170B5D8
:1027C00005460E46482000F0ADFC044694B11EB903
:1027D000A80000F0A7FC00E030462063206B20B981
:1027E000204600F000FD002404E0A900A522206B93
:1027F00000F07CFD204670BD2DE9FF4F81B0804682
:1028000015469946DDE90E7A28461099FFF7D7FF5D
:102810000446002C56D0681E216B01EB800B2BF078
:10282000070B00953A462046119B0299FFF7A4FF3B
:102830004A464146584600F001FD2060BAF1000FBB
:1028400001D0CAF8004000F02AFDC3480068401CCF
:10285000C1490860C148006840B9C04804600846E2
:10286000006801280CD1FFF767FF09E0BC48006849
:1028700030B9BA480068C06AB84201D8B7480460A5
:10288000B849E06A0968884202D9B649E06A086036
:10289000B5480068401CB4490860B449E06A09685A
:1028A000884202D9B149E06A0860E16A01EB81011E
:1028B000A24A02EB8100211DFFF704FF012600F070
:1028C000F7FC01E04FF0FF36012E09D1A448006863
:1028D00030B1A2480068C06AB84201D200F0D9FC09
:1028E000304605B0BDE8F08F70B5A14800680028FB
:1028F00066D1A0480068401C9E49086008460068F0
:1029000008BB9349086893490968914A1160914945
:10291000086099490968491C974A11608C490968FF
:10292000096809B9012100E0002121B14FF0FF3110
:10293000924A116006E086490968C968CC688F4AE6
:102940006168116000BF8B4800688C490968884243
:1029500035D300BF7E480068006808B9012000E058
:10296000002020B14FF0FF308449086026E078480D
:102970000068C068C46865687E480068A84202D2E2
:102980007E4805601AE0201DFFF7C4FEA06A18B15A
:1029900004F11800FFF7BEFE7449E06A0968884236
:1029A00002D97249E06A0860E16A01EB8101634A79
:1029B00002EB8100211DFFF785FECBE700BF04E09D
:1029C0006F480068401C6E49086070BD70B50025F6
:1029D00000F065FC66480068401E654908600846CE
:1029E000006800284CD15C480068002848D00026C8
:1029F00021E05548C068C46804F11800FFF78AFE5A
:102A0000201DFFF787FE5949E06A0968884202D90C
:102A10005649E06A0860E16A01EB8101474A02EB2E
:102A20008100211DFFF74EFE4C49E06A0968C96A22
:102A3000884200D301264448006808B9012000E01C
:102A400000200028D5D04E48006860B106E0FFF7AE
:102A50004BFF4B480068401E4949086048480068E1
:102A60000028F4D10126012E03D046480068012831
:102A700005D1012500204349086000F00AFC00BF91
:102A800000F016FC284670BD10B5044633480068B7
:102A9000446038480068844207D230480168091D04
:102AA0002C480068FFF71CFE0CE02C480168091D4B
:102AB00027480068FFF714FE30480068844201D2BE
:102AC0002E48046010BD2A480068401C2849086050
:102AD00070472DE9F04104460F464FF00008FFF71C
:102AE000F2FF2068C519234920680968884209D97E
:102AF0002068A8420FD91F48006885420BD94FF0C3
:102B0000010808E02068A84203D81A4800688542F6
:102B100001D94FF001082560B8F1000F07D00F4828
:102B20000068001DFFF7F6FD2846FFF7ADFFFFF731
:102B30004DFF06460EB900F0ACFB25E09C020020DC
:102B4000EC020020000300201403002028030020D2
:102B50006C00002070000020400000203C0000209D
:102B60005000002048000020640000204C0000209D
:102B70005400002044000020600000206800002075
:102B8000580000205C000020BDE8F08170B50446CC
:102B900000267CB1FFF797FFF74800680519F74852
:102BA0000068001DFFF7B6FD2846FFF76DFFFFF731
:102BB0000DFF06460EB900F06CFB70BD70B5044603
:102BC00000F06DFB14B9ED48006800E020460646B1
:102BD000F56A00F06DFB284670BD2DE9F041064610
:102BE0000D464FF00008042D00D3032500F057FBDD
:102BF000E2480068864200D1002616B9DF48006826
:102C000000E030460446676CAF4232D0BD4203D983
:102C10002EB14FF0010802E00EB94FF00108E16A51
:102C2000606C884200D1E5626564C5F10400A06172
:102C300007EB8701D24A02EB81016069884213D118
:102C4000201DFFF767FDCF49E06A0968884202D975
:102C5000CC49E06A0860E16A01EB8101C84A02EBF5
:102C60008100211DFFF72EFDB8F1010F01D100F009
:102C700010FB00F01DFBBDE8F081C348006818B1EF
:102C80000120C249086025E004E0BE480068401EFB
:102C9000BC490860BB48006800EB8000B84951F8A7
:102CA00020000028F1D0B749096801EB8101B44A3E
:102CB00002EB810041684968416000F10801426807
:102CC0008A4202D14168496841604168C968AB4A9B
:102CD000116000BF704770B5044600F0E0FAA748E5
:102CE0000068844200D1002414B9A448006800E0C0
:102CF00020460546281DFFF70DFDA86A18B105F10D
:102D00001800FFF707FD291DA148FFF7DBFC00F0C5
:102D1000CFFA8CB99F48006810B100F0BAFA0BE006
:102D20009B4800689C490968884203D10020934968
:102D3000086001E0FFF7A1FF70BD10B5014600205B
:102D40000A46934C5369A34201D1012300E00023BA
:102D500083B1924C936AA34201D1012300E0002386
:102D6000012B07D0936A0BB9012300E00023012B4C
:102D700000D1012010BD70B505462C4644B37F48F4
:102D80000068844224D000F08AFA2046FFF7D5FF7D
:102D900001281BD1201DFFF7BDFC7A49E06A0968B4
:102DA000884202D97749E06A0860E16A01EB810153
:102DB000734A02EB8100211DFFF784FC6F49E06A32
:102DC0000968C96A884201D300F063FA00F070FA1A
:102DD00070BD2DE9F041054600262C460027FDF781
:102DE000CBF92046FFF7A9FF012826D166480068E5
:102DF000F0B96249E06A0968C96A884201D30120D2
:102E000000E000200646201DFFF784FC5D49E06AD3
:102E10000968884202D95B49E06A0860E16A01EB0F
:102E20008101574A02EB8100211DFFF74BFC04E0B2
:102E300004F118015948FFF745FCFDF7A4F93046A5
:102E4000BDE8F081704700BFFFF7FCFF4C48006809
:102E50000128F9D900F01DFAF6E71FB5002000900F
:102E600001900290034680224DA103904E48FFF747
:102E7000C3FC0446012C09D1FDF77EF90120454928
:102E8000086000203C49086000F0EDF91FBD10B556
:102E9000FDF772F900203F49086000F0F9F910BD14
:102EA00010B500F0FCF93448046800F001FA20463F
:102EB00010BD70B50025FDF75FF92F480468FDF7D8
:102EC00062F9204670BD34480068704770B5064608
:102ED0000C462A48016818313046FFF701FC2748A4
:102EE0000068001DFFF716FC601C06D1234801682E
:102EF000091D2748FFF7E6FB05E01F480068051994
:102F00002846FFF7C1FD70BD70B50646F068C4687D
:102F100004F11800FFF7FEFB1B480068A0B9201D54
:102F2000FFF7F8FB1749E06A0968884202D915499A
:102F3000E06A0860E16A01EB8101114A02EB81005D
:102F4000211DFFF7BFFB04E004F118011348FFF750
:102F5000B9FB0A49E06A0968C96A884201D30125B8
:102F600000E00025284670BD10490968016002494B
:102F70000968416070470000440000203C000020C8
:102F80009C0200204C000020540000205C00002027
:102F900028030020500000204000002014030020DF
:102FA00049444C4500000000472E00086000002006
:102FB00070B504460D4600F072F92868401C01D136
:102FC00000261FE0514920680968884206D0504910
:102FD00060680968884201D8012613E04C4960689E
:102FE0000968081A296888420BD22868484A61682B
:102FF0001268511A401A28602046FFF7B5FF0026D4
:1030000000E0012600F054F9304670BD012041492E
:10301000086070470146002002E0491C421C90B243
:103020000A78A52AF9D0800870472DE9F0410446B6
:1030300014B93948006800E0204607463D6B284631
:10304000FFF7E8FF06463046BDE8F08132490868E0
:10305000704770B505462C462F49E06A0968C96A71
:1030600088422FD22C480068C06AC0F10400A061D9
:10307000E16A01EB8101294A02EB81016069884222
:1030800001D1012000E00020C0B1201DFFF742FB6C
:1030900021480068C06AE0622149E06A0968884204
:1030A00002D91F49E06A0860E16A01EB81011B4A0D
:1030B00002EB8100211DFFF705FB03E016480068C5
:1030C000C06AE06270BD70B505462C46EDB1616C1A
:1030D000E06A884219D0201DFFF71CFB606CE0629B
:1030E000E06AC0F10400A0610D49E06A0968884205
:1030F00002D90B49E06A0860E16A01EB8101074AE5
:1031000002EB8100211DFFF7DDFA70BD6000002099
:10311000440000205C0000203C0000209C020020B5
:103120004C0000202DE9F04104464FF00008FFF765
:10313000CAFC3D48006898B93C493D4A11600021ED
:1031400051604FF4C0513B4A516000211160374833
:103150004FF4C051416011460160012032490860BE
:1031600044B1103414F0070F04D004F00700C0F18C
:1031700008000444002C31D0B4F5C05F2ED22C4F8F
:103180003846056801E02F462D686868A04202D2E3
:1031900028680028F7D1274885421FD0386800F1F9
:1031A0001008286838606868001B202810D92E197C
:1031B0006868001B70606C6071681D4800E0006802
:1031C000026852688A42FAD302683260066000BF21
:1031D000194968680968081A17490860FFF7F6FB7B
:1031E0004046BDE8F08170B506463546B6B1103DA3
:1031F0002C46FFF768FC61680D4800E00068026833
:1032000052688A42FAD30268226004600A49606800
:103210000968084408490860FFF7D8FB70BD0648F4
:1032200000687047704700007800002040030020CD
:103230007C0000208400002074000020001F4FF05C
:1032400080730360001F0160001F002303601438B7
:1032500002602038704747F6FF404FF0E021486198
:1032600007200861704710B51E48006840F47F00D1
:103270001C4908600846006840F07F400860FFF77E
:10328000EAFF002018490860FCF74EFF002010BD3F
:1032900070474FF0805013491C390860704710B5D3
:1032A000FCF76AFF10480068401C0F49086010BD19
:1032B00010B50D480068401E0B49086008460068BC
:1032C00008B9FCF760FF10BD10B54FF080500549FC
:1032D0001C3908600024FCF74FFFFFF705FBFCF7E3
:1032E00052FF10BD20ED00E08C000020D2B201E0C2
:1032F00000F8012B491EFBD270470022F6E710B5FB
:1033000013460A4604461946FFF7F0FF204610BD53
:1033100010B5044604E00B7800F8013B03B1491CEA
:10332000521EF8D2204610BD064C074D06E0E0685C
:1033300040F0010394E8070098471034AC42F6D3FC
:10334000FCF7DCFED03D0008F03D000802E008C8B4
:10335000121F08C1002AFAD170477047002001E00F
:1033600001C1121F002AFBD17047000000000000BD
:10337000000000000000000000003F4000000000CE
:103380000000000030004000300040000000090054
:103390000BC03D000BC03D00090018C024407FE079
:1033A000224031800000180024C01B000D803240F4
:1033B000018003801C4027401C8007400040100013
:1033C000600000000000000000000000000000009D
:1033D0001F80204040200000402020401F8000002F
:1033E0000000090006001F8006000900000004001C
:1033F00004003F8004000400000000100060000092
:1034000000000000000004000400040004000400A8
:10341000000000000040000000000000000000204C
:1034200001C006003800400000001F8020402040FE
:1034300020401F800000000010403FC000400000FE
:10344000000018C021402240244018400000108095
:103450002040244024401B80000002000D00110089
:103460003FC0014000003C80244024402440238091
:1034700000001F80244024403440038000003000BE
:10348000200027C03800200000001B80244024407A
:1034900024401B8000001C0022C0224022401F80CC
:1034A00000000000000008400000000000000000D4
:1034B00000000460000000000000000004000A009A
:1034C000110020804040090009000900090009009E
:1034D000000000004040208011000A000400180095
:1034E000200023402400180000001F8020402740B7
:1034F00029401F400000004007C039000F0001C0F4
:10350000004020403FC0244024401B8000001F801A
:103510002040204020403080000020403FC020401C
:1035200020401F80000020403FC024402E4030C07B
:10353000000020403FC024402E00300000000F005B
:103540001080204022403380020020403FC0040011
:1035500004003FC02040204020403FC02040204089
:1035600000000060202020203FC0200020002040DC
:103570003FC024400B0030C0204020403FC02040CE
:103580000040004000C03FC03C0003C03C003FC0C2
:10359000000020403FC00C4023003FC020001F809F
:1035A0002040204020401F80000020403FC0244099
:1035B0002400180000001F802140214020E01FA0AF
:1035C000000020403FC02440260019C0004018C021
:1035D00024402440224031800000300020403FC081
:1035E00020403000000020003F80004000403F802D
:1035F000200020003E0001C00700380020003800F5
:1036000007C03C0007C038000000204039C0060059
:1036100039C0204000002000384007C0384020005A
:103620000000304021C02640384020C0000000008B
:1036300000007FE0402040200000000070000C00EF
:103640000380004000000000402040207FE0000098
:1036500000000000200040002000000000000010DA
:1036600000100010001000100010000000004000CA
:10367000000000000000000002800540054003C07B
:10368000004020003FC004400440038000000000D0
:103690000380044004400640000000000380044012
:1036A00024403FC000400000038005400540034027
:1036B0000000000004401FC02440244020000000FF
:1036C00002E0055005500650042020403FC0044051
:1036D000040003C000400000044027C00040000078
:1036E000000000100010041027E00000000020403F
:1036F0003FC00140070004C00440204020403FC0BC
:1037000000400040000007C0040007C0040003C0E0
:103710000000044007C00440040003C00040000053
:1037200003800440044003800000041007F00450AC
:10373000044003800000000003800440045007F0B0
:103740000010044007C00240040004000000000014
:1037500006400540054004C00000000004001F8032
:10376000044000400000040007800040044007C0FF
:1037700000400400070004C00180060004000600A9
:1037800001C0070001C006000000044006C001009F
:1037900006C0044000000410071004E00180060089
:1037A00004000000044005C0064004400000000082
:1037B000000004007BE0402000000000000000004A
:1037C000FFF000000000000040207BE0040000004B
:1037D0000000400080004000200020004000000069
:1037E00000000000000000000000000000000000D9
:1037F000000000001FCC000C0000000000000000D2
:103800000800300060000800300060000000022066
:1038100003FC1E20022003FC1E20022000000000EA
:103820000E1811043FFF10840C78000000000F00F8
:1038300010840F3800C007781884007800000078E2
:103840000F8410C411240E9800E4008400080800BE
:103850006800700000000000000000000000000090
:103860000000000007E018182004400200000000DB
:1038700040022004181807E0000000000000024089
:10388000024001800FF001800240024000000080F1
:10389000008000800FF800800080008000000001A0
:1038A000000D000E000000000000000000000000FD
:1038B0000080008000800080008000800080000088
:1038C000000C000C000000000000000000000000E0
:1038D00000060018006001800600180020000000AB
:1038E00007F0080810041004080807F000000000A2
:1038F000080408041FFC000400040000000000008D
:103900000E0C10141024104411840E0C0000000042
:103910000C1810041104110412880C70000000002F
:1039200000E00320042408241FFC00240000000001
:103930001F981084110411041088107000000000FA
:1039400007F00888110411041888007000000000B6
:103950001C00100010FC13001C00100000000000F0
:103960000E3811441084108411440E3800000000F9
:103970000700088C10441044088807F0000000007D
:1039800000000000030C030C000000000000000019
:10399000000000010106000000000000000000001F
:1039A00000800140022004100808100400000220DA
:1039B000022002200220022002200220000000003B
:1039C00010040808041002200140008000000000DC
:1039D0000E001200100C106C10800F00000003E0AD
:1039E0000C1813E4142417C4082807D0000000049E
:1039F000003C03C41C40074000E4001C0004100409
:103A00001FFC1104110411040E880070000003E073
:103A10000C1810041004100410081C1000001004EE
:103A20001FFC100410041004080807F00000100424
:103A30001FFC1104110417C410040818000010041E
:103A40001FFC1104110017C010000800000003E063
:103A50000C181004100410441C78004000001004DE
:103A60001FFC10840080008010841FFC10040000E4
:103A7000100410041FFC10041004000000000003D8
:103A80000001100110011FFE1000100000001004C2
:103A90001FFC110403801464181C1004000010049F
:103AA0001FFC1004000400040004000C00001004BB
:103AB0001FFC1F0000FC1F001FFC1004000010046E
:103AC0001FFC0C04030000E010181FFC100007F09E
:103AD0000808100410041004080807F0000010047F
:103AE0001FFC10841080108010800F00000007F071
:103AF000081810241024101C080A07F200001004F3
:103B00001FFC1104110011C011300E0C0004000044
:103B10000E1C11041084108410441C38000018007E
:103B2000100010041FFC100410001800000010000A
:103B30001FF810040004000410041FF81000100007
:103B40001E0011E0001C007013801C0010001FC03C
:103B5000103C00E01F0000E0103C1FC000001004FB
:103B6000180C163401C001C01634180C10041000D3
:103B70001C00130400FC13041C00100000000804C7
:103B8000101C1064108413041C04101800000000A2
:103B9000000000007FFE40024002400200000000E2
:103BA00030000C0003800060001C000300000000D7
:103BB0004002400240027FFE0000000000000000C2
:103BC00000002000400040004000200000000001F4
:103BD00000010001000100010001000100010000DE
:103BE0004000400020000000000000000000000035
:103BF0000098012401440144014400FC0004100029
:103C00001FFC00880104010400880070000000000F
:103C10000070008801040104010400880000000015
:103C2000007000880104010411081FFC000400005A
:103C300000F8014401440144014400C800000000B0
:103C4000010401040FFC110411041100180000000C
:103C500000D601290129012901C90106000010042B
:103C60001FFC008401000100010400FC00040000AE
:103C70000104190419FC0004000400000000000005
:103C8000000300010101190119FE000000001004E9
:103C90001FFC0024004001B4010C010400000000DE
:103CA000100410041FFC00040004000000000104C4
:103CB00001FC0104010001FC0104010000FC0104FD
:103CC00001FC008401000100010400FC000400006C
:103CD00000F8010401040104010400F800000101DE
:103CE00001FF00850104010400880070000000004D
:103CF0000070008801040104010501FF00010104B6
:103D0000010401FC008401040100018000000000A6
:103D100000CC0124012401240124019800000000AA
:103D20000100010007F80104010400000000010087
:103D300001F8000400040004010801FC0004010073
:103D400001800170000C001001600180010001F091
:103D5000010C003001C00030010C01F00100000036
:103D60000104018C00740170018C01040000010148
:103D700001810171000E0018016001800100000046
:103D80000184010C013401440184010C0000000095
:103D900000000000000001003EFC40024002000064
:103DA000000000000000FFFF000000000000000015
:103DB000400240023EFC0100000000000000000044
:103DC00060008000800040004000200020000000D3
:103DD000F03D000800000020900000004C33000877
:103DE000803E000890000020B01E00005C330008F8
:103DF000030406080C101820300000000001020324
:103E00000401020304060708090000000048E80155
:103E1000030406080C101820300000000000000009
:103E2000000102030406070809000000000000006A
:103E30000000000000000000000000000000000082
:103E40000000000000000000000000000000000072
:103E50000000000000000000FFFFFFFF0000000066
:103E6000000000000018000000000000000000003A
:103E7000000000000000000000000000AAAAAAAA9A
:040000050800019559
:00000001FF
