:020000040800F2
:100000009820002095010008E9020008EB02000892
:10001000FB020008FF0200080303000800000000C4
:1000200000000000000000000000000009010008BE
:1000300009030008000000003D010008FD39000828
:10004000AF010008AF010008AF01000883260008D7
:10005000AF010008AF010008AF010008AF010008C0
:10006000AF010008AF010008AF010008AF010008B0
:10007000AF010008AF010008AF010008AF010008A0
:10008000AF010008AF010008AF010008AF01000890
:10009000AF010008AF010008AF010008AF01000880
:1000A000AF010008AF010008AF010008AF01000870
:1000B000AF010008AF010008AF010008AF01000860
:1000C000AF010008AF010008AF010008AF01000850
:1000D000AF010008AF010008AF010008AF01000840
:1000E000AF010008AF010008AF010008AF01000830
:1000F000AF010008DFF80CD006F0F8FA004800471E
:1001000085020008982000201A4B19680868B0E89A
:10011000F00F80F309884FF0000080F311884EF053
:100120000D0E70470000000003480068006880F36F
:10013000088862B600DF00BF08ED00E0EFF3098039
:100140000C4B1A6820E9F00F106008B54FF0BF00A3
:1001500080F3118803F02BF94FF0000080F3118831
:10016000BDE8084019680868B0E8F00F80F3098816
:10017000704700BF3C00002001B44FF0BF0080F387
:10018000118801BC704701B44FF0000080F3118862
:1001900001BC70470648804706480047FEE7FEE777
:1001A000FEE7FEE7FEE7FEE7FEE7FEE7FEE7FEE727
:1001B0005D1E0008F50000081FB500BF03F00AFA35
:1001C000039001F09AFF38A20021084602F072F96C
:1001D00006E039A21021002002F06CF901F038FF8E
:1001E00002F0E2FB0028F4D135A2102102F062F9FE
:1001F000102001230090334802781021142002F0CF
:100200000FF901F025FF06F077F906E02EA2102184
:100210001E2002F04FF901F01BFF2D48016800205D
:1002200004F043FC0028F1D106E023A210211E2097
:1002300002F040F901F00CFF01AA02A925A006F086
:10024000EFF90028F1D11EA210211E2002F032F990
:10025000102000900298820A04231021322002F01C
:10026000DFF8102000900198820A042310215A2000
:1002700002F0D6F801F0ECFE03E0C82103A802F07A
:10028000C2FFFAE71FB500200123CDE9003002903C
:100290000346802210A10390AFF2E30002F046FE75
:1002A00003F075F900BFFEE7302E393627204F4C9A
:1002B00045442054455354004552524F52000000CB
:1002C0004F4B0000390000204552524F522D310053
:1002D000D001002030000000427574746F6E204819
:1002E000616E646C6500000070470948006800F0AA
:1002F000010000B100BE00BFFEE700BFFEE700BF87
:10030000FEE700BFFEE77047704770477047000088
:10031000F0ED00E010B504468548844208D1012183
:10032000084600F0BCFA0021012000F0B8FA52E0C3
:100330008048844208D10121022000F0B0FA002157
:10034000022000F0ACFA46E07B48844208D101214B
:10035000042000F0A4FA0021042000F0A0FA3AE002
:100360007648844208D10121082000F098FA002143
:10037000082000F094FA2EE07148844208D101214F
:10038000102000F08CFA0021102000F088FA22E002
:100390006C48844208D10121402000F080FA0021FD
:1003A000402000F07CFA16E06748844208D1012121
:1003B000802000F074FA0021802000F070FA0AE03A
:1003C0006248844207D10121202000F068FA002110
:1003D000202000F064FA10BDF0B50A460021002389
:1003E000002400BF3DE0012505FA01F3156805EA88
:1003F00003049C4234D105684F000326BE40B54338
:10040000056015794E00B5400668354305601579DD
:10041000012D02D01579022D16D185684F000326D3
:10042000BE40B543856055794E00B540866835437A
:100430008560858801268E40B543858085889679BC
:100440008E40B6B235438580C5684F000326BE4056
:10045000B543C560D5794E00B540C6683543C56023
:10046000491C1029BFD3F0BD4FF6FF710160002178
:10047000017141718171C171704708B54FF48032CB
:100480000092009A0A430092009AC261C161009AE8
:10049000C261C2690092C269009208BD0246002092
:1004A000138A0B400BB1012000E000207047014689
:1004B000088A704702460020938A0B400BB1012046
:1004C00000E0002070470146888A7047018370472A
:1004D000418370470AB1018300E041837047818204
:1004E0007047828A4A4082827047F0B50023002418
:1004F0004D07ED0E02FA05F3CE1000F1200555F878
:1005000026504E07F70E0F26BE40B543CF1000F120
:10051000200646F82750CE1000F1200555F8265049
:1005200045EA0304CE1000F1200545F82640F0BD51
:10053000000002400004024000080240000C02409B
:100540000010024000180240001C0240001402404B
:10055000F948006840F48070F7490860F6480830B0
:100560000068F6490840F44908310860F24800681C
:10057000F3490840F04908600846006820F48020EC
:100580000860ED480830006820F47D00EA49083131
:1005900008600020091D086070470021E64A921C8F
:1005A000117011460870704710B5014600220023F3
:1005B00000204A11012A02D1DF4C236802E0DE4C00
:1005C0003434236801F01F02012494401C400CB114
:1005D000012000E0002010BD38B50020009000246C
:1005E000002500BF3120FFF7DFFF05460098401CC3
:1005F00000900098B0F5A06F01D0002DF2D031200E
:10060000FFF7D2FF08B1012400E00024204638BDE6
:10061000C949C91D0870704701460020C64A121D0D
:10062000106820F46040084310607047C5490862B4
:10063000704701460020C04A121D106820F4F8508F
:1006400040EA012010607047BE49086070470021F1
:10065000B94A35321170114608707047BA490860BE
:10066000704710B541EA02030343B34C0A342370C8
:1006700010BDB44908667047B24908677047B2496F
:100680002C310860704740EA0102AB4B0B331A7003
:10069000704701460020A84A0832106820F0030085
:1006A000084310607047A4480830006800F00C0050
:1006B000704701460020A04A0832106820F0F00080
:1006C000084310607047014600209B4A08321068BA
:1006D00020F4E06008431060704701460020964A0D
:1006E0000832106820F4605040EAC1001060704782
:1006F000F0B50021002200230026002400258E4FA3
:1007000008373F6807F00C0131B1042912D00829DD
:1007100013D00C2937D113E0874F3F1D3F68C7F333
:1007200042356F1C4FF0010C0CFA07FC4FEACC3736
:10073000076036E0854F076033E0854F076030E0A3
:100740007D4F08373F6807F470127B4F08373F68CA
:1007500007F440037F4F07EB92473A78012707EBF6
:100760009353754F08373F6807F480362EB9774F9B
:100770005743B7FBF3F7076004E0754F5743B7FBE8
:10078000F3F707600DE06C4F3F1D3F68C7F342353C
:100790006F1C4FF0010C0CFA07FC4FEACC370760D6
:1007A00000BF00BF644F08373F6807F0F001090938
:1007B000694F7C5C0768E74047605F4F08373F68D8
:1007C00007F4E061090A644F7C5C4768E740876092
:1007D000594F08373F6807F46051C90A5E4F7C5C87
:1007E0004768E740C760F0BD002100F44032B2F531
:1007F000403F08D1504A116821F0C04100F0C0428A
:1008000011434D4A11604C4A3432126822F440328E
:10081000494B34331A601A46126800F440331A43C5
:10082000454B34331A607047474958310860704768
:1008300045495C310860704739B13F4A1C32126843
:1008400002433D4B1C331A6006E03B4A1C321268DF
:100850008243394B1C331A60704739B1364A203213
:1008600012680243344B20331A6006E0324A2032C9
:1008700012688243304B20331A60704739B12E4AD8
:100880002432126802432C4B24331A6006E02A4AB1
:10089000243212688243284B24331A60704739B1DE
:1008A000254A103212680243234B10331A6006E0C7
:1008B000214A1032126882431F4B10331A6070476E
:1008C00039B11D4A1432126802431B4B14331A60AB
:1008D00006E0194A143212688243174B14331A6027
:1008E000704739B1144A183212680243124B183358
:1008F0001A6006E0104A1832126882430E4B183311
:100900001A60704739B10C4A2832126802430A4B08
:1009100028331A6006E0084A283212688243064BE0
:1009200028331A607047C9B1034A2C321268024357
:10093000014B2C331A6016E0003802400CC0FF88CF
:10094000FEFFFEEE00004742800647420024F4000E
:1009500000127A0000000020090000201F4A1268DF
:1009600082431E4B1A60704739B11C4A121D12682F
:1009700002431A4B1B1D1A6006E0184A121D12682A
:100980008243164B1B1D1A60704739B1134A1F3A38
:1009900012780243114B1F3B1A7006E00F4A1F3AB0
:1009A000127882430D4B1F3B1A7070470B4808307A
:1009B000006840F0807009490831086070470146BE
:1009C0000020064A203A12680A400AB1012000E0DD
:1009D0000020704701491E39087070472C380240CA
:1009E00032490143324A1160704770B5002100233B
:1009F0000F22C4781CB32E4C246804F4E064C4F5C0
:100A0000E064C4F30721C1F10404E3B20A4144786D
:100A10009C40E1B28478144021430C07210E254C00
:100A200005786155047804F01F050124AC40057871
:100A30006D11AD0005F1E025C5F8004109E004782D
:100A400004F01F050124AC401B4D0678761145F8D3
:100A5000264070BD194A0A400243154B1B1F1A60FD
:100A6000704739B1124A121D12680243104B1B1D08
:100A70001A6006E00E4A121D126882430C4B1B1DC1
:100A80001A607047042808D14FF0E021096941F04D
:100A900004014FF0E022116107E04FF0E021096905
:100AA00021F004014FF0E022116170470000FA05C7
:100AB0000CED00E000E400E080E100E080FFFF1FBB
:100AC000002041490860091D0860091D0860091DD2
:100AD00008606FF07F403C49143108607047002186
:100AE00039498279002A3AD00A46126803689A4343
:100AF0000B461A600A1D126803689A430B1D1A60A0
:100B0000027911440A6803681A430A602E4A0832BF
:100B1000126803689A432C4B08331A601A1D126836
:100B200003689A43284B0C331A604279102A0ED17D
:100B30001A1F126803681A43234B08331A601A1DE0
:100B4000126803681A43204B0C331A600DE01E49EB
:100B5000427911440A6803681A430A6005E0027981
:100B600011440A6803689A430A60704700210160D3
:100B700001710C21417100218171704712491031BE
:100B800009680143104A1032116070470146002085
:100B90000D4A143212680A400AB1012000E0002018
:100BA0007047094914310860704701460020064A21
:100BB000143212680A400AB1012000E00020704798
:100BC00001491431086070470004014008B5002253
:100BD000009200200021CA22F94B1A6053221A60A9
:100BE000F74A183A126822F0A002F54B183B1A6037
:100BF00000BFF34A183A126802F02001009A521C12
:100C00000092009AB2F5004F01D00029F1D0EC4AD1
:100C1000183A126802F020020AB1012000E0002018
:100C2000FF22E74B1A6008BD08B5002200920020A1
:100C30000021E34A183A126802F04002E2B9421E6B
:100C4000DF4B183B1A6000BFDD4A183A126802F009
:100C50004001009A521C0092009AB2F5005F01D048
:100C60000029F1D0D64A183A126802F040020AB1BF
:100C7000012002E0002000E0012008BD38B500207E
:100C8000009000240025CA20CD4908605320086048
:100C9000FFF7CAFF00B952E00020C94924390860B3
:100CA00042F20110091D0860081D006800F00700ED
:100CB000091D086000BFC2481838006800F004042D
:100CC0000098401C00900098B0F5005F01D0002C07
:100CD000F1D0BB481838006800F0040008B90025BE
:100CE0002DE0B7481C3800680020B5491C39086061
:100CF0004FF6FF70B24910390860B248091F08600A
:100D00000020AF490C390860091D0860091D086002
:100D1000AB4908310860AA4918310860A849203158
:100D20000860091D0860A64918390860A4491C31EB
:100D30000860FFF74BFF08B9002500E00125FF2000
:100D40009F490860284638BD9D481838006820F043
:100D500080009B4918390860704730B5044600256B
:100D6000CA209749086053200860FFF75DFF00B96B
:100D70001DE093481C38006820F0400090491C3961
:100D8000086008460068216808438D491C390860DE
:100D90008B491439A068086008460068A18840EAB9
:100DA0000140874914390860FFF7CEFF0125FF2075
:100DB00083490860284630BD002101607F214160E1
:100DC000FF218160704718B1FF217D4A116004E066
:100DD000CA217B4A116053211160704730B5044627
:100DE0000025CA207649086053200860FFF71CFFE1
:100DF00000B914E044B172481C38006840F010009B
:100E00006F491C39086007E06D481C38006820F005
:100E100010006B491C390860FFF796FF0125FF2081
:100E200067490860284630BDCA21654A11605321D0
:100E3000116040B162491C39096841F02001604AE3
:100E40001C3A116007E05E491C39096801F0DF01B6
:100E50005B4A1C3A1160FF21594A116070470146F4
:100E6000002204E0501CC2B2A1F10A00C1B20A295A
:100E7000F8DA100741EA10607047014600BF080920
:100E800000EB8000420001F00F001044C0B2704738
:100E90002DE9F04105460C460026002755B9484883
:100EA0001C38006800F0400000B102E00020E07053
:100EB00000BF0EE042481C38006800F0400020B13E
:100EC0002078FFF7DAFF064602E00020E07000BF5E
:100ED00000BF55B120780004617840EA0120A17874
:100EE0000843E17840EA014611E02078FFF7B7FFB8
:100EF0004FEA00486078FFF7B2FF48EA0028A07880
:100F0000FFF7ADFF48EA0008E07848EA0046CA204B
:100F10002B49086053200860FFF786FE08B90027B8
:100F200014E029483040264924390860FFF70CFFB7
:100F300023481C38006800F0200030B9FFF746FE57
:100F400008B9002702E0012700E00127FF201C4923
:100F500008603846BDE8F0810021C1700170417021
:100F60008170704770B506460C4600251448243839
:100F70000068154900EA0105C5F305402070C5F376
:100F80000620607005F07F00A07005F48000000C62
:100F9000E0705EB92078FFF770FF20706078FFF78F
:100FA0006CFF6070A078FFF768FFA07070BD002034
:100FB0000349091D08680249203909687047000083
:100FC00024280040FF007F007F7F7F002DE9F04153
:100FD00005460C46002600274DB9607800F0100049
:100FE000102804D1607820F010000A30607005B934
:100FF00008E06078FFF741FF0646A078FFF73DFF65
:10100000064600BF55B1E0780004617840EA01204F
:10101000A1780843217840EA413611E0E078FFF7F3
:101020001EFF4FEA00486078FFF719FF48EA0028E2
:10103000A078FFF714FF48EA0008207848EA403615
:10104000CA20FE49086053200860FFF7EDFD08B98B
:10105000002714E0FA483040F84920390860FFF7CB
:1010600073FEF6481C38006800F0200030B9FFF726
:10107000ADFD08B9002702E0012700E00127FF20AD
:10108000EE4908603846BDE8F081012101708170A9
:1010900041700021C170704770B506460C460025AE
:1010A000E64820380068E64900EA0105280CE070AF
:1010B000C5F30420607005F03F00A070C5F3423016
:1010C00020705EB9E078FFF7D8FEE0706078FFF737
:1010D000D4FE6070A078FFF7D0FEA07070BD2DE93F
:1010E000F04105460E46144600276DB9D3481C381A
:1010F000006800F0400000B102E00020E07000BF96
:10110000A06800B91AE019E0CC481C38006800F06B
:10111000400020B12078FFF7B0FE074602E0002033
:10112000E07000BFA06820B9207BFFF7A6FE07464D
:1011300004E0207BFFF7A1FE074600BF95B12078B1
:101140000004617840EA0120A1780843E17840EA90
:101150000140217B40EA0160A1680843616840EAE0
:1011600001071BE02078FFF77AFE4FEA004860781D
:10117000FFF775FE48EA0028A078FFF770FE48EAFE
:101180000008E07848EA0048207BFFF768FE48EA5C
:101190000060A1680843616840EA0107CA20A749C6
:1011A000086053200860B6F5807F03D1A348083853
:1011B000076002E0A148001F0760FF209F49086008
:1011C000BDE8F0810021C1700170417081708160C3
:1011D000012101730021416070472DE9F04106466D
:1011E0000F4614460025B7F5807F03D19348083891
:1011F000056802E09148001F0568C5F305402070AE
:10120000C5F30620607005F07F00A07005F4800033
:10121000000CE070C5F30560207305F08040A0600D
:1012200005F0803060607EB92078FFF726FE2070E0
:101230006078FFF722FE6070A078FFF71EFEA070B6
:10124000207BFFF71AFE2073BDE8F08138B5024617
:101250000024009400230020CA24784D2C605324DD
:101260002C6041B1754C1C3C24681443734D1C3DEB
:101270002C6001201EE0714C1C3C246894436F4D8F
:101280001C3D2C6000BF6D4C183C246804EA1223FE
:10129000009C641C0094009CB4F5005F01D0002BFE
:1012A000F1D0664C183C246804EA12240CB90020E2
:1012B00000E00120FF24614D2C6038BD30B50023D3
:1012C000CA245E4D2C6053242C6041EA0203B0F521
:1012D000807F03D1594C2034236002E0574C2434E2
:1012E0002360FF24554D2C6030BD01460020B1F530
:1012F000807F05D1514A20321268C2F30E0004E00B
:101300004E4A24321268C2F30E007047CA214B4A7B
:1013100011605321116049491C39096821F0070106
:10132000464A1C3A11601146096801431160FF21C9
:10133000424A11607047CA21404A1160532111602E
:101340003E4910390860FF21116070473B48103852
:10135000006880B2704718B5014600230093002250
:101360000020CA23354C23605323236049B1334BFB
:101370001C3B1B6843F48063304C1C3C2360012001
:101380001FE02E4B1C3B1B6823F480632B4C1C3C42
:10139000236000BF294B183B1B6803F00402009B2D
:1013A0005B1C0093009BB3F5005F01D0002AF1D0D5
:1013B000224B183B1B6803F004030BB9002000E02C
:1013C0000120FF231D4C236018BDCA221B4B1A604D
:1013D00053221A60194A1C3A126822F48022174BD1
:1013E0001C3B1A601A46126840EA01031A43134B69
:1013F0001C3B1A60FF22114B1A6070470F481C38C3
:10140000006800F480207047CA220C4B1A605322F7
:101410001A600A4A1C3A126822F4E002074B1C3B8D
:101420001A601A46126840EA01031A43034B1C3B38
:101430001A60FF22014B1A60704700002428004008
:101440003FFFFF0070B504460D460026CA20FE4946
:10145000086053200860FFF7E7FB00B907E044EAA3
:101460000500F9490C390860FFF76EFC0126FF20E2
:10147000F5490860304670BD30B504460025CA20E5
:10148000F149086053200860FFF7CEFB00B914E073
:1014900044B1ED481C38006840F08000EA491C392E
:1014A000086007E0E8481C38006820F08000E64942
:1014B0001C390860FFF748FC0125FF20E24908605D
:1014C000284630BDCA21E04A11605321116040B165
:1014D000DD491C39096841F40001DB4A1C3A1160FE
:1014E00007E0D9491C39096821F40001D64A1C3AA1
:1014F0001160FF21D44A11607047CA21D24A11609D
:1015000053211160D0491C39096821F40021CE4AC9
:101510001C3A11601146096801431160FF21CA4A53
:101520001160704770B5034600200024CA25C64EDE
:10153000356053253560C44D183D2D6805F4803560
:1015400055B100E0641CC04D183D2D6805F4803590
:1015500015B1B4F5805FF5D1BB4D183D2D6805F48C
:1015600080353DB943EA01051543B74E183635605D
:10157000012000E00020FF25B34E356070BD10B59E
:101580000A460021B04B1C3B1B6840F6080423EAC6
:1015900004011AB140F40063194300E00143CA2377
:1015A000A94C236053232360A74B1C3B1960FF23E6
:1015B000236010BD2DE9F04180460C4615460026FB
:1015C0000027A1480C300068A04900EA01069E48A7
:1015D000103000689E4900EA0107C6F305402070FC
:1015E000C6F30620607006F07F00A07006F480004D
:1015F000000CE0700020E870C7F30420687007F06A
:101600003F00A870C7F342302870B8F1000F17D11F
:101610002078FFF732FC20706078FFF72EFC6070B6
:10162000A078FFF72AFCA0706878FFF726FC6870A6
:10163000A878FFF722FCA8702878FFF71EFC287016
:10164000BDE8F081804814300068704741B97E4A97
:101650001C32126822EA40027B4B1C331A6007E0FE
:10166000794A1C32126842EA4002774B1C331A60F6
:10167000704739B1744A1C3212680243724B1C33F2
:101680001A6006E0704A1C32126882436E4B1C33AB
:101690001A6070476C491C31096821F4C0516A4ACC
:1016A0001C32116011460968014311607047664998
:1016B0001C31096821F4E061634A1C321160114653
:1016C00009680143116070475F491C31096821F4C2
:1016D000C0415D4A1C321160114609680143116026
:1016E000704740B158491C31096841F08001564AA1
:1016F0001C32116007E054491C31096821F0800157
:10170000514A1C321160704740B14F491C31096881
:1017100021F400414C4A1C32116007E04A491C3157
:10172000096841F40041484A1C321160704708B50D
:1017300000220092444A2C320092009A02EB80026E
:101740000092009A116008BD08B501460020009083
:101750003D482C300090009800EB810000900098EC
:10176000006808BD38491C31096821F48021364AD7
:101770001C32116011460968014311607047F0B5D1
:1017800004460D4600270026CA202F490860532032
:1017900008602D481838006800F0080050B100E0DB
:1017A000761C29481838006800F0080010B1B6F51A
:1017B000005FF5D124481838006800F0080098B997
:1017C00021481C38006800F0100058B945EA0400B0
:1017D0001D4908310860FFF7F9F908B9002704E04E
:1017E000012702E0002700E00027FF2016490860DB
:1017F0003846F0BDCA22144B1A6053221A6091B1C8
:10180000114A1C3A126820F004031A430E4B1C3B89
:101810001A600D4A1C32126800F004031A430A4B86
:101820001C331A6018E0084A1C3A126820F00403BE
:101830009A43054B1C3B1A60034A1C32126800F0A5
:1018400004039A43004B05E0242800407F7F7F007B
:101850003FFFFF001C331A60FF222A4B1A607047BB
:1018600010B5014600200022264B183B1B68264C71
:1018700003EA040202EA01030BB1012000E00020A8
:1018800010BDC0F3100141F080011E4A183A1268E1
:1018900002F0800262EA01011A4A183A11607047A8
:1018A00030B50146002000220023164C1C34246869
:1018B00004F00402134C1C3C24680C408D0C21FAEB
:1018C00005F502EAD53544EA05030E4C183C2468B8
:1018D00004EA11121BB194B20CB1012000E0002007
:1018E00030BD002101098AB242F08002054B183B4D
:1018F0001B6803F0800363EA0202024B183B1A6084
:1019000070470000242800407FFF010010B501212E
:101910000807FEF7E6FF00214FF08050FEF7E1FFD9
:1019200010BD4D4908627047014600204B4A1068BF
:1019300020F0E00008431060704747490861704795
:1019400008B500220092444AA03202440092009A54
:10195000116008BD4049886270473F49486270473E
:10196000014600203D4A106820F4C050084320F092
:101970000C023A4B1A60704758B13849096841F077
:101980000101364A11601146096841F48041116035
:101990000AE03249096821F48041304A1160114659
:1019A000096821F001011160704710B5024600205E
:1019B0002A4B186820F0030010431860284B1B685E
:1019C00023F00403264C2360012901D130BF00E03D
:1019D00020BF10BD10B502460020204B186820F033
:1019E0000300104318601E4B1B6843F004031C4C9B
:1019F0002360012901D130BF00E020BF184B1B68D4
:101A000023F00403164C236010BD1448006840F016
:101A10000400124908600846006840F002000860AF
:101A20000F48006840F004000D49086000BF00BF87
:101A300030BF704701460020084A52680A400AB188
:101A4000012000E0002070470449096841EA800154
:101A5000024A11607047000000000E420070004012
:101A600010ED00E010B50446BA48844208D10121C7
:101A70008014FEF725FF0021A014FEF721FF16E0D9
:101A8000B548844208D101210014FEF72AFF002145
:101A90002014FEF726FF0AE0B048844207D1012156
:101AA000C013FEF71EFF0021E013FEF71AFF10BD62
:101AB00010B50022028802F441520B884C8823435F
:101AC0008C882343CC8823430C8923434C892343AC
:101AD0008C892343CC8923431A430280838B4FF2A2
:101AE000FF74234083830B8A038210BD2DE9FF5FBF
:101AF00005460C464FF0000902274FF000084FF052
:101B0000010B0026B246A88B4FF240010840A88383
:101B100002202884B5F81C90A068022801D100BFDB
:101B200033E0A08810B94FF0010B01E04FF0020B39
:101B30006846FEF7DDFDDDF800A0E088B0F5007F27
:101B40000AD14FEA1A2000EB80004000A168B0FBE8
:101B5000F1F0401D86B20BE04FEA4B10BAFBF0F0FB
:101B600000EB80004000A168B0FBF1F0401D86B2A0
:101B70000A20B6FBF0F606F00108A6EB0800C0F359
:101B80004F074FF6FF7000EA0828022F01DBFF2FF6
:101B900002DD02274FF00008E08840EA08003843E1
:101BA0002884A088A18908436188084321880843C4
:101BB00040F4006040EA0909A5F81C90BDE8FF9FC9
:101BC0000021018041808180C1800181418181812A
:101BD000C1810721018270470021018041808180FD
:101BE000C1800221816000218181704721B102887A
:101BF00042F04002028004E002884FF6BF731A40B0
:101C00000280704721B1828B42F48062828304E0BB
:101C1000828B4FF6FF331A408283704702884FF25F
:101C2000FF731A40028002880A4302807047B1F5B0
:101C3000804F04D1028842F48042028004E002888E
:101C40004BF6FF731A40028070474FF6FF629142D5
:101C500004D0028842F48072028004E002884FF6C9
:101C6000FF631A400280704721B1828842F004026B
:101C7000828004E082884FF6FB731A4082807047AE
:101C80000146888970478181704721B1028842F4FA
:101C90000052028004E002884DF6FF731A40028071
:101CA0007047018841F4805101807047024600204E
:101CB000012901D0108B00E0908A70470146088A04
:101CC00070471AB183880B43838002E083888B437B
:101CD0008380704730B5002400230C110125A540F6
:101CE000ABB21AB185881D43858002E085889D438B
:101CF000858030BD0246002013890B400BB10120C6
:101D000000E000207047CA4302817047F0B50246E8
:101D1000002000240023002501F00F070126BE400B
:101D2000B4B20B1101269E40B3B2968806EA0305B1
:101D30001689264016B10DB1012000E00020F0BD4B
:101D400010B5002201F00F040123A3409AB2D3433F
:101D5000038110BD0030014000380040003C0040CD
:101D60000CB50020019000908548006840F001000B
:101D70008349086000BF8248006800F002000090BC
:101D8000009818B90198B0F5A06FF4D17C480068AC
:101D900000F0020010B10120009001E0002000904E
:101DA0000098012859D17748006840F0040075492F
:101DB00008600846006840F00200086008460068B5
:101DC00040F0010008606E482430006840F0805008
:101DD0006B4924310860C8146B49086000BF6A4829
:101DE000406800F010000028F9D16548083000680C
:101DF00063490831086008460068086008460068C2
:101E000008600846006820F47D0008600846006805
:101E100040F4880008605A48006840F080705849D3
:101E2000086000BF5648006800F000700028F9D034
:101E300053480830006820F0030051490831086019
:101E40000846006840F00300086000BF4C480830B6
:101E5000006800F00C000C28F8D10CBD10B5484803
:101E6000006840F4807046490860454808300068C2
:101E700046490840424908310860414800684449E1
:101E800008403F4908600846006820F48020086048
:101E90003B480830006820F47D003949083108606B
:101EA0000020091D0860FFF75BFF4FF00060394913
:101EB000086010BD70B5002200200021002400231E
:101EC0002F4D08352D6805F00C0232B1042A10D0D0
:101ED000082A12D00C2A39D113E0294D2D1D2D6866
:101EE000C5F342335D1C0126AE40F5032A4E356032
:101EF00038E02A4D284E356034E0294D264E3560B5
:101F000030E01F4D08352D6805F470101C4D083564
:101F10002D6805F44001234D05EB904528780125F7
:101F200005EB9151164D08352D6805F4803434B910
:101F30001A4D4543B5FBF1F5174E356005E0184DD8
:101F40004543B5FBF1F5144E35600BE00C4D2D1DEE
:101F50002D68C5F342335D1C0126AE40F5030E4EDD
:101F6000356000BF00BF064D08352D68C5F3031569
:101F70000D4E725D084D2D68D540074E356070BD21
:101F800000380240003C0240007000400CC0FF8856
:101F9000FEFFFEEE08ED00E01C0000200024F4002F
:101FA00000127A00200000202900002010B5012135
:101FB000F848FEF78DFA0221F648FEF787FA01216C
:101FC000F448FEF783FA10BD10B50121F148FEF781
:101FD0007FFA0221EF48FEF779FA0221ED48FEF779
:101FE00077FA10BD70B5044608250221E948FEF7CE
:101FF0006FFA15E004F0800020B10121E548FEF7FA
:1020000065FA03E00121E348FEF762FA0221E148A4
:10201000FEF75CFA0221DF48FEF75AFA6006040E6A
:102020002800A5F10101CDB2E4D170BD10B50121A8
:10203000D848FEF74BFA0221D648FEF747FA0121AD
:10204000D448FEF745FA0221D248FEF741FA10BD06
:1020500070B5FFF7EBFF7820FFF7C4FFFFF7B4FF81
:102060004020FFF7BFFFFFF7AFFF00240FE0002580
:1020700009E0C94901EB8501085DFFF7B3FFFFF7F0
:10208000A3FF681CC5B2802DF3DB601CC4B2042C16
:10209000EDDBFFF78BFF70BD70B500240CE0002571
:1020A00006E00020BC4901EB85010855681CC5B25B
:1020B000802DF6DB601CC4B2042CF0DBFFF7C8FFF8
:1020C00070BD70B505460C46FFF7B0FF7820FFF7EE
:1020D00089FFFFF779FF1CB90020FFF783FF02E0BB
:1020E0004020FFF77FFFFFF76FFF2846FFF77AFFDB
:1020F000FFF76AFFFFF75AFF70BD1CB501210320EF
:10210000FEF79AFB012000908DF8040000208DF866
:10211000060002208DF8050069469E48FEF75CF92E
:102120000220009001208DF8040000208DF80600A8
:1021300002208DF8050069469648FEF74DF980208B
:10214000009001208DF8040000208DF80600022088
:102150008DF8050069469148FEF73EF980218F48C9
:10216000FEF7B4F901218B48FEF7B0F90221894846
:10217000FEF7ACF980218948FEF7AAF90A2001F0A0
:102180009FF880218548FEF7A1F90021AE20FFF7D6
:1021900098FF0021D520FFF794FF00218020FFF752
:1021A00090FF0021A820FFF78CFF00211F20FFF7E0
:1021B00088FF0021D320FFF784FF00210846FFF7A6
:1021C00080FF00214020FFF77CFF00218D20FFF7DA
:1021D00078FF00211420FFF774FF0021A120FFF7F2
:1021E00070FF0021C820FFF76CFF0021DA20FFF705
:1021F00068FF00210220FFF764FF00218120FFF724
:1022000060FF00218F20FFF75CFF0021D920FFF73E
:1022100058FF0021F120FFF754FF0021DB20FFF7DA
:1022200050FF00214020FFF74CFF0021A420FFF7C2
:1022300048FF0021A620FFF744FF00212020FFF7E0
:1022400040FF00210846FFF73CFF00212120FFF757
:1022500038FF00210846FFF734FF00217F20FFF7F9
:1022600030FF00212220FFF72CFF00210846FFF756
:1022700028FF00210320FFF724FF0021AF20FFF7F4
:1022800020FFFFF709FF1CBD10B500218D20FFF7CF
:1022900018FF00211420FFF714FF0021AF20FFF7E3
:1022A00010FF10BD10B50021AE20FFF70AFF00217E
:1022B0008D20FFF706FF00211020FFF702FF10BD61
:1022C000F0B5144600267F2801DC1F2900DDF0BD93
:1022D0000B46CF1701EB5777C7F3C702CF1701EBB8
:1022E0005777FF10A1EBC707FDB20123AB40DEB269
:1022F0004CB1294B03EB80039B5C3343264F07EB28
:102300008007BB5408E0244B03EB80039B5CB34382
:10231000214F07EB8007BB5400BFD8E72DE9F047FA
:1023200006460F4690469946DDF820A034460CE05C
:102330003D4606E0524629462046FFF7C1FF681C8D
:10234000C5B24D45F6DD601CC4B24445F0DDFFF773
:102350007FFEBDE8F0872DE9F04F80460C4615461C
:102360001E46A346A5F12000C5B2002749E00C2E69
:1023700007D105EB45000A4901EB800010F80790F2
:1023800004E0084800EB051010F807904FF0000A31
:1023900031E0000000040240E8010020000002409B
:1023A00084670008F86B000809F0800028B1214616
:1023B0004046099AFFF784FF09E0099808B901200F
:1023C00000E00020024621464046FFF779FF4FEA31
:1023D00049604FEA1069601CC4B2A4EB0B00B04224
:1023E00005D15C4608F1010000F0FF0806E00AF1A3
:1023F000010000F0FF0ABAF1080FD5DB00BF781C1E
:10240000C7B2B742B3DBBDE8F08F10B5024601207A
:1024100000E050430B00A1F10104E1B2F9D110BD7D
:102420002DE9FF4F81B0074691461E460E9D4FF0A5
:10243000000A002439E0301B401EC1B20A20FFF719
:10244000E4FFB9FBF0F00A21B0FBF1F201FB120846
:10245000BAF1000F16D1701EA04213DDB8F1000FC3
:102460000ED10120AB4605EBDB71491001FB047175
:102470000090C8B22B4620220299FFF76CFF12E0B1
:102480004FF0010A0120AB4605EBDB71491001FB5F
:1024900004710090C8B208F13001CAB22B4602990B
:1024A000FFF759FF00BF601CC4B2B442C3DB05B0E4
:1024B000BDE8F08FF8B505460E46144618E07A2DB3
:1024C00003DD002506F11000C6B21A2E04DD00203F
:1024D00005460646FFF7E0FD012000902278102314
:1024E00031462846FFF737FF05F10800C5B2641CE6
:1024F00020780028E3D1F8BDF8B504460D4617460C
:102500001E468DF802708DF801508DF800608DF830
:10251000034069460020FEF759FDF8BDF8B50446B2
:102520000D4617461E468DF800408DF801508DF877
:1025300002708DF8036069460020FEF7A9FCF8BD23
:102540003EB5002401210807FEF798F90120FFF7A6
:10255000E8F90020FFF7F8F845F25001884235D03D
:102560000120FEF774F804E0601CC4B20A2000F0F9
:10257000A7FE4920FEF718F808B9FA2CF4DBFA2C6C
:1025800001DB01203EBD4FF48030FEF72DF9012024
:10259000FEF74AF9FEF71AFB7F200190FF20029018
:1025A000002000906846FEF7D8FB00231A463B2126
:1025B0001720FFF7B3FF07230C2204210F20FFF79A
:1025C0009BFF45F250010020FFF7B1F80020D9E74A
:1025D0003EB505460C460020FEF7BDFE0420FEF782
:1025E00095FE2046FEF7A7FE4FF48040FFF779F9ED
:1025F0004FF48010FEF7E4FA01218803FFF7FAF8A0
:102600000120FEF7A8FE4FF48010019000208DF805
:10261000080008208DF8090001208DF80A0001A8A3
:10262000FEF75DFA03208DF8000000208DF8010010
:102630008DF8020001208DF803006846FEF7D5F9F9
:102640003EBD1CB501A90020FEF78CFC69460020A8
:10265000FEF722FD9DF80400334908709DF805003F
:1026600048709DF8060088709DF8030088809DF8EA
:10267000010088719DF80200C8719DF80000087281
:102680001CBD08B54FF48060FFF7EAF8012846D179
:10269000FFF7D7FF10200090234802780223102173
:1026A0000020FFF7BDFE102000901F484278022353
:1026B00010210846FFF7B4FE102000901A488278D7
:1026C000022310212020FFF7ABFE102000901648B7
:1026D0008288022310213020FFF7A2FE10200090F4
:1026E00011488279022310214020FFF799FE102023
:1026F00000900D48C279022310215020FFF790FE70
:10270000102000900848027A022310216020FFF771
:1027100087FEFFF79DFC4FF48060FFF7B2F84FF49F
:102720008010FEF74DFA08BDE803002010B5002028
:1027300000F034FB10BD10B50446204600F094FABA
:1027400010BD10B54FF40041FB48FDF7BFFEFF2060
:10275000FFF7F1FF10BD10B5002400BFFF20FFF709
:10276000EAFFFF2801D1002010BD641C6FF07F40FC
:102770008442F3D30120F7E710B54FF40041EE484F
:10278000FDF7A6FEFFF7E7FF08B9002010BDFFF731
:10279000D8FF0120FAE72DE9F04105460C4617461F
:1027A0004FF00008FFF7CDFFFFF7E6FF10B1FF2065
:1027B000BDE8F08145F04000FFF7BDFF200EFFF7B8
:1027C000BAFFC4F30740FFF7B6FFC4F30720FFF7D3
:1027D000B2FFE0B2FFF7AFFF3846FFF7ACFF0C2DBA
:1027E00002D1FF20FFF7A7FF4FF01F0800BFFF2017
:1027F000FFF7A1FF064606F0800030B15FEA08004F
:10280000A8F1010101F0FF08F1D13046D0E7F8B599
:10281000142600BF952200210846FFF7BCFF04469E
:10282000012C04D03000A6F101018EB2F2D10020BB
:10283000C2490870012C4AD187224FF4D571082073
:10284000FFF7A9FF012847D1002506E0FF20FFF789
:1028500072FF0DF80500681C85B2042DF6DB9DF8AB
:102860000200012879D19DF80300AA2875D14FF6FE
:10287000FE7600BF012200213720FFF78CFF0122E6
:1028800091072920FFF787FF044624B13000A6F105
:1028900001018EB2EED1002E5FD0012200213A203C
:1028A000FFF779FF002858D1002506E0FF20FFF749
:1028B00042FF0DF80500681C85B2042DF6DB9DF87B
:1028C000000000F0400018B106209C49087044E068
:1028D00004209A49087040E0012200213720FFF7C8
:1028E0005AFF012200212920FFF755FF0446012C41
:1028F00017DC0220914908704FF6FE7600BF0122D6
:1029000000213720FFF747FF012200212920FFF790
:1029100042FF0446BCB13000A6F101018EB2EED1F7
:1029200011E00120854908704FF6FE7600BF0122B4
:1029300000211046FFF72FFF044624B13000A6F116
:1029400001018EB2F3D12EB1012251021020FFF706
:1029500022FF10B10020794908702046F8BD10B55B
:10296000382000F01BFA10BD1CB501210846FDF708
:1029700063FF4FF40040009001208DF80400002018
:102980008DF8060002208DF8050001208DF8070063
:1029900069466948FDF720FD00F07FF94FF40041DA
:1029A0006548FDF793FD1CBD70B5FFF7DDFFFFF730
:1029B000D6FF002504E0FF20FFF7BDFE681C85B2AE
:1029C0000A2DF8DBFFF723FF0446FFF7BAFEFFF7F7
:1029D000ADFE5A48007808B1002070BD0CB1204609
:1029E000FBE7AA20F9E770B505464FF6FF7401E052
:1029F000601E84B2FF20FFF79EFEA84201D0002C8B
:102A0000F6D10CB9FF2070BD0020FCE770B504467C
:102A10000D46FE20FFF7E7FF08B1012070BD04E07E
:102A2000FF2000F021F92070641C2800A5F10101AD
:102A30008DB2F5D1FF20FFF77EFEFF20FFF77BFE72
:102A40000020EBE72DE9F04106460F4615463B48CE
:102A50000078062800D07F02012D0CD101223946D2
:102A60001120FFF798FE0446FCB969023046FFF7D3
:102A7000CDFF044619E0012239461220FFF78BFEF4
:102A8000044600BF4FF400713046FFF7BFFF044615
:102A900006F50076681EC0B2050001D0002CF1D00A
:102AA000012200210C20FFF776FEFFF74AFE2046A8
:102AB000BDE8F08170B506460D46FFF74CFE08B143
:102AC000012070BD2846FFF736FEFD2D19D00024E9
:102AD00004E0305D00F0C8F8601C84B2B4F5007FFB
:102AE000F7DBFF20FFF727FEFF20FFF724FEFF2084
:102AF000FFF721FE044604F01F00052801D0022044
:102B0000DFE70020DDE72DE9F04106460F461546D8
:102B10000A480078062800D07F02012D10D101223A
:102B200039461820FFF737FE04468CBBFE2130469D
:102B3000FFF7C0FF04462BE00000024039000020F0
:102B400048480078012809D0012200213720FFF7EA
:102B500022FE012229461720FFF71DFE01223946D9
:102B60001920FFF718FE044694B900BFFC21304637
:102B7000FFF7A0FF044606F50076681EC0B2050008
:102B800001D0002CF2D0FD210020FFF793FF044676
:102B9000FFF7D7FD2046BDE8F08170B5054601225C
:102BA00000210920FFF7F7FD044624B9102128462B
:102BB000FFF72CFF0446FFF7C4FD0CB1012070BDE8
:102BC0000020FCE77FB56846FFF7E7FF10B1002063
:102BD00004B070BD9DF8000000F0C000402809D18D
:102BE0009DF809009DF8081000EB0120401C84B2FC
:102BF000A50220E09DF8050000F00F009DF80A10E6
:102C000000EBD1109DF8091001F0030100EB410029
:102C1000861C9DF8080080119DF8071000EB8100CC
:102C20009DF8061001F0030100EB8120441CA6F181
:102C3000090004FA00F52846CAE770B505460122E6
:102C400000210A20FFF7A7FD044624B910212846D9
:102C5000FFF7DCFE0446FFF774FD0CB1012070BDE8
:102C60000020FCE73900002010B5044600BF022117
:102C70005648FFF73FF80028F9D021465348FFF7A0
:102C800002F800BF01215148FFF734F80028F9D0BD
:102C90004E48FEF7F5FFC0B210BD00B587B0012168
:102CA0000220FDF7C9FD01210803FDF7D6FD08202C
:102CB000059002208DF8180000208DF81A000220DF
:102CC0008DF8190001208DF81B0005A94048FDF77B
:102CD00083FB1020059002208DF8180000208DF84D
:102CE0001A0002208DF8190001208DF81B0005A99B
:102CF0003748FDF771FB2020059002208DF8180061
:102D000000208DF81A0002208DF8190001208DF89E
:102D10001B0005A92E48FDF75FFB052203212C4867
:102D2000FDF7E3FB052204212948FDF7DEFB052220
:102D300011462748FDF7D9FB01210803FDF7C0FD27
:102D400000214FF48050FDF7BBFD0020ADF80000DE
:102D50004FF48270ADF802000020ADF804000220AC
:102D6000ADF806000120ADF808004002ADF80A00F9
:102D70003820ADF80C000020ADF80E000720ADF8AB
:102D8000100069461148FEF793FE01210F48FEF737
:102D90002DFFFF20FFF768FF07B000BD10B5044608
:102DA00000210A48FEF722FF084800884FF6C77145
:102DB00008400649088007480088204305490880E4
:102DC00001210248FEF712FF10BD00000030014053
:102DD000000402400038004000F1080141604FF05B
:102DE000FF31816000F10801C160016100210160D3
:102DF0007047002101617047426853684B60436827
:102E00008B605368996051604160086103685B1C86
:102E10000360704710B502460B685C1C0CB9106962
:102E200007E002F1080000E04068446824689C4222
:102E3000FAD944684C604C68A160886041600A61BE
:102E40001468641C146010BDD0E901329A60D0E9A6
:102E500001235A6001694A68824201D182684A604E
:102E6000002202610A68521E0A60704710B50024F1
:102E700007E004EB8401FE4A02EB8100FFF7ACFFA0
:102E8000641C042CF5D3FB48FFF7A6FFFA48FFF7B4
:102E9000A3FFFA48FFF7A0FFF948FFF79DFFF548A9
:102EA000F8490860F448F849086010BD2DE9F04180
:102EB00004460E4615469846069F1022314604F1F8
:102EC000340003F0EFFB002143200155042D00D313
:102ED0000325E5626564201DFFF78BFF04F11800F0
:102EE000FFF787FF2461C5F10400A0616462BDE8BB
:102EF000F08170B505460E46482000F0ADFC044652
:102F000094B11EB9A80000F0A7FC00E03046206391
:102F1000206B20B9204600F000FD002404E0A90049
:102F2000A522206B03F0ACFB204670BD2DE9FF4FBE
:102F300081B0804615469946DDE90E7A28461099FB
:102F4000FFF7D7FF0446002C56D0681E216B01EB1B
:102F5000800B2BF0070B00953A462046119B0299F7
:102F6000FFF7A4FF4A464146584600F001FD2060A5
:102F7000BAF1000F01D0CAF8004000F02AFDC348A2
:102F80000068401CC1490860C148006840B9C04899
:102F900004600846006801280CD1FFF767FF09E0CC
:102FA000BC48006830B9BA480068C06AB84201D865
:102FB000B7480460B849E06A0968884202D9B6494E
:102FC000E06A0860B5480068401CB4490860B4492C
:102FD000E06A0968884202D9B149E06A0860E16A9A
:102FE00001EB8101A24A02EB8100211DFFF704FFE2
:102FF000012600F0F7FC01E04FF0FF36012E09D169
:10300000A448006830B1A2480068C06AB84201D242
:1030100000F0D9FC304605B0BDE8F08F70B5A1488E
:103020000068002866D1A0480068401C9E490860DE
:103030000846006808BB9349086893490968914AA3
:1030400011609149086099490968491C974A1160C3
:103050008C490968096809B9012100E0002121B102
:103060004FF0FF31924A116006E086490968C9684D
:10307000CC688F4A6168116000BF8B4800688C493A
:103080000968884235D300BF7E480068006808B9E7
:10309000012000E0002020B14FF0FF30844908609B
:1030A00026E078480068C068C46865687E480068A3
:1030B000A84202D27E4805601AE0201DFFF7C4FE38
:1030C000A06A18B104F11800FFF7BEFE7449E06A67
:1030D0000968884202D97249E06A0860E16A01EB36
:1030E0008101634A02EB8100211DFFF785FECBE7DA
:1030F00000BF04E06F480068401C6E49086070BD66
:1031000070B5002500F065FC66480068401E654902
:1031100008600846006800284CD15C480068002818
:1031200048D0002621E05548C068C46804F1180062
:10313000FFF78AFE201DFFF787FE5949E06A0968FC
:10314000884202D95649E06A0860E16A01EB8101D0
:10315000474A02EB8100211DFFF74EFE4C49E06A11
:103160000968C96A884200D301264448006808B942
:10317000012000E000200028D5D04E48006860B152
:1031800006E0FFF74BFF4B480068401E49490860C6
:10319000484800680028F4D10126012E03D0464893
:1031A0000068012805D1012500204349086000F08E
:1031B0000AFC00BF00F016FC284670BD10B504469E
:1031C00033480068446038480068844207D2304879
:1031D0000168091D2C480068FFF71CFE0CE02C4814
:1031E0000168091D27480068FFF714FE3048006891
:1031F000844201D22E48046010BD2A480068401C59
:103200002849086070472DE9F04104460F464FF009
:103210000008FFF7F2FF2068C519234920680968F4
:10322000884209D92068A8420FD91F480068854202
:103230000BD94FF0010808E02068A84203D81A48CB
:103240000068854201D94FF001082560B8F1000FF0
:1032500007D00F480068001DFFF7F6FD2846FFF76E
:10326000ADFFFFF74DFF06460EB900F0ACFB25E0C1
:10327000F403002044040020580400206C040020C3
:10328000800400204000002044000020480000206E
:103290003C00002058000020500000206C0000205E
:1032A000540000205C0000204C000020680000203A
:1032B000700000206000002064000020BDE8F08164
:1032C00070B5044600267CB1FFF797FFF748006809
:1032D0000519F7480068001DFFF7B6FD2846FFF7FF
:1032E0006DFFFFF70DFF06460EB900F06CFB70BDD9
:1032F00070B5044600F06DFB14B9ED48006800E0BD
:1033000020460646F56A00F06DFB284670BD2DE9A3
:10331000F04106460D464FF00008042D00D303256A
:1033200000F057FBE2480068864200D1002616B93B
:10333000DF48006800E030460446676CAF4232D098
:10334000BD4203D92EB14FF0010802E00EB94FF093
:103350000108E16A606C884200D1E5626564C5F1EC
:103360000400A06107EB8701D24A02EB810160698A
:10337000884213D1201DFFF767FDCF49E06A096835
:10338000884202D9CC49E06A0860E16A01EB810118
:10339000C84A02EB8100211DFFF72EFDB8F1010F95
:1033A00001D100F010FB00F01DFBBDE8F081C34827
:1033B000006818B10120C249086025E004E0BE4859
:1033C0000068401EBC490860BB48006800EB8000F4
:1033D000B84951F820000028F1D0B749096801EB3D
:1033E0008101B44A02EB810041684968416000F103
:1033F000080142688A4202D14168496841604168D7
:10340000C968AB4A116000BF704770B5044600F050
:10341000E0FAA7480068844200D1002414B9A44807
:10342000006800E020460546281DFFF70DFDA86A4C
:1034300018B105F11800FFF707FD291DA148FFF796
:10344000DBFC00F0CFFA8CB99F48006810B100F0A7
:10345000BAFA0BE09B4800689C490968884203D18E
:1034600000209349086001E0FFF7A1FF70BD10B58F
:10347000014600200A46934C5369A34201D101231F
:1034800000E0002383B1924C936AA34201D101234F
:1034900000E00023012B07D0936A0BB9012300E061
:1034A0000023012B00D1012010BD70B505462C462C
:1034B00044B37F480068844224D000F08AFA204652
:1034C000FFF7D5FF01281BD1201DFFF7BDFC7A496E
:1034D000E06A0968884202D97749E06A0860E16ACF
:1034E00001EB8101734A02EB8100211DFFF784FC8F
:1034F0006F49E06A0968C96A884201D300F063FA3B
:1035000000F070FA70BD2DE9F041054600262C460A
:103510000027FCF731FE2046FFF7A9FF012826D13E
:1035200066480068F0B96249E06A0968C96A884279
:1035300001D3012000E000200646201DFFF784FC97
:103540005D49E06A0968884202D95B49E06A08601F
:10355000E16A01EB8101574A02EB8100211DFFF76F
:103560004BFC04E004F118015948FFF745FCFCF757
:103570000AFE3046BDE8F081704700BFFFF7FCFF50
:103580004C4800680128F9D900F01DFAF6E71FB58C
:103590000020009001900290034680224DA10390EC
:1035A0004E48FFF7C3FC0446012C09D1FCF7E4FDAB
:1035B00001204549086000203C49086000F0EDF911
:1035C0001FBD10B5FCF7D8FD00203F49086000F092
:1035D000F9F910BD10B500F0FCF93448046800F0AA
:1035E00001FA204610BD70B50025FCF7C5FD2F4837
:1035F0000468FCF7C8FD204670BD34480068704779
:1036000070B506460C462A48016818313046FFF767
:1036100001FC27480068001DFFF716FC601C30B94C
:1036200023480168091D2748FFF7E6FB05E01F480E
:10363000006805192846FFF7C1FD70BD70B5064644
:10364000F068C46804F11800FFF7FEFB1B4800682F
:10365000A0B9201DFFF7F8FB1749E06A0968884206
:1036600002D91549E06A0860E16A01EB8101114A5B
:1036700002EB8100211DFFF7BFFB04E004F11801FC
:103680001348FFF7B9FB0A49E06A0968C96A88422A
:1036900001D3012500E00025284670BD10490968C6
:1036A0000160024909684160704700004C00002039
:1036B0003C000020F4030020540000205C000020A7
:1036C00064000020800400205800002048000020F2
:1036D0006C04002049444C45000000007B35000884
:1036E0006800002070B504460D4600F072F92868A5
:1036F000401C08B900261FE051492068096888422B
:1037000006D0504960680968884201D8012613E054
:103710004C4960680968081A296888420BD22868F1
:10372000484A61681268511A401A28602046FFF71B
:10373000B5FF002600E0012600F054F9304670BDC8
:1037400001204149086070470146002002E0491C01
:10375000421C90B20A78A52AF9D0800870472DE95A
:10376000F041044614B93948006800E02046074695
:103770003D6B2846FFF7E8FF06463046BDE8F0817E
:1037800032490868704770B505462C462F49E06AF3
:103790000968C96A88422FD22C480068C06AC0F103
:1037A0000400A061E16A01EB8101294A02EB810179
:1037B0006069884201D1012000E00020C0B1201DD5
:1037C000FFF742FB21480068C06AE0622149E06AD5
:1037D0000968884202D91F49E06A0860E16A01EB82
:1037E00081011B4A02EB8100211DFFF705FB03E06D
:1037F00016480068C06AE06270BD70B505462C4688
:10380000EDB1616CE06A884219D0201DFFF71CFB06
:10381000606CE062E06AC0F10400A0610D49E06AFA
:103820000968884202D90B49E06A0860E16A01EB45
:103830008101074A02EB8100211DFFF7DDFA70BD0F
:10384000680000204C000020640000203C000020A4
:10385000F4030020540000202DE9F04104464FF00D
:103860000008FFF7CAFC3D48006898B93C493D4A4A
:103870001160002151604FF4C0513B4A516000215A
:10388000116037484FF4C05141601146016001207A
:103890003249086044B1103404F0070020B104F04C
:1038A0000700C0F108000444002C31D0B4F5C05F1B
:1038B0002ED22C4F3846056801E02F462D686868E7
:1038C000A04202D228680028F7D1274885421FD09D
:1038D000386800F11008286838606868001B2028E4
:1038E00010D92E196868001B70606C6071681D48E3
:1038F00000E00068026852688A42FAD302683260C7
:10390000066000BF194968680968081A1749086005
:10391000FFF7F6FB4046BDE8F08170B50646354638
:10392000B6B1103D2C46FFF768FC61680D4800E019
:103930000068026852688A42FAD302682260046012
:103940000A4960680968084408490860FFF7D8FB1D
:1039500070BD06480068704770470000880000206E
:1039600098040020740000207C00002084000020C7
:10397000001F4FF080730360001F0160001F0023D1
:103980000360143802602038704747F6FF404FF05C
:10399000E021486107200861704710B51E480068A3
:1039A00040F47F001C4908600846006840F07F40F2
:1039B0000860FFF7EAFF002018490860FCF7B4FB35
:1039C000002010BD70474FF0805013491C3908602B
:1039D000704710B5FCF7D0FB10480068401C0F4939
:1039E000086010BD10B50D480068401E0B49086006
:1039F0000846006808B9FCF7C6FB10BD10B54FF0CB
:103A0000805005491C3908600024FCF7B5FBFFF71E
:103A100005FBFCF7B8FB10BD20ED00E08C0000209A
:103A200070B5044600255CB9FEF7BEFF054635B10A
:103A3000FEF795FFFF20FEF77EFEFEF777FE01E022
:103A4000012500BF00BF0DB1012070BD0020FCE7C3
:103A50000146002070472DE9F04105460E46174605
:103A60001C464FF0000814B90420BDE8F08185B968
:103A7000224639463046FEF7E5FF8046B8F1000F92
:103A800006D0FEF76CFFFF20FEF755FEFEF74EFE58
:103A900002E04FF0010800BF00BFB8F1000F01D1F4
:103AA0000020E2E70120E0E72DE9F04105460E465F
:103AB00017461C464FF0000814B90420BDE8F081F9
:103AC00035B9224639463046FFF71DF8804602E0F8
:103AD0004FF0010800BF00BFB8F1000F01D1002076
:103AE000ECE70120EAE72DE9F04106460F461546CE
:103AF0004EBB37B1012F1ED0022F13D0032F1FD181
:103B000015E04FF400411948FCF7E2FCFEF723FEF4
:103B100008B9002400E001244FF400411348FCF7E9
:103B2000D5FC0FE04FF40070288000240AE0082044
:103B30002880002406E0FFF745F82860002401E013
:103B4000042400BF00E001242046BDE8F0810020ED
:103B5000704710B504462046FFF77EFE10BD10B535
:103B600004462046FFF7D9FE10BD000000000240C9
:103B700070B503460C4603E014F8015B03F8015BE3
:103B80001500A2F10102F7D170BD30B5034601E086
:103B900003F8011B1400A2F10102F9D130BDF0B508
:103BA00003461C460D46002000BF1600A2F101028C
:103BB00007D014F8017B15F801CBA7EB0C063000F9
:103BC000F3D0F0BD024600E0521C107810B110781E
:103BD0008842F9D1107870472DE9F04104460D462E
:103BE000266BAE422FD0207908B36078012332468D
:103BF00004F13401FFF758FF10B10120BDE8F08156
:103C000000202071D4E908100844B0420FD9E778A9
:103C10000AE0206A064460780123324604F1340148
:103C2000FFF742FF781EC7B2012FF2DC00BF55B18B
:103C3000607801232A4604F13401FFF70CFF08B134
:103C40000120DBE725630020D8E770B5044600219A
:103C50002046FFF7C1FF0546002D59D120780328E3
:103C60004FD1607900284CD0002020634FF40072BF
:103C7000002104F13400FFF788FF552184F8321247
:103C8000AA2184F83312522084F8340052213520BE
:103C900001556121362001554121372001557221FE
:103CA00084F8181284F81912412184F81A1261213B
:103CB00084F81B12217C84F81C12208A010A84F8E3
:103CC0001D122069010C84F81E122069010E84F86F
:103CD0001F12217B84F82012A089010A84F8211286
:103CE000E068010C84F82212E068010E84F82312C7
:103CF0006078012304F134016269FFF7D5FE0020EA
:103D00006071607800221146FFF7EDFE00B10125D9
:103D1000284670BD0246891ED069801E884201D89F
:103D2000002070479378D06A01FB0300F9E72DE982
:103D3000F04105460C46022C02D3E869A04202D8A5
:103D40000120BDE8F0812878012804D002282CD079
:103D500003285AD13DE0274607EB5707686A00EB76
:103D600057212846FFF738FF00B14EE0C7F308019E
:103D700005F1340010F801807F1C686A00EB5721C0
:103D80002846FFF729FF00B13FE0C7F3080105F11E
:103D90003400405C48EA002804F0010010B14FEA0A
:103DA0001810CEE7C8F30B00CBE7686A00EB1421CC
:103DB0002846FFF711FF00B127E040F2FF1000EAAC
:103DC000440105F134000E183078717840EA012082
:103DD000B7E7686A00EBD4112846FFF7FDFE00B193
:103DE00013E040F2FF1000EA840105F134000E18E0
:103DF000F0780006B17840EA0140717840EA01208D
:103E00003178084320F070409BE700BF4FF0FF304F
:103E100097E72DE9F04705460E461746022E02D3D6
:103E2000E869B04202D84FF002088AE028780128F9
:103E300004D0022841D003287DD154E0B14609EBDB
:103E40005909686A00EB59212846FFF7C5FE8046EC
:103E5000B8F1000F00D071E0C9F3080105F134009A
:103E60000C1806F0010020B1F9B2207861F31F10A0
:103E700000E03846207009F1010901202871686AC4
:103E800000EB59212846FFF7A7FE8046B8F1000F46
:103E900000D053E0C9F3080105F134000C1806F016
:103EA000010010B1C7F3071005E0207800F0F00022
:103EB000C7F303210843207040E0686A00EB162135
:103EC0002846FFF789FE8046B8F1000F00D035E0A4
:103ED00040F2FF1000EA460105F134000C1827708B
:103EE000380A60702AE0686A00EBD6112846FFF7AE
:103EF00073FE8046B8F1000F00D01FE040F2FF10C3
:103F000000EA860105F134000C18E0780006A1787B
:103F100040EA0140617840EA01202178084300F03E
:103F2000704007432770380A6070380CA070380E54
:103F3000E07003E0FFE74FF0020800BF00BF012080
:103F400028714046BDE8F0872DE9F04104460E4651
:103F5000022E02D3E069B04201D8022725E00027F3
:103F60001FE031462046FFF7E2FE054605B91BE09B
:103F7000012D01D1022717E0681C08B9012713E0C1
:103F8000002231462046FFF744FF074607B10BE009
:103F90002069401C20B12069401C20610120607113
:103FA0002E46E069B042DCD800BF3846BDE8F0815B
:103FB0002DE9F04704468946B9F1000F06D1E768BC
:103FC00017B1E069B84211D801270FE049462046F1
:103FD000FFF7ADFE0646022E02D20120BDE8F087B3
:103FE000E069B04201D93046F8E74F463D4600BF90
:103FF0006D1CE069A84204D80225BD4201D9002009
:10400000ECE729462046FFF792FE064606B909E08E
:10401000701C08B1012E01D13046DFE7BD42E7D167
:104020000020DBE700BF6FF0704229462046FFF713
:10403000F0FE8046B8F1000F08D1B9F1000F05D0AD
:104040002A4649462046FFF7E4FE8046B8F1000FB5
:1040500009D1E5602069401C68B12069401E2061DB
:104060000120607107E0B8F1010F02D14FF0FF307D
:1040700000E0012005462846B0E770B503460D462E
:10408000586A021D680A1E68B678B0FBF6F400BFD5
:1040900002CA09B9002070BD8C4200D202E0641A45
:1040A000121DF5E700BF10682044F4E72DE9F04148
:1040B00004460E46E680A568012D03D02068C0693D
:1040C000A84202D80220BDE8F0812DB9206800780E
:1040D000032801D12068856A65B9E56020680089F8
:1040E000B04201DC0220EEE72068806A00EB161087
:1040F000206120E020688078070112E029462068CE
:10410000FFF715FE0546681C08B90120DBE7022D04
:1041100003D32068C069A84201D80220D3E7F01B6E
:1041200086B2BE42EADAE56029462068FFF7F2FD72
:1041300000EB161020612068343006F00F0100EB10
:10414000411060610020BEE72DE9F0410446884639
:1041500000BFE088401C86B20EB1206910B904206F
:10416000BDE8F08106F00F0000286FD12069401CE7
:104170002061E06828B920680089B04266DC04202C
:10418000EEE720688078401E00EA161000285DD116
:10419000E1682068FFF7CBFD0546012D01D802201C
:1041A000DEE7681C08B90120DAE72068C069A84288
:1041B00046D8B8F1000F01D10420D1E7E1682068AA
:1041C000FFF7F6FE05460DB90720C9E7012D01D11D
:1041D0000220C5E7681C08B90120C1E7002120685A
:1041E000FFF7FAFC08B10120BAE7216801F13400B9
:1041F0004FF400720021FFF7C8FC29462068FFF742
:1042000089FD21680863002710E0012021680871FA
:1042100000212068FFF7E0FC08B10120A0E720683A
:10422000006B401C21680863781CC7B22068807846
:10423000B842EADC2068006BC01B2168086300BF3D
:10424000E56029462068FFF765FD2061E68020686B
:10425000343006F00F0100EB4110606100207FE771
:104260002DE9F041044600212046FFF71FFF0546D7
:1042700015B12846BDE8F08100BF21692068FFF72D
:10428000ABFC054605B116E0666937780FB9042521
:1042900011E0F07A00F0080030B90B223046A16935
:1042A000FFF77DFC00B906E000212046FFF74CFF38
:1042B0000546002DE1D000BF2846DBE72DE9F0419F
:1042C000044604251AE021692068FFF785FC0546AD
:1042D00005B116E067693E780EB9042511E0E52EB8
:1042E00005D000BFF87A00F0080000B909E000210D
:1042F0002046FFF729FF054605B102E020690028A6
:10430000E1D100BF0DB1002020612846BDE8F08159
:104310002DE9F041044600212046FFF7C7FE05467F
:10432000ADB900BF21692068FFF756FC054605B10D
:104330000CE060690678E52E00D006B906E00121A0
:104340002046FFF701FF0546002DEBD000BF9DB9C9
:1043500021692068FFF740FC05466DB96769202296
:1043600000213846FFF711FC0B223846A169FFF700
:10437000FFFB0120216808712846BDE8F08170B577
:104380000446E1882046FFF791FE05465DB92169A4
:104390002068FFF721FC05462DB9E520616908700A
:1043A000012021680871284670BD2DE9F35F8A4617
:1043B000DAF8007000E07F1C38782F28FBD03878BE
:1043C0005C28F8D0009886690B2220213046FFF740
:1043D000DCFB0025A946A8464FF0080B17F808009B
:1043E0002E2825D100BF404608F101083C5C2E2C48
:1043F00002D1B8F1030F00D304E0484609F10109E6
:104400003454F0E700BF2F2C06D05C2C04D0202CB5
:1044100002DD0620BDE8FC9F07EB0800CAF800009B
:10442000202C01DC242000E02020F0720020F1E7A5
:1044300000BF404608F101083C5C202C03DD2F2C16
:1044400001D05C2C00D133E02E2C01D0D9450DD306
:10445000BBF1080F01D12E2C01D00620DAE74FF076
:1044600008094FF00B0BA806050EE2E7802C03DBD2
:1044700045F003050620CDE72146F7A0FFF7A2FB94
:1044800008B10620C6E7412C04DB5A2C02DC45F0BB
:10449000020508E0612C06DB7A2C04DC45F00105FE
:1044A000A4F12000C4B2484609F101093454C0E720
:1044B00000BF07EB0800CAF80000202C01DC042034
:1044C00000E000200446B9F1000F01D10620A1E769
:1044D0003078E52801D105203070BBF1080F01D1FB
:1044E000A806050E05F00300012801D144F01004D0
:1044F00005F00C00042801D144F00804F4720020F7
:1045000088E7F0B505460B4603F109022F69002F35
:1045100040D06869067B00210AE0445C202C00D171
:1045200008E0052C00D1E52400BF02F8014B491C2E
:104530000829F2D300BF077A202F0FD02E2702F8C8
:10454000017B082107E0445C202C00D105E000BF7E
:1045500002F8014B491C0B29F5D300BFC77A1F7223
:10456000C77F4FEA076C877F4CEA074C477F4CEACE
:10457000072790F81CC047EA0C071F6090F818C086
:10458000477E4CEA07279F8090F816C0C77D4CEA0B
:104590000727DF8000271770F0BD2DE9F34104469F
:1045A000019800782F2803D0019800785C2805D165
:1045B0000198401C01900020A06002E02068806902
:1045C000A06001980078202807D200212046FFF73C
:1045D0006DFD07460020606139E000BF01A920465B
:1045E000FFF7E3FE074607B130E02046FFF738FE4D
:1045F0000746A069C67A97B1042F00D026E006F0DE
:10460000200038B10020A0606061002706F004009F
:1046100020B9E3E706F0040000B9052716E006F02C
:10462000040000B112E06569E87A00F0100008B9F2
:1046300005270BE0A97EE87E41EA00212A7D687DFE
:1046400042EA002041EA0040A060C7E700BF3846C8
:10465000BDE8FC8170B504460D46607801232A460A
:1046600004F13401FFF7F7F908B1032070BD94F8A5
:10467000321294F8330241EA00204AF6552188426A
:1046800001D00220F2E794F86D00010694F86C0066
:1046900041EA004194F86B0041EA002094F86A1066
:1046A000084320F07F407049884201D10020DDE7B7
:1046B00094F88900010694F8880041EA004194F8D2
:1046C000870041EA002094F88610084320F07F40DC
:1046D0006549884201D10020C8E70120C6E72DE9DD
:1046E000F74F88B00898006801900198007830383A
:1046F0000790079809280AD8019840783A2806D1E7
:104700000198801C019008990198086002E05748C0
:1047100000780790079818B10B200BB0BDE8F08F18
:104720005349079851F82040099804600CB90C20AF
:10473000F3E7207878B16078FFF78AF9804608F0CF
:10474000010040B90A9820B108F0040008B10A201D
:10475000E3E70020E1E700202070079860706078B0
:10476000FFF75EF9804608F0010008B10320D4E7A6
:104770000A9820B108F0040008B10A20CDE74FF0F4
:10478000000B59462046FFF765FF054600BF012D87
:1047900021D14FF0000ABAF1000F03D0AAF10100B5
:1047A00000F0FF0A4FF4DF7000EB0A1104F134004F
:1047B0000F18387978B1F87A0106B87A41EA0041E1
:1047C000787A41EA0020397A40EA010B59462046BE
:1047D000FFF740FF0546032D01D101209DE70DB1F4
:1047E0000D209AE73F20015D94F8400041EA002047
:1047F000B0F5007F01D00D208FE74A20015D94F8CD
:104800004B0041EA0029B9F1000F0ED194F85B008A
:10481000010694F85A0041EA004194F8590041EA2F
:10482000002094F8581040EA0109C4F82090442070
:10483000065DE670012E03D0022E01D00D206CE73C
:1048400009FB06F94120005D0646A07016B1701EF6
:10485000304078B10D2060E7222A2B2C3A3B3C3DBA
:104860003E3F5B5D7C7F0000464154009600002087
:10487000900000204520015D94F8460041EA0020A8
:104880002081207A00F00F0008B10D2045E7472075
:10489000015D94F8480041EA00200690069870B93E
:1048A00094F85700010694F8560041EA004194F844
:1048B000550041EA002094F8541008430690422025
:1048C000015D94F8430041EA00200290029808B983
:1048D0000D2022E702984844218900EB1110059031
:1048E000DDE90501814201D20D2016E7DDE9051061
:1048F000401AA178B0FBF1F00490049808B90D209B
:104900000BE7012540F6F6710498884200D3022592
:104910004FF6F6710498884200D303250498801C52
:10492000E06105985844E062029858446062032DA3
:1049300016D1208908B10D20EFE694F86300010636
:1049400094F8620041EA004194F8610041EA0020D5
:1049500094F860100843A062E0698000039014E0BE
:10496000208908B90D20D8E6606A4844A062022D6B
:1049700002D1E069400007E0207F00F00100E1691A
:1049800001EB410100EB51000390216A039800F212
:10499000FF10B1EB502F01D20D20BEE64FF0FF30DB
:1049A00020610020E060032D5CD1607194F86410F8
:1049B00094F8650041EA0020584460616078012362
:1049C00004F134016269FFF746F8E8BB94F832124B
:1049D00094F8330241EA00204AF65521884241D139
:1049E0003720005D01063620005D41EA0041352098
:1049F000005D41EA002094F834100843FE498842E3
:104A000030D194F81B02010694F81A0241EA0041E1
:104A100094F8190241EA002094F818120843F74963
:104A200088421FD194F82302010694F8220241EA39
:104A3000004194F8210241EA002094F82012084332
:104A4000E06094F81F0200E00CE0010694F81E02FA
:104A500041EA004194F81D0241EA002094F81C123A
:104A6000084320612570E6480088401C80B2E44974
:104A70000880E080002020632071A06100BF4CE628
:104A800070B504460D4624B1207810B1E088A842E4
:104A900001D0092070BD6078FEF7DAFF00F0010058
:104AA00008B10320F6E70020F4E70246012A01DB03
:104AB0000B207047D34850F822300BB100201870FB
:104AC00009B100200870CF4840F822100020F0E71C
:104AD0002DE9F7438AB0054616460020286006F007
:104AE0001F0626F0010203A90BA8FFF7F8FD0746F1
:104AF000CDF824D027B903A80B99FFF74EFD074640
:104B0000089C0FB904B9062706F01C00002858D0ED
:104B10004FB1042F03D103A8FFF7FAFB074646F075
:104B20000806089C09E0E07A00F0110008B10727A8
:104B300003E006F0040000B10827002F40D106F082
:104B4000080000283CD0FFF702F8804684F80E8069
:104B50004FEA1821E1734FEA184121744FEA1861B6
:104B600061740020E072207700216177A177E177FE
:104B7000A17EE07E41EA0021227D607D42EA0020A4
:104B800041EA00490020A0760021E1762075617598
:104B9000012003990871B9F1000F11D00398D0F8E2
:104BA000308049460398FFF7CFF9074647B9A9F186
:104BB00001000399C86041460398FFF70DF80746C6
:104BC0000EE06FB9E07A00F0100008B1042707E0AA
:104BD00006F0020020B1E07A00F0010000B10727E2
:104BE00047B906F0080008B146F020060398006BAC
:104BF000E8612C62FFB9AE71A17EE07E41EA00213E
:104C0000227D607D42EA002041EA00402861E07F89
:104C10000106A07F41EA0041607F41EA0020217F38
:104C20000843E8600020A860A861686203982860D3
:104C30000398C088A88038460DB0BDE8F0832DE900
:104C4000FF4F83B0044615469A46DDF810B00020A9
:104C5000CAF80000A1882068FFF712FF02900298AE
:104C600018B1029807B0BDE8F08FA07900F080007D
:104C700008B10220F6E7A07900F0010008B907208A
:104C8000F0E7D4E90210401A00900098854200D95C
:104C9000009DC6E02089C0F30800002870D120687C
:104CA0008078401EA16800EA512000F0FF09B9F1A8
:104CB000000F25D1A06810B9206901900CE0606A4E
:104CC00028B12046A168FFF7D8F9019004E0616996
:104CD0002068FFF72CF801900198022805D2A079EE
:104CE00040F08000A0710220BCE70198401C28B968
:104CF000A07940F08000A0710120B3E701986061C5
:104D000061692068FFF706F806462EB9A07940F0E1
:104D10008000A0710220A5E74E444FEA5528B8F163
:104D2000000F2ED009EB080021688978884203D94A
:104D300020688078A0EB090808F0FF032168487814
:104D400032465946FEF787FE28B1A07940F0800030
:104D5000A071012086E7A07900F0400068B1A06949
:104D6000801B404509D2A169891B0BEB41204FF400
:104D7000007204F12801FEF7FBFE4FEA482746E0E7
:104D800029E0A069B04225D0A07900F0400090B1A0
:104D900021684878012304F12801A269FEF784FE06
:104DA00028B1A07940F08000A07101205AE7A079D5
:104DB00020F04000A071216848780123324604F1B8
:104DC0002801FEF748FE28B1A07940F08000A071CC
:104DD000012047E7A6612089C0F30800C0F50077ED
:104DE000AF4200D92F462089C0F3080204F1280001
:104DF00011183A46584607E05252614172724161B9
:104E00009400002090000020FEF7B2FE00BFBB44DB
:104E1000A0683844A060DAF800003844CAF80000FE
:104E2000ED1B002D7FF436AF00201BE72DE9FF4F6F
:104E300083B0044615469B46049801900020CBF8A9
:104E40000000A1882068FFF71BFE0290029818B1AD
:104E5000029807B0BDE8F08FA07900F0800008B19B
:104E60000220F6E7A07900F0020008B90720F0E779
:104E7000E0682844E168884200D20025D6E0208915
:104E8000C0F3080000287DD120688078401EA1680A
:104E900000EA512000F0FF0ABAF1000F32D1A068F9
:104EA00058B9D4F81080B8F1000F13D10021206850
:104EB000FFF77EF8804620610CE0606A28B120464A
:104EC000A168FFF7DAF8804604E061692068FFF71F
:104ED0006FF88046B8F1000F00D1AAE0B8F1010FD9
:104EE00005D1A07940F08000A0710220B1E708F15F
:104EF000010028B9A07940F08000A0710120A8E746
:104F0000C4F81480A07900F0400090B1216848787E
:104F1000012304F12801A269FEF7C6FD28B1A0799A
:104F200040F08000A071012093E7A07920F04000BC
:104F3000A07161692068FEF7EDFE06462EB9A079E2
:104F400040F08000A071022083E756444FEA5529C3
:104F5000B9F1000F30D00AEB090021688978884246
:104F600003D920688078A0EB0A0909F0FF032168C3
:104F7000487832460199FEF797FD38B1A07940F0A4
:104F8000800000E02FE0A071012062E7A069801B93
:104F900048450ED2A069801B019A02EB40214FF4D4
:104FA000007204F12800FEF7E3FDA07920F0400034
:104FB000A0714FEA49272DE0A069B04212D0D4E990
:104FC000020188420ED2216848780123324604F15A
:104FD0002801FEF740FD28B1A07940F08000A071C3
:104FE000012036E7A6612089C0F30800C0F50077EC
:104FF000AF4200D92F462189C1F3080204F12801EC
:1050000050183A460199FEF7B3FDA07940F04000F0
:10501000A07100BF019838440190A0683844A06096
:10502000DBF800003844CBF80000ED1B002D7FF4C6
:1050300026AF00BFD4E90201884201D9A068E06030
:10504000A07940F02000A071002002E72DE9F04196
:105050000446A1882068FFF713FD0746002F4FD1B3
:10506000A07900F0200000284AD0A07900F040008C
:1050700078B121684878012304F12801A269FEF77C
:1050800013FD10B10120BDE8F081A07920F04000AF
:10509000A071E1692068FEF79FFD0746002F2FD120
:1050A000256AE87A40F02000E872207B2877A08902
:1050B000010A6977E068010CA977E068010EE977D9
:1050C000207CA876208A010AE9762069000C2875E0
:1050D0002069010E6975FEF73AFD0646AE75310A84
:1050E000E975310C2976310E6976A07920F020001F
:1050F000A0710120216808712068FEF7A6FD07460F
:105100003846C0E770B504462046FFF79FFF0546C6
:105110000DB900202060284670BD0146012901DB41
:105120000B207047FE4801700020FAE711B58BB0E4
:10513000002204A90BA8FFF7D2FA04462CBB01A851
:105140000A9004A80B99FFF728FA0446D4B90998E5
:1051500018B904990698886114E00998C07A00F09B
:10516000100070B10998817EC07E41EA0021099843
:10517000027D407D42EA002041EA004004998861B6
:1051800000E00524042C00D1052420460CB010BDFD
:105190002DE9FE4F04460D46A1882068FFF770FCFC
:1051A0000290029810B10298BDE8FE8FA07900F03D
:1051B000800008B10220F7E7606A00287DD0681CF3
:1051C000002841D1D4F8248058F804AB4FF00209EC
:1051D00026696EB300BF00964FF0000B09F102097B
:1051E00000BF01960BF1010B31462068FEF79FFDD1
:1051F0000646012E05D8A07940F08000A07102205B
:10520000D2E7701C28B9A07940F08000A07101207D
:10521000CAE70198401C8642E3D0D14504D848F83B
:1052200004BB009848F8040B2068C069B042D2D88B
:10523000606AC0F80090D14503D80020C8F800008B
:1052400050E0112002904DE0E068A84200D2E568ED
:10525000A560002D46D0691E2046FEF70EFF606156
:1052600061692068FEF756FD07462FB9A07940F026
:105270008000A071022097E720688078401E691E98
:1052800000EA512007442089C0F3080050B3A06908
:10529000B84227D0A07900F0400098B12168487842
:1052A000012304F12801A269FEF7FEFB30B1A079C9
:1052B00040F08000A071012076E714E0A07920F092
:1052C0004000A0712168487801233A4604F1280182
:1052D000FEF7C1FB28B1A07940F08000A071012049
:1052E00062E7A761C1E0E068A84204D2A07900F0BB
:1052F000020000B9E568D4F808904FF00008C4F83F
:105300000880002D77D0206880784702B9F1000F1F
:1053100011D0681EB0FBF7F1A9F10100B0FBF7F066
:10532000814208D3A9F10100791E8843A060A068DA
:105330002D1A666918E02669AEB900212068FEF7CB
:1053400037FE0646012E05D1A07940F08000A071FD
:10535000022029E7701C28B9A07940F08000A071D4
:10536000012021E726616661EEB329E0A07900F013
:10537000020038B131462068FEF71AFE064636B9FB
:105380003D461FE031462068FEF7D1FC0646701C02
:1053900028B9A07940F08000A071012004E7012E17
:1053A00003D92068C069B04205D8A07940F08000D8
:1053B000A0710220F8E66661A0683844A060ED1B89
:1053C000BD42D3D800BFA0682844A060C5F3080040
:1053D00048B131462068FEF79DFC8046B8F1000FC9
:1053E00007D1A07900E006E040F08000A071022023
:1053F000DAE608EB55282089C0F3080050B3A0690D
:10540000404527D0A07900F0400090B1216848784D
:10541000012304F12801A269FEF746FB28B1A07917
:1054200040F08000A0710120BEE6A07920F040008D
:10543000A071216848780123424604F12801FEF753
:105440000AFB28B1A07940F08000A0710120ABE6F2
:10545000C4F81880D4E90201884205D9A068E06048
:10546000A07940F02000A07100BF02989CE633B5FF
:1054700083B004460022214604A8FFF730F9054610
:105480004DBBC4F818D020460499FFF786F80546AE
:10549000F5B9606998B16069C07A00F0100068B130
:1054A0006069817EC07E41EA00216069027D407DA5
:1054B00042EA002041EA0040A06000E005253DB935
:1054C0002068C088A08000212046FEF7EFFD054639
:1054D000042D00D10525284605B030BDFEB5044693
:1054E0000E46A1882068FFF7CBFA05461DBB2EB9F2
:1054F00000212046FEF7DAFD05461CE0C4F818D06E
:105500002046FEF7DBFE0546042D02D10020206177
:10551000002585B931462046FEF7F3FF002101E062
:10552000960000202046FEF70FFE0546042D02D10E
:105530000020206100252846FEBD33B58BB00D4606
:10554000002204A90BA8FFF7CAF804467CB901A8F9
:105550000A9004A80B99FFF720F804463CB9099873
:1055600020B1294604A8FEF7CCFF00E0062420461F
:105570000DB030BD2DE9F74F82B08B4614460022A6
:10558000214602A8FFF7ABF801900198002877D1D7
:1055900020680169C069801E814204D820680069C2
:1055A000CBF800006CE0206890F800A00026BAF16B
:1055B000010F1DD1022700BF39462068FEF7B7FB57
:1055C000804608F1010010B9012001900FE0B8F108
:1055D000010F02D10220019009E0B8F1000F00D1C3
:1055E000761C781C07462168C9698842E4D33DE0EF
:1055F0002068C7692068406A00904FF000090025C4
:1056000000BFB9F1000F0FD1009A531C114600934F
:105610002068FEF7E1FA0190019800B125E02068CA
:1056200000F134054FF40079BAF1020F09D128785E
:10563000697840EA012000B9761CAD1CA9F1020985
:1056400010E0E8780006A97840EA0140697840EA6D
:1056500001202978084320F0704000B9761C2D1DE8
:10566000A9F10409781E0700CBD100BF20680661AC
:10567000BAF1030F02D1012021684871CBF8006014
:10568000019805B0BDE8F08F70B50446A188206888
:10569000FFF7F6F9054655B9A07900F0800008B18A
:1056A000022504E0A07900F0020000B90725002DD2
:1056B00036D1D4E9021088422DD9A068E060A079E3
:1056C00040F02000A071A06838B921692068FEF779
:1056D0003BFC0546002020611DE061692068FEF763
:1056E00026FB06460025701C00B90125012E00D1BD
:1056F000022585B92068C069B0420CD96FF07042AC
:1057000061692068FEF785FB054625B931462068AA
:10571000FEF71AFC05461DB1A07940F08000A0718B
:10572000284670BD71B591B001220AA911A8FEF7F3
:10573000D6FF0446002C55D1CDF840D00AA81199C7
:10574000FEF72BFF04462CB91098C07A00F0200019
:1057500000B10624002C45D10F9D0DB9062404E0AC
:10576000E87A00F0010000B10724A97EE87E41EA52
:1057700000212A7D687D42EA002041EA004604BB00
:10578000E87A00F01000E0B1022E01D2022418E005
:105790001C220AA903A8FEF7EBF90596022103A82B
:1057A000FEF784FC044664B903A8FEF787FD0446AF
:1057B0001CB103988069B04200D10724042C00D1A9
:1057C00000247CB90AA8FEF7DAFD044654B926B1D4
:1057D00031460A98FEF7B8FB04461CB90A98FEF752
:1057E00034FA0446204612B070BD2DE9F1478BB063
:1057F000FEF7ADF90746012204A90BA8FEF76FFFDB
:105800000646002E73D101A80A9004A80B99FEF752
:10581000C4FE064606B90826042E05D10A98C07AA9
:1058200000F0200000B10626042EEBD100210498E0
:10583000FEF7BEFB0546002605B90726012D00D15F
:105840000226681C00B9012626B900210498FEF73B
:10585000C3F90646002E68D129460498FEF75AFA85
:105860008246049800F134044FF40072002120466F
:10587000FEF78BF90B2220212046FEF786F92E2019
:1058800020701020E072A775390AE175390C217675
:10589000390E6176A576290AE176280C2075290E45
:1058A00061752022214604F12000FEF761F92E20C7
:1058B00084F82100DDF8188004980078032804D1CA
:1058C0000498806A404500D1B04684F83A804FEA97
:1058D000182184F83B10C8F30741342001554FEAE2
:1058E000186184F83510049890F8029019E03FE0B0
:1058F0000498C0F830A00AF1010A01200499087147
:1059000000210498FEF768F9064606B10CE04FF452
:10591000007200212046FEF738F9A9F1010000F0DD
:10592000FF09B9F1000FE3D100BF1EB904A8FEF7CB
:10593000EFFC064626B129460498FEF705FB17E062
:10594000099C1020E072A775390AE175390C21769F
:10595000390E6176A576290AE176280C2075290E84
:1059600061750120049908710498FEF76EF90646E6
:1059700030460CB0BDE8F087F7B58AB00F46144644
:10598000012203A90AA8FEF7AAFE05460DBBCDF821
:1059900024D003A80A99FEF700FE05462DB9099800
:1059A000C07A00F0200000B1062595B9089E0EB916
:1059B00006250EE004F0270407EA0400F17AA1436B
:1059C0000843F0720120039908710398FEF73DF92E
:1059D000054628460DB0F0BD73B58AB00D460122CC
:1059E00003A90AA8FEF77BFE06461EBBCDF824D00D
:1059F00003A80A99FEF7D1FD06462EB90998C07A88
:105A000000F0200000B10626A6B9089C0CB90626B5
:105A100010E0A879A075E8880112E1752879207650
:105A2000A888011261760120039908710398FEF796
:105A30000CF9064630460CB070BDF3B597B00F4672
:105A4000012210A917A8FEF74AFE0546002D14D121
:105A500010980990CDF858D010A81799FEF79DFD21
:105A600005462DB91698C07A00F0200000B1062531
:105A7000002D76D1159808B9042572E0159800F12B
:105A80000B01152203A8FEF773F81C2210A909A820
:105A9000FEF76EF8394609A8FEF77FFD054605B901
:105AA0000825042D5DD109A8FEF732FC0546002D1E
:105AB00057D10E9C13220DF10E0104F10D00FEF7DB
:105AC00057F89DF80C0040F02000E072012010997A
:105AD00008710B991298884239D0E07A00F01000D2
