:020000040800F2
:10000000D020002095010008950200089702000802
:10001000A7020008AB020008AF02000800000000C1
:1000200000000000000000000000000009010008BE
:10003000B5020008000000003D010008114300085F
:10004000AF010008AF010008AF0100088B330008C2
:10005000AF010008AF010008AF010008AF010008C0
:10006000AF010008AF010008AF010008AF010008B0
:10007000AF010008AF010008AF010008AF010008A0
:10008000AF010008AF010008AF010008AF01000890
:10009000AF010008AF010008AF010008AF01000880
:1000A000AF010008AF010008AF010008AF01000870
:1000B000AF010008AF01000855360008AF01000885
:1000C000AF010008AF010008AF010008AF01000850
:1000D000AF0100087D360008AF010008AF0100083D
:1000E000AF010008AF010008AF010008AF01000830
:1000F000AF010008DFF80CD004F03CFB00480047DB
:100100001B020008D02000201A4B19680868B0E8CC
:10011000F00F80F309884FF0000080F311884EF053
:100120000D0E70470000000003480068006880F36F
:10013000088862B600DF00BF08ED00E0EFF3098039
:100140000C4B1A6820E9F00F106008B54FF0BF00A3
:1001500080F3118803F0B5FD4FF0000080F31188A3
:10016000BDE8084019680868B0E8F00F80F3098816
:10017000704700BF3C00002001B44FF0BF0080F387
:10018000118801BC704701B44FF0000080F3118862
:1001900001BC70470648804706480047FEE7FEE777
:1001A000FEE7FEE7FEE7FEE7FEE7FEE7FEE7FEE727
:1001B000652B0008F50000081CB500BF03F094FE95
:1001C000019002F01EFE27E02B48008800F400405A
:1001D000A0B110200123002211460090104602F029
:1001E000A3FF0020244908800120009023480278C2
:1001F00010231946002002F032FF07E010200123EF
:100200001A4600210090084602F08EFF02F0A4FD7D
:10021000C82101A803F081FCD6E71FB54FF4E130F7
:1002200003F065F9482016490870492048704A20B3
:1002300088704B20C8704C20087158208871592054
:10024000C871082003F0F9F9082003F0F6F9082036
:1002500003F0F3F900200123CDE9003002900346BA
:10026000802208A10390AFF2AF0003F0E9FA03F097
:1002700018FE00BFFEE700003A00002068030020DF
:10028000A0020020427574746F6E2048616E646C29
:100290006500000070470948006800F0010000B1E7
:1002A00000BE00BFFEE700BFFEE700BFFEE700BFE5
:1002B000FEE770477047704770470000F0ED00E0C0
:1002C00010B504468548844208D10121084600F053
:1002D000BCFA0021012000F0B8FA52E080488442C4
:1002E00008D10121022000F0B0FA0021022000F024
:1002F000ACFA46E07B48844208D10121042000F09A
:10030000A4FA0021042000F0A0FA3AE076488442E2
:1003100008D10121082000F098FA0021082000F0FF
:1003200094FA2EE07148844208D10121102000F097
:100330008CFA0021102000F088FA22E06C488442F8
:1003400008D10121402000F080FA0021402000F077
:100350007CFA16E06748844208D10121802000F031
:1003600074FA0021802000F070FA0AE062488442AA
:1003700007D10121202000F068FA0021202000F0A0
:1003800064FA10BDF0B50A4600210023002400BF26
:100390003DE0012505FA01F3156805EA03049C42D6
:1003A00034D105684F000326BE40B543056015797A
:1003B0004E00B5400668354305601579012D02D021
:1003C0001579022D16D185684F000326BE40B5432E
:1003D000856055794E00B5408668354385608588CF
:1003E00001268E40B5438580858896798E40B6B2C9
:1003F00035438580C5684F000326BE40B543C560C0
:10040000D5794E00B540C6683543C560491C1029F2
:10041000BFD3F0BD4FF6FF71016000210171417142
:100420008171C171704708B54FF480320092009A13
:100430000A430092009AC261C161009AC261C26916
:100440000092C269009208BD02460020138A0B4048
:100450000BB1012000E0002070470146088A704778
:1004600002460020938A0B400BB1012000E00020DF
:1004700070470146888A70470183704741837047FF
:100480000AB1018300E04183704781827047828A0C
:100490004A4082827047F0B5002300244D07ED0EDC
:1004A00002FA05F3CE1000F1200555F826504E074C
:1004B000F70E0F26BE40B543CF1000F1200646F8D8
:1004C0002750CE1000F1200555F8265045EA0304C8
:1004D000CE1000F1200545F82640F0BD0000024096
:1004E0000004024000080240000C024000100240DC
:1004F00000180240001C024000140240F948006845
:1005000040F48070F7490860F64808300068F64902
:100510000840F44908310860F2480068F34908408F
:10052000F04908600846006820F480200860ED4823
:100530000830006820F47D00EA4908310860002096
:10054000091D086070470021E64A921C117011468F
:100550000870704710B501460022002300204A11A0
:10056000012A02D1DF4C236802E0DE4C34342368D8
:1005700001F01F02012494401C400CB1012000E056
:10058000002010BD38B5002000900024002500BFD9
:100590003120FFF7DFFF05460098401C00900098CF
:1005A000B0F5A06F01D0002DF2D03120FFF7D2FFBF
:1005B00008B1012400E00024204638BDC949C91D06
:1005C0000870704701460020C64A121D106820F4CA
:1005D0006040084310607047C54908627047014693
:1005E0000020C04A121D106820F4F85040EA012093
:1005F00010607047BE49086070470021B94A353223
:100600001170114608707047BA490860704710B5FC
:1006100041EA02030343B34C0A34237010BDB449CA
:1006200008667047B24908677047B2492C310860C4
:10063000704740EA0102AB4B0B331A70704701461A
:100640000020A84A0832106820F003000843106018
:100650007047A4480830006800F00C00704701465D
:100660000020A04A0832106820F0F0000843106013
:100670007047014600209B4A0832106820F4E06071
:1006800008431060704701460020964A08321068FF
:1006900020F4605040EAC10010607047F0B50021BE
:1006A000002200230026002400258E4F08373F68D3
:1006B00007F00C0131B1042912D0082913D00C29FC
:1006C00037D113E0874F3F1D3F68C7F342356F1C9A
:1006D0004FF0010C0CFA07FC4FEACC37076036E00C
:1006E000854F076033E0854F076030E07D4F083766
:1006F0003F6807F470127B4F08373F6807F44003E8
:100700007F4F07EB92473A78012707EB9353754FDA
:1007100008373F6807F480362EB9774F5743B7FB49
:10072000F3F7076004E0754F5743B7FBF3F7076033
:100730000DE06C4F3F1D3F68C7F342356F1C4FF013
:10074000010C0CFA07FC4FEACC37076000BF00BF72
:10075000644F08373F6807F0F0010909694F7C5C76
:100760000768E74047605F4F08373F6807F4E0617C
:10077000090A644F7C5C4768E7408760594F083737
:100780003F6807F46051C90A5E4F7C5C4768E740E8
:10079000C760F0BD002100F44032B2F5403F08D1FF
:1007A000504A116821F0C04100F0C04211434D4A47
:1007B00011604C4A3432126822F44032494B3433CF
:1007C0001A601A46126800F440331A43454B34331A
:1007D0001A607047474958310860704745495C3195
:1007E0000860704739B13F4A1C32126802433D4BE2
:1007F0001C331A6006E03B4A1C3212688243394BB4
:100800001C331A60704739B1364A203212680243ED
:10081000344B20331A6006E0324A20321268824399
:10082000304B20331A60704739B12E4A2432126897
:1008300002432C4B24331A6006E02A4A2432126801
:100840008243284B24331A60704739B1254A10324D
:1008500012680243234B10331A6006E0214A10321B
:10086000126882431F4B10331A60704739B11D4A1A
:100870001432126802431B4B14331A6006E0194A03
:10088000143212688243174B14331A60704739B11F
:10089000144A183212680243124B18331A6006E0E9
:1008A000104A1832126882430E4B18331A60704790
:1008B00039B10C4A2832126802430A4B28331A60B5
:1008C00006E0084A283212688243064B28331A6031
:1008D0007047C9B1034A2C3212680243014B2C33D2
:1008E0001A6016E0003802400CC0FF88FEFFFEEEE2
:1008F00000004742800647420024F40000127A00BC
:1009000000000020090000201F4A126882431E4B8D
:100910001A60704739B11C4A121D126802431A4B03
:100920001B1D1A6006E0184A121D12688243164BFE
:100930001B1D1A60704739B1134A1F3A12780243DF
:10094000114B1F3B1A7006E00F4A1F3A1278824380
:100950000D4B1F3B1A7070470B480830006840F081
:100960008070094908310860704701460020064A36
:10097000203A12680A400AB1012000E000207047C6
:1009800001491E39087070472C38024010B50446E2
:10099000F748844209D101218803FFF767FF00214E
:1009A0004FF48040FFF762FF32E0F248844209D101
:1009B00001214804FFF76BFF00214FF40030FFF7DF
:1009C00066FF25E0EC48844209D101218804FFF745
:1009D0005EFF00214FF48020FFF759FF18E0E74841
:1009E000844209D10121C804FFF751FF00214FF4CF
:1009F0000020FFF74CFF0BE0E148844208D10121C1
:100A00000805FFF744FF00214FF48010FFF73FFF78
:100A100010BD2DE9FF4705460E460024A14600BF44
:100A2000A046B08900B100BF2C8A24F44054F0885D
:100A300004432C82AC8941F20C608443B088318934
:100A40000843718908430443AC81AC8A24F44074A0
:100A5000B0890443AC826846FFF720FEC448854253
:100A600002D1DDF80C9001E0DDF80890A88900F4CF
:100A7000004040B109EBC90000EB091031684900A2
:100A8000B0FBF1F707E009EBC90000EB0910316892
:100A90008900B0FBF1F76420B7FBF0F004012009F6
:100AA000642101FB1078A88900F4004040B1322095
:100AB00000EBC800B0FBF1F000F00700044308E0D1
:100AC000322000EB08106421B0FBF1F000F00F00C1
:100AD00004432C81BDE8FF874FF4165101600021CB
:100AE0008180C18001810C21418100218181704779
:100AF00010B502460020108A20F470600B884C88E4
:100B000023438C882343CC8823431843108210BD91
:100B10000021018041808180C180704721B182899C
:100B200042F40052828104E082894DF6FF731A403C
:100B300082817047028B02F47F420283028B0A4358
:100B40000283704721B1828942F40042828103E02E
:100B50008289C2F30E028281704721B1828A42F4F7
:100B60000062828204E0828A4FF2FF731A4082821E
:100B70007047C1F308028280704701468888C0F33D
:100B800008007047028A4FF6F0731A400282028A08
:100B90000A430282704721B1828942F002028281B7
:100BA00004E082894FF6FD731A4082817047828982
:100BB0004FF2FF731A40828182890A438281704713
:100BC000028A4FF6DF731A400282028A0A430282C7
:100BD000704721B1028A42F48042028204E0028A14
:100BE0004BF6FF731A4002827047818941F0010180
:100BF0008181704721B1828A42F00802828204E03A
:100C0000828A4FF6F7731A4082827047028BD2B203
:100C10000283028B42EA01220283704721B1828A59
:100C200042F02002828204E0828A4FF6DF731A408B
:100C30008282704721B1828A42F01002828204E0EF
:100C4000828A4FF6EF731A4082827047828A4FF68B
:100C5000FB731A408282828A0A438282704721B1E2
:100C6000828A42F00202828204E0828A4FF6FD7399
:100C70001A40828270471AB1838A0B43838202E052
:100C8000838A8B4383827047F0B503460024002695
:100C90000025002040F66A17B94200D100BF18466F
:100CA000C1F3421401F01F06012707FA06F5012CD3
:100CB00001D10C3004E0022C01D1103000E01430DE
:100CC0001AB107682F43076002E00768AF43076067
:100CD000F0BD02460020B1F5007F00D100BF1388AF
:100CE0000B400BB1012000E00020704701F40072BE
:100CF000B2F5007F00D100BFCA430280704770B5D3
:100D00000246002400230025002040F66A16B14266
:100D100000D100BFC1F3421501F01F03012606FAFE
:100D200003F3012D02D19689334006E0022D02D152
:100D3000168A334001E0968A33400C12012606FAE7
:100D400004F41688344013B10CB1012000E00020F7
:100D500070BD10B50022002340F66A14A14200D1F4
:100D600000BF0A1201249440A3B2DC43048010BDEA
:100D7000003801400044004000480040004C004062
:100D80000050004032490143324A1160704770B54B
:100D9000002100230F22C4781CB32E4C246804F4D5
:100DA000E064C4F5E064C4F30721C1F10404E3B2D4
:100DB0000A4144789C40E1B28478144021430C07F6
:100DC000210E254C05786155047804F01F05012497
:100DD000AC4005786D11AD0005F1E025C5F8004186
:100DE00009E0047804F01F050124AC401B4D06788F
:100DF000761145F8264070BD194A0A400243154B4A
:100E00001B1F1A60704739B1124A121D1268024343
:100E1000104B1B1D1A6006E00E4A121D1268824319
:100E20000C4B1B1D1A607047042808D14FF0E021BD
:100E3000096941F004014FF0E022116107E04FF031
:100E4000E021096921F004014FF0E02211617047AF
:100E50000000FA050CED00E000E400E080E100E0B5
:100E600080FFFF1F002041490860091D0860091D1F
:100E70000860091D08606FF07F403C49143108602C
:100E80007047002139498279002A3AD00A4612680F
:100E900003689A430B461A600A1D126803689A4356
:100EA0000B1D1A60027911440A6803681A430A602C
:100EB0002E4A0832126803689A432C4B08331A6092
:100EC0001A1D126803689A43284B0C331A60427942
:100ED000102A0ED11A1F126803681A43234B0833D5
:100EE0001A601A1D126803681A43204B0C331A60EB
:100EF0000DE01E49427911440A6803681A430A60EA
:100F000005E0027911440A6803689A430A60704751
:100F10000021016001710C21417100218171704734
:100F20001249103109680143104A103211607047AC
:100F3000014600200D4A143212680A400AB101200D
:100F400000E00020704709491431086070470146ED
:100F50000020064A143212680A400AB1012000E05B
:100F600000207047014914310860704700040140B7
:100F700008B50022009200200021CA22F94B1A6015
:100F800053221A60F74A183A126822F0A002F54B71
:100F9000183B1A6000BFF34A183A126802F02001A9
:100FA000009A521C0092009AB2F5004F01D000291D
:100FB000F1D0EC4A183A126802F020020AB101207E
:100FC00000E00020FF22E74B1A6008BD08B50022B0
:100FD000009200200021E34A183A126802F0400211
:100FE000E2B9421EDF4B183B1A6000BFDD4A183AD7
:100FF000126802F04001009A521C0092009AB2F569
:10100000005F01D00029F1D0D64A183A126802F0E8
:1010100040020AB1012002E0002000E0012008BDEA
:1010200038B50020009000240025CA20CD49086072
:1010300053200860FFF7CAFF00B952E00020C949F9
:101040002439086042F20110091D0860081D00687B
:1010500000F00700091D086000BFC248183800688A
:1010600000F004040098401C00900098B0F5005F68
:1010700001D0002CF1D0BB481838006800F0040003
:1010800008B900252DE0B7481C3800680020B54994
:101090001C3908604FF6FF70B24910390860B24839
:1010A000091F08600020AF490C390860091D08605D
:1010B000091D0860AB4908310860AA491831086069
:1010C000A84920310860091D0860A6491839086040
:1010D000A4491C310860FFF74BFF08B9002500E068
:1010E0000125FF209F490860284638BD9D481838D3
:1010F000006820F080009B4918390860704730B5BF
:1011000004460025CA209749086053200860FFF76D
:101110005DFF00B91DE093481C38006820F04000D6
:1011200090491C39086008460068216808438D49C9
:101130001C3908608B491439A068086008460068AB
:10114000A18840EA0140874914390860FFF7CEFFC3
:101150000125FF2083490860284630BD0021016039
:101160007F214160FF218160704718B1FF217D4AD6
:10117000116004E0CA217B4A11605321116070475D
:1011800030B504460025CA2076490860532008601F
:10119000FFF71CFF00B914E044B172481C38006826
:1011A00040F010006F491C39086007E06D481C389A
:1011B000006820F010006B491C390860FFF796FFAB
:1011C0000125FF2067490860284630BDCA21654ACD
:1011D00011605321116040B162491C39096841F026
:1011E0002001604A1C3A116007E05E491C39096819
:1011F00001F0DF015B4A1C3A1160FF21594A11607E
:1012000070470146002204E0501CC2B2A1F10A005E
:10121000C1B20A29F8DA100741EA106070470146A6
:1012200000BF080900EB8000420001F00F001044ED
:10123000C0B270472DE9F04105460C460026002754
:1012400055B948481C38006800F0400000B102E081
:101250000020E07000BF0EE042481C38006800F03B
:10126000400020B12078FFF7DAFF064602E00020B8
:10127000E07000BF00BF55B120780004617840EAFB
:101280000120A1780843E17840EA014611E0207886
:10129000FFF7B7FF4FEA00486078FFF7B2FF48EA70
:1012A0000028A078FFF7ADFF48EA0008E07848EA98
:1012B0000046CA202B49086053200860FFF786FECD
:1012C00008B9002714E0294830402649243908602D
:1012D000FFF70CFF23481C38006800F0200030B9ED
:1012E000FFF746FE08B9002702E0012700E00127CA
:1012F000FF201C4908603846BDE8F0810021C1701C
:10130000017041708170704770B506460C4600252B
:10131000144824380068154900EA0105C5F3054062
:101320002070C5F30620607005F07F00A07005F402
:101330008000000CE0705EB92078FFF770FF20702D
:101340006078FFF76CFF6070A078FFF768FFA0700F
:1013500070BD00200349091D086802492039096849
:101360007047000024280040FF007F007F7F7F003F
:101370002DE9F04105460C46002600274DB960785E
:1013800000F01000102804D1607820F010000A301E
:10139000607005B908E06078FFF741FF0646A07865
:1013A000FFF73DFF064600BF55B1E07800046178C5
:1013B00040EA0120A1780843217840EA413611E053
:1013C000E078FFF71EFF4FEA00486078FFF719FF4B
:1013D00048EA0028A078FFF714FF48EA00082078C0
:1013E00048EA4036CA20FE49086053200860FFF7EB
:1013F000EDFD08B9002714E0FA483040F8492039DB
:101400000860FFF773FEF6481C38006800F0200003
:1014100030B9FFF7ADFD08B9002702E0012700E071
:101420000127FF20EE4908603846BDE8F081012120
:101430000170817041700021C170704770B506461F
:101440000C460025E64820380068E64900EA010518
:10145000280CE070C5F30420607005F03F00A07018
:10146000C5F3423020705EB9E078FFF7D8FEE07037
:101470006078FFF7D4FE6070A078FFF7D0FEA07010
:1014800070BD2DE9F04105460E46144600276DB9A2
:10149000D3481C38006800F0400000B102E0002092
:1014A000E07000BFA06800B91AE019E0CC481C3811
:1014B000006800F0400020B12078FFF7B0FE07463A
:1014C00002E00020E07000BFA06820B9207BFFF799
:1014D000A6FE074604E0207BFFF7A1FE074600BFFB
:1014E00095B120780004617840EA0120A178084392
:1014F000E17840EA0140217B40EA0160A1680843AD
:10150000616840EA01071BE02078FFF77AFE4FEAA6
:1015100000486078FFF775FE48EA0028A078FFF7DA
:1015200070FE48EA0008E07848EA0048207BFFF7B0
:1015300068FE48EA0060A1680843616840EA010764
:10154000CA20A749086053200860B6F5807F03D100
:10155000A3480838076002E0A148001F0760FF2089
:101560009F490860BDE8F0810021C17001704170A1
:1015700081708160012101730021416070472DE974
:10158000F04106460F4614460025B7F5807F03D18B
:1015900093480838056802E09148001F0568C5F3C4
:1015A00005402070C5F30620607005F07F00A07034
:1015B00005F48000000CE070C5F30560207305F0B1
:1015C0008040A06005F0803060607EB92078FFF731
:1015D00026FE20706078FFF722FE6070A078FFF78B
:1015E0001EFEA070207BFFF71AFE2073BDE8F0817D
:1015F00038B502460024009400230020CA24784D08
:101600002C6053242C6041B1754C1C3C246814435D
:10161000734D1C3D2C6001201EE0714C1C3C246865
:1016200094436F4D1C3D2C6000BF6D4C183C2468EA
:1016300004EA1223009C641C0094009CB4F5005F33
:1016400001D0002BF1D0664C183C246804EA122427
:101650000CB9002000E00120FF24614D2C6038BD52
:1016600030B50023CA245E4D2C6053242C6041EA1F
:101670000203B0F5807F03D1594C2034236002E08F
:10168000574C24342360FF24554D2C6030BD014657
:101690000020B1F5807F05D1514A20321268C2F393
:1016A0000E0004E04E4A24321268C2F30E00704766
:1016B000CA214B4A11605321116049491C390968FC
:1016C00021F00701464A1C3A11601146096801439E
:1016D0001160FF21424A11607047CA21404A1160DF
:1016E000532111603E4910390860FF211160704795
:1016F0003B481038006880B2704718B50146002397
:10170000009300220020CA23354C2360532323601A
:1017100049B1334B1C3B1B6843F48063304C1C3C89
:10172000236001201FE02E4B1C3B1B6823F48063C9
:101730002B4C1C3C236000BF294B183B1B6803F05B
:101740000402009B5B1C0093009BB3F5005F01D07B
:10175000002AF1D0224B183B1B6803F004030BB99D
:10176000002000E00120FF231D4C236018BDCA2289
:101770001B4B1A6053221A60194A1C3A126822F451
:101780008022174B1C3B1A601A46126840EA01037C
:101790001A43134B1C3B1A60FF22114B1A6070470F
:1017A0000F481C38006800F480207047CA220C4B98
:1017B0001A6053221A600A4A1C3A126822F4E002A4
:1017C000074B1C3B1A601A46126840EA01031A4391
:1017D000034B1C3B1A60FF22014B1A60704700004C
:1017E000242800403FFFFF0070B504460D46002648
:1017F000CA20FE49086053200860FFF7E7FB00B9E4
:1018000007E044EA0500F9490C390860FFF76EFC6F
:101810000126FF20F5490860304670BD30B504460A
:101820000025CA20F149086053200860FFF7CEFB6D
:1018300000B914E044B1ED481C38006840F0800065
:10184000EA491C39086007E0E8481C38006820F0C5
:101850008000E6491C390860FFF748FC0125FF209D
:10186000E2490860284630BDCA21E04A1160532190
:10187000116040B1DD491C39096841F40001DB4ABF
:101880001C3A116007E0D9491C39096821F40001AC
:10189000D64A1C3A1160FF21D44A11607047CA2110
:1018A000D24A116053211160D0491C39096821F4D2
:1018B0000021CE4A1C3A11601146096801431160AB
:1018C000FF21CA4A1160704770B50346002000240A
:1018D000CA25C64E356053253560C44D183D2D6868
:1018E00005F4803555B100E0641CC04D183D2D68ED
:1018F00005F4803515B1B4F5805FF5D1BB4D183DC9
:101900002D6805F480353DB943EA01051543B74E0E
:1019100018363560012000E00020FF25B34E356009
:1019200070BD10B50A460021B04B1C3B1B6840F649
:10193000080423EA04011AB140F40063194300E0EB
:101940000143CA23A94C236053232360A74B1C3BAC
:101950001960FF23236010BD2DE9F04180460C463D
:10196000154600260027A1480C300068A04900EA6F
:1019700001069E48103000689E4900EA0107C6F340
:1019800005402070C6F30620607006F07F00A0704E
:1019900006F48000000CE0700020E870C7F304201B
:1019A000687007F03F00A870C7F342302870B8F1A4
:1019B000000F17D12078FFF732FC20706078FFF716
:1019C0002EFC6070A078FFF72AFCA0706878FFF703
:1019D00026FC6870A878FFF722FCA8702878FFF72B
:1019E0001EFC2870BDE8F081804814300068704704
:1019F00041B97E4A1C32126822EA40027B4B1C33FA
:101A00001A6007E0794A1C32126842EA4002774BBA
:101A10001C331A60704739B1744A1C321268024391
:101A2000724B1C331A6006E0704A1C321268824303
:101A30006E4B1C331A6070476C491C31096821F4E5
:101A4000C0516A4A1C321160114609680143116095
:101A5000704766491C31096821F4E061634A1C3211
:101A60001160114609680143116070475F491C31DC
:101A7000096821F4C0415D4A1C32116011460968B1
:101A800001431160704740B158491C31096841F069
:101A90008001564A1C32116007E054491C31096824
:101AA00021F08001514A1C321160704740B14F490A
:101AB0001C31096821F400414C4A1C32116007E0D6
:101AC0004A491C31096841F40041484A1C321160FE
:101AD000704708B500220092444A2C320092009AC6
:101AE00002EB80020092009A116008BD08B5014621
:101AF000002000903D482C300090009800EB8100C1
:101B000000900098006808BD38491C31096821F42C
:101B10008021364A1C321160114609680143116068
:101B20007047F0B504460D4600270026CA202F490D
:101B30000860532008602D481838006800F008003D
:101B400050B100E0761C29481838006800F0080001
:101B500010B1B6F5005FF5D124481838006800F0E0
:101B6000080098B921481C38006800F0100058B9E6
:101B700045EA04001D4908310860FFF7F9F908B982
:101B8000002704E0012702E0002700E00027FF20F3
:101B9000164908603846F0BDCA22144B1A60532219
:101BA0001A6091B1114A1C3A126820F004031A43DA
:101BB0000E4B1C3B1A600D4A1C32126800F00403E5
:101BC0001A430A4B1C331A6018E0084A1C3A126880
:101BD00020F004039A43054B1C3B1A60034A1C3255
:101BE000126800F004039A43004B05E024280040EB
:101BF0007F7F7F003FFFFF001C331A60FF222A4BCC
:101C00001A60704710B5014600200022264B183B91
:101C10001B68264C03EA040202EA01030BB101200F
:101C200000E0002010BDC0F3100141F080011E4A09
:101C3000183A126802F0800262EA01011A4A183A60
:101C40001160704730B50146002000220023164C79
:101C50001C34246804F00402134C1C3C24680C401F
:101C60008D0C21FA05F502EAD53544EA05030E4C40
:101C7000183C246804EA11121BB194B20CB1012083
:101C800000E0002030BD002101098AB242F080024C
:101C9000054B183B1B6803F0800363EA0202024B0A
:101CA000183B1A6070470000242800407FFF0100A5
:101CB00010B501210807FEF7EAFD00214FF0805022
:101CC000FEF7E5FD10BD4D49086270470146002052
:101CD0004B4A106820F0E000084310607047474905
:101CE0000861704708B500220092444AA0320244BD
:101CF0000092009A116008BD4049886270473F49D0
:101D000048627047014600203D4A106820F4C050E8
:101D1000084320F00C023A4B1A60704758B138491A
:101D2000096841F00101364A11601146096841F421
:101D3000804111600AE03249096821F48041304A4B
:101D400011601146096821F001011160704710B55A
:101D5000024600202A4B186820F003001043186048
:101D6000284B1B6823F00403264C2360012901D172
:101D700030BF00E020BF10BD10B502460020204B50
:101D8000186820F00300104318601E4B1B6843F0D6
:101D900004031C4C2360012901D130BF00E020BFA7
:101DA000184B1B6823F00403164C236010BD144825
:101DB000006840F00400124908600846006840F0DE
:101DC000020008600F48006840F004000D490860F8
:101DD00000BF00BF30BF704701460020084A52686C
:101DE0000A400AB1012000E0002070470449096858
:101DF00041EA8001024A11607047000000000E4273
:101E00000070004010ED00E001684FF6FE721140D6
:101E100001600021016041608160C1608D4988429C
:101E200008D18C490839496841F00F01894A083ABC
:101E300051608AE087491431884208D185490839C0
:101E4000496841F0F001834A083A51607DE08149D8
:101E50002831884208D17F490839496841F47061C6
:101E60007C4A083A516070E07A493C31884208D196
:101E700078490839496841F47041764A083A516016
:101E800063E074495031884208D172490839496881
:101E900041F470216F4A083A516056E06D4964314F
:101EA000884208D16B490839496841F47001694A90
:101EB000083A516049E067497831884208D165495C
:101EC0000839496841F07061624A083A51603CE063
:101ED0006149884206D1011F096841F00F01021FC4
:101EE000116032E05C491431884208D15A49091F17
:101EF000096841F0F001584A121F116025E0564967
:101F00002831884208D15449091F096841F4706199
:101F1000514A121F116018E04F493C31884208D1E4
:101F20004D49091F096841F470414B4A121F116065
:101F30000BE049495031884207D14749091F0968D8
:101F400041F47021444A121F1160704710B50022FD
:101F5000026847F6F0739A430C6A8B6823430C6956
:101F600023434C6923438C692343CC6923434C6A44
:101F700023438C6A23431A430260CB6843600B6897
:101F800083604B68C36010BD0021016041608160C7
:101F9000C160016141618161C1610162416281622F
:101FA000704721B1026842F00102026004E0026859
:101FB0004FF6FE731A400260704741607047014659
:101FC000486880B270471AB103680B43036002E0AF
:101FD00003688B430360704701460020002201F034
:101FE00080531BB91B4B083B1A6802E01A4B083B95
:101FF0001A6802EA01030BB1012000E000207047DB
:1020000000F0805119B913490839486002E01249BB
:10201000091F0860704701460020002201F080532C
:102020001BB90C4B083B1A6802E00B4B083B1A68C3
:1020300002EA01030BB1012000E00020704700F02C
:10204000805119B903490839486002E00249091F63
:1020500008607047086002400864024010B50446FA
:10206000B4F1804F08D101210846FEF710FC002191
:102070000120FEF70CFC5EE0FB48844208D1012100
:102080000220FEF704FC00210220FEF700FC52E0D3
:10209000F648844208D101210420FEF7F8FB002114
:1020A0000420FEF7F4FB46E0F148844208D1012108
:1020B0000820FEF7ECFB00210820FEF7E8FB3AE0E1
:1020C000EC48844208D101211020FEF7E0FB0021FA
:1020D0001020FEF7DCFB2EE0E748844208D1012106
:1020E0002020FEF7D4FB00212020FEF7D0FB22E0C9
:1020F000E248844208D101210420FEF7B7FB002109
:102100000420FEF7B3FB16E0DD48844208D101212C
:102110000820FEF7ABFB00210820FEF7A7FB0AE032
:10212000D848844207D101211020FEF79FFB0021EF
:102130001020FEF79BFB10BD00220288B0F1804FFB
:1021400008D0C94B984205D0C84B984202D0C84B22
:10215000984204D14FF68F731A404B881A43C54BEF
:10216000984207D0C44B984204D04FF6FF431A4020
:102170000B891A4302804B68C3620B8803850123D5
:10218000838270474FF0FF3141600021018001815F
:10219000418070470185828270470A46002101888C
:1021A0004FF68F73194011430180704741627047A9
:1021B000C16270470146486A70470146088D704702
:1021C00021B1028842F00202028004E002884FF648
:1021D000FD731A400280704721B1028842F0040268
:1021E000028004E002884FF6FB731A4002807047B9
:1021F00021B1028842F08002028004E002884FF69A
:102200007F731A400280704702884FF6F7731A40B6
:10221000028002880A430280704702884FF6FF431B
:102220001A40028002880A430280704721B1028866
:1022300042F00102028004E002884FF6FE731A4069
:102240000280704730B500230022048C4FF6FE75E3
:102250002C400484028C038B4FF68F742340AC1EF9
:1022600023400C8823436C1E22400C8922434C8857
:1022700022434C6844630383028430BD30B500239D
:102280000022048C4FF6EF752C400484028C038BE3
:1022900048F6FF7423400C884FF6FF7505EA0424C6
:1022A00023434FF6DF7422400C8905EA04142243CD
:1022B0004C8805EA041422434C6884630383028437
:1022C00030BD30B500230022048C4FF6FF652C4052
:1022D0000484028C838B4FF68F7423400C88234335
:1022E0004FF6FF5422400C894FF6FF7505EA04248F
:1022F00022434C8805EA042422434C68C463838348
:10230000028430BD30B500230022048C4EF6FF75E8
:102310002C400484028C838B48F6FF7423400C8885
:102320004FF6FF7505EA042423434DF6FF7422405F
:102330000C8905EA043422434C8805EA043422431C
:102340004C6804648383028430BD00210180418095
:1023500041600181704770B5034600200024184693
:10236000183001258D40ACB21D8CA5431D8409B1E8
:10237000082909D100EB6100056825F070050560AA
:102380000568154305600EE00D1FC5F34E05284492
:10239000056825F4E045056005684FF6FF7606EA16
:1023A00002263543056070BD416370478163704705
:1023B000C1637047016470470A460021018B4FF6E4
:1023C0008F7319401143018370470A460021018B26
:1023D00048F6FF7319404FF6FF7303EA02231943CF
:1023E000018370470A460021818B4FF68F73194095
:1023F0001143818370470A460021818B48F6FF73A1
:1024000019404FF6FF7303EA022319438183704793
:102410000A460021018B4FF6F773194011430183DF
:1024200070470A460021018B4FF2FF7319404FF6A7
:10243000FF7303EA02231943018370470A46002110
:10244000818B4FF6F77319401143818370470A4619
:102450000021818B4FF2FF7319404FF6FF7303EA9F
:1024600002231943818370470004004000080040A4
:10247000000C004000100040001400400008014023
:10248000000C0140001001400A460021018B4FF66C
:10249000FB7319401143018370470A460021018BE9
:1024A0004FF6FF3319404FF6FF7303EA0223194337
:1024B000018370470A460021818B4FF6FB73194058
:1024C0001143818370470A460021818B4FF6FF3309
:1024D00019404FF6FF7303EA0223194381837047C3
:1024E0000A460021018B4FF67F7319401143018387
:1024F00070470A460021018BC1F30E014FF6FF73AE
:1025000003EA02231943018370470A460021818BA5
:102510004FF67F7319401143818370470A460021AB
:10252000818BC1F30E014FF6FF7303EA02231943B7
:10253000818370470A460021018C4FF6FD731940D4
:102540001143018470470A460021018C4FF6DF7366
:1025500019404FF6FF7303EA0213194301847047D1
:102560000A460021018C4FF6FF5319404FF6FF73C6
:1025700003EA02231943018470470A460021018CB3
:102580004DF6FF7319404FF6FF7303EA0233194308
:102590000184704702894FF6F7731A40028102895D
:1025A0000A430281704730B5002301248C40A3B256
:1025B000048C9C430484048C02FA01F5ADB22C43D4
:1025C000048430BD828B4FF2FF331A408283828BAA
:1025D0004FF6FF7303EA01231A4382837047F0B575
:1025E0000C461546002100220026078C4EF6FF7C83
:1025F00007EA0C070784818B028C4FF6FF7707EA06
:10260000043640F6FF4739404FF6FF7707EA0527C3
:1026100039434FF6FF7707EA0337394345F6FF772B
:102620003A4046F480573A4381830284F0BD828B5E
:102630004FF6F3731A408283828B0A43828370477A
:10264000F0B50C461546002100220026078C4FF6F7
:10265000FF6C07EA0C070784818B028C4FF6FF772B
:1026600007EA04264FF60C7739404FF6FF7707EA62
:1026700003172F4339434FF2FF573A4046F4807710
:102680003A4381830284F0BD028B4FF2FF331A403C
:102690000283028B4FF6FF7303EA01231A4302837E
:1026A0007047F0B50C461546002100220026078C25
:1026B0004FF6EF7C07EA0C070784018B028C4FF67C
:1026C000FF7707EA041640F6FF4739404FF6FF77D9
:1026D00007EA033739434FF6FF7707EA05273943FF
:1026E0004FF65F773A4046F010073A430183028481
:1026F000F0BD028B4FF6F3731A400283028B0A433C
:1027000002837047F0B50C46154600210022068C66
:102710004FF6FE773E400684018B028C4FF60C7616
:1027200031407E1C06EA03162E4331434FF6F57600
:10273000324044F00106324301830284F0BD70B59B
:1027400005460C46208850B92389A288618828460E
:10275000FFF7D8FFE1882846FFF7CBFF25E0208868
:1027600004280AD12389A28861882846FFF799FFA7
:10277000E1882846FFF788FF17E0208808280AD15B
:102780002389A28861882846FFF75AFFE1882846F6
:10279000FFF74DFF09E02389A28861882846FFF7EB
:1027A0001EFFE1882846FFF70DFF70BD0021018064
:1027B0004180012181800021C180018170472DE984
:1027C000F04105460C4600260127608808B902261C
:1027D00000E00026A088012801D1022700E001279F
:1027E0002088A0B92389A28861882846FFF78AFF3C
:1027F000E1882846FFF77DFF23893A46314628467F
:10280000FFF74FFFE1882846FFF73EFF13E02389DB
:10281000A28861882846FFF744FFE1882846FFF731
:1028200033FF23893A4631462846FFF76BFFE1889C
:102830002846FFF75EFFBDE8F0810146486B704710
:102840000146886B70470146C86B70470146086CAB
:1028500070471AB183890B43838102E083898B43DC
:10286000838170478182704702460020138A0B40A3
:102870000BB1012000E000207047CA43028270477C
:1028800030B50246002000230024158A05EA010322
:10289000958905EA010413B10CB1012000E0002084
:1028A00030BDCA430282704741EA0203A0F84830B3
:1028B00070471AB183890B43838102E083898B437C
:1028C0008381704721B1828842F00802828004E04F
:1028D00082884FF6F7731A408280704701894FF65D
:1028E000F8721140018170470A46002101894FF6B4
:1028F0008F73194011430181704730B504460D466E
:1029000029462046FFF7F0FF208940F0070020818C
:1029100030BD2DE9F04104460D4616461F46602D98
:1029200006D13B46012231462046FFF7BAFE05E0BC
:102930003B46012231462046FFF7E4FE2946204669
:10294000FFF7D2FF208940F007002081BDE8F08129
:1029500030B50C4600210189C9B24FF6FF7505EA72
:102960000325154325432943018130BD2DE9F0415D
:1029700005460E4617469846002443463A463146D9
:102980002846FFF7E5FF2C894FF6F870044044F025
:1029900007044FF68F70044044F070042C81BDE8AA
:1029A000F081F0B504460D4616461F463B463246BA
:1029B00029462046FFF7CCFF208940F48040208143
:1029C000F0BD82884FF68F731A40828082880A4356
:1029D0008280704702894FF6F8731A40028102899B
:1029E0000A430281704702894FF67F731A400281C1
:1029F00002890A4302817047F0B50C4615461E460F
:102A00000021002200230189028B038C4FF6F87706
:102A1000394021434FF6FC473A4040F201173A4310
:102A20004FF6DD773B404FF6FF7707EA06172F4357
:102A30003B43018102830384F0BD21B1828842F0CF
:102A40008002828004E082884FF67F731A40828081
:102A5000704730F8502F02EA1142028002888BB290
:102A60001A4320F8502970470CB5002001900090BF
:102A70008548006840F001008349086000BF824833
:102A8000006800F002000090009818B90198B0F5B5
:102A9000A06FF4D17C48006800F0020010B1012062
:102AA000009001E0002000900098012859D177485B
:102AB000006840F00400754908600846006840F06E
:102AC000020008600846006840F0010008606E4897
:102AD0002430006840F080506B4924310860C814ED
:102AE0006B49086000BF6A48406800F01000002889
:102AF000F9D1654808300068634908310860084624
:102B0000006808600846006808600846006820F40D
:102B10007D0008600846006840F4880008605A4854
:102B2000006840F080705849086000BF564800684F
:102B300000F000700028F9D053480830006820F0F9
:102B400003005149083108600846006840F003005E
:102B5000086000BF4C480830006800F00C000C28EA
:102B6000F8D10CBD10B54848006840F48070464963
:102B70000860454808300068464908404249083125
:102B8000086041480068444908403F4908600846D9
:102B9000006820F4802008603B480830006820F47A
:102BA0007D003949083108600020091D0860FFF7E1
:102BB0005BFF4FF000603949086010BD70B500221E
:102BC00000200021002400232F4D08352D6805F03A
:102BD0000C0232B1042A10D0082A12D00C2A39D1A2
:102BE00013E0294D2D1D2D68C5F342335D1C0126D0
:102BF000AE40F5032A4E356038E02A4D284E356048
:102C000034E0294D264E356030E01F4D08352D68E3
:102C100005F470101C4D08352D6805F44001234D56
:102C200005EB90452878012505EB9151164D0835A7
:102C30002D6805F4803434B91A4D4543B5FBF1F5E0
:102C4000174E356005E0184D4543B5FBF1F5144EC0
:102C500035600BE00C4D2D1D2D68C5F342335D1C16
:102C60000126AE40F5030E4E356000BF00BF064D95
:102C700008352D68C5F303150D4E725D084D2D689E
:102C8000D540074E356070BD00380240003C024020
:102C9000007000400CC0FF88FEFFFEEE08ED00E073
:102CA0001C0000200024F40000127A002000002004
:102CB0002900002010B50121F848FDF7DFFB0221B3
:102CC000F648FDF7D9FB0121F448FDF7D5FB10BD0F
:102CD00010B50121F148FDF7D1FB0221EF48FDF7C6
:102CE000CBFB0221ED48FDF7C9FB10BD70B50446D2
:102CF00008250221E948FDF7C1FB15E004F080003A
:102D000020B10121E548FDF7B7FB03E00121E348CD
:102D1000FDF7B4FB0221E148FDF7AEFB0221DF48DD
:102D2000FDF7ACFB6006040E2800A5F10101CDB251
:102D3000E4D170BD10B50121D848FDF79DFB0221FB
:102D4000D648FDF799FB0121D448FDF797FB0221F6
:102D5000D248FDF793FB10BD70B5FFF7EBFF78206D
:102D6000FFF7C4FFFFF7B4FF4020FFF7BFFFFFF7F7
:102D7000AFFF00240FE0002509E0C94901EB850100
:102D8000085DFFF7B3FFFFF7A3FF681CC5B2802DF6
:102D9000F3DB601CC4B2042CEDDBFFF78BFF70BDCE
:102DA00070B500240CE0002506E00020BC4901EBD2
:102DB00085010855681CC5B2802DF6DB601CC4B2C5
:102DC000042CF0DBFFF7C8FF70BD70B505460C465C
:102DD000FFF7B0FF7820FFF789FFFFF779FF1CB9F5
:102DE0000020FFF783FF02E04020FFF77FFFFFF79F
:102DF0006FFF2846FFF77AFFFFF76AFFFFF75AFFDA
:102E000070BD1CB501210320FDF7ECFC01200090F2
:102E10008DF8040000208DF8060002208DF80500D2
:102E200069469E48FDF7AEFA0220009001208DF819
:102E3000040000208DF8060002208DF80500694688
:102E40009648FDF79FFA8020009001208DF804003D
:102E500000208DF8060002208DF805006946914893
:102E6000FDF790FA80218F48FDF706FB01218B4882
:102E7000FDF702FB02218948FDF7FEFA802189480F
:102E8000FDF7FCFA0A2000F0A5FE80218548FDF739
:102E9000F3FA0021AE20FFF798FF0021D520FFF7BD
:102EA00094FF00218020FFF790FF0021A820FFF76A
:102EB0008CFF00211F20FFF788FF0021D320FFF7A0
:102EC00084FF00210846FFF780FF00214020FFF724
:102ED0007CFF00218D20FFF778FF00211420FFF7F1
:102EE00074FF0021A120FFF770FF0021C820FFF729
:102EF0006CFF0021DA20FFF768FF00210220FFF7B6
:102F000064FF00218120FFF760FF00218F20FFF781
:102F10005CFF0021D920FFF758FF0021F120FFF7C7
:102F200054FF0021DB20FFF750FF00214020FFF776
:102F30004CFF0021A420FFF748FF0021A620FFF747
:102F400044FF00212020FFF740FF00210846FFF743
:102F50003CFF00212120FFF738FF00210846FFF742
:102F600034FF00217F20FFF730FF00212220FFF7F0
:102F70002CFF00210846FFF728FF00210320FFF760
:102F800024FF0021AF20FFF720FFFFF709FF1CBD42
:102F900010B500218D20FFF718FF00211420FFF746
:102FA00014FF0021AF20FFF710FF10BD10B5002166
:102FB0008D20FFF70AFF00211020FFF706FF0021F8
:102FC000AE20FFF702FF10BDF0B5144600267F28A3
:102FD00001DC1F2900DDF0BD0B46CF1701EB577751
:102FE000C7F3C702CF1701EB5777FF10A1EBC70755
:102FF000FDB20123AB40DEB24CB1294B03EB8003A1
:103000009B5C3343264F07EB8007BB5408E0244BFF
:1030100003EB80039B5CB343214F07EB8007BB545A
:1030200000BFD8E72DE9F04706460F46904699467F
:10303000DDF820A034460CE03D4606E05246294625
:103040002046FFF7C1FF681CC5B24D45F6DD601C88
:10305000C4B24445F0DDFFF77FFEBDE8F0872DE9FF
:10306000F04F80460C4615461E46A346A5F12000AB
:10307000C5B2002749E00C2E07D105EB45000A49EF
:1030800001EB800010F8079004E0084800EB051001
:1030900010F807904FF0000A31E0000000040240F1
:1030A00090000020000002409051000804560008E3
:1030B00009F0800028B121464046099AFFF784FFB5
:1030C00009E0099808B9012000E0002002462146E5
:1030D0004046FFF779FF4FEA49604FEA1069601CEC
:1030E000C4B2A4EB0B00B04205D15C4608F101006C
:1030F00000F0FF0806E00AF1010000F0FF0ABAF153
:10310000080FD5DB00BF781CC7B2B742B3DBBDE800
:10311000F08F10B50246012000E050430B00A1F1F2
:103120000104E1B2F9D110BD2DE9FF4F81B007468E
:1031300091461E460E9D4FF0000A002439E0301BD8
:10314000401EC1B20A20FFF7E4FFB9FBF0F00A21EC
:10315000B0FBF1F201FB1208BAF1000F16D1701E9C
:10316000A04213DDB8F1000F0ED10120AB4605EBF4
:10317000DB71491001FB04710090C8B22B4620227C
:103180000299FFF76CFF12E04FF0010A0120AB46F5
:1031900005EBDB71491001FB04710090C8B208F126
:1031A0003001CAB22B460299FFF759FF00BF601CDD
:1031B000C4B2B442C3DB05B0BDE8F08FF8B5054634
:1031C0000E46144618E07A2D03DD002506F11000A6
:1031D000C6B21A2E04DD002005460646FFF7E0FDC4
:1031E000012000902278102331462846FFF737FF50
:1031F00005F10800C5B2641C20780028E3D1F8BDB1
:10320000F8B504460D4617461E468DF802708DF837
:1032100001508DF800608DF8034069460020FEF7EC
:10322000A7F8F8BDF8B504460D4617461E468DF8BA
:1032300000408DF801508DF802708DF803606946EA
:103240000020FDF7F7FFF8BD3EB500240121080777
:10325000FDF7EAFA0120FEF736FD0020FEF746FCF6
:1032600045F25001884235D00120FDF7C6F904E04F
:10327000601CC4B20A2000F0ADFC4920FDF76AF9D9
:1032800008B9FA2CF4DBFA2C01DB01203EBD4FF427
:103290008030FDF77FFA0120FDF79CFAFDF768FE0C
:1032A0007F200190FF200290002000906846FDF7EB
:1032B00026FF00231A463B211720FFF7B3FF072301
:1032C0000C2204210F20FFF79BFF45F25001002044
:1032D000FEF7FFFB0020D9E73EB505460C4600206F
:1032E000FEF70BFA0420FEF7E3F92046FEF7F5F9A6
:1032F0004FF48040FEF7C7FC4FF48010FDF732FE1C
:1033000001218803FEF748FC0120FEF7F6F94FF48F
:103310008010019000208DF8080008208DF8090029
:1033200001208DF80A0001A8FDF7ABFD03208DF800
:10333000000000208DF801008DF8020001208DF8BA
:1033400003006846FDF723FD3EBD1CB501A9002022
:10335000FDF7DAFF69460020FEF770F89DF80400DB
:10336000334908709DF8050048709DF80600887084
:103370009DF8030088809DF8010088719DF8020087
:10338000C8719DF8000008721CBD08B54FF480603C
:10339000FEF738FC012846D1FFF7D7FF1020009038
:1033A00023480278022310210020FFF7BDFE1020E1
:1033B00000901F484278022310210846FFF7B4FE10
:1033C000102000901A488278022310212020FFF755
:1033D000ABFE102000901648828802231021302076
:1033E000FFF7A2FE102000901148827902231021DD
:1033F0004020FFF799FE102000900D48C27902236B
:1034000010215020FFF790FE102000900848027A0B
:10341000022310216020FFF787FEFFF79DFC4FF489
:103420008060FEF700FC4FF48010FDF79BFD08BDA7
:103430009002002010B5044644B10021A448FEF7D4
:10344000B5FE0121A248FEF7F1FE03E00021A048ED
:10345000FEF7ECFE10BD7FB505460C4601210420A9
:10346000FDF7E2F90195ADF800400020ADF8080045
:10347000ADF8020069469648FEF75EFE012211464D
:103480009348FFF7E6F91E208DF80C0001208DF817
:103490000D0002208DF80E0001208DF80F0003A80A
:1034A000FDF775FC7FBD70B58CB006460C46154621
:1034B00001210806FDF796F93046FEF7A5FC0194B8
:1034C0000295102003900020049005908020069023
:1034D00000200790089009904FF480500A90002037
:1034E0000B9001A93046FEF731FD0CB070BD10B550
:1034F00088B0044601210220FDF774F901218803F8
:10350000FDF781F98020059002208DF81800002039
:103510008DF81A0002208DF8190001208DF81B008B
:1035200005A96C48FCF72EFF4020059002208DF87D
:10353000180000208DF81A0002208DF819000120D3
:103540008DF81B0005A96348FCF71CFF0722062124
:103550006048FCF7A0FF072211465E48FCF79BFF7E
:1035600001940020ADF80800ADF80A00ADF80C0099
:10357000ADF810000C20ADF80E0001A95648FDF77B
:1035800048FA012280215448FDF775FB534A5249FD
:10359000091D5348FFF787FF01214F48FDF7BEFA89
:1035A000012240F225514C48FDF76EFB25208DF895
:1035B0001C0002208DF81D0003208DF81E00012044
:1035C0008DF81F0007A8FDF7E2FB40F67F4163205E
:1035D000FFF741FF002043490880FFF72BFF08B0A9
:1035E00010BD70B504460D4600212046FEF7D9FCFB
:1035F00029462046FEF7E1FC01212046FEF7D1FCDA
:1036000070BD0FB438B500BF3548FEF7D8FC0028B0
:10361000FAD105A800903148009A049901F048F9C0
:10362000002000902D4800F0A3FEC4B221462C4893
:10363000FFF7D7FF38BC5DF814FB10B5044600BF98
:103640002748FEF7BCFC0028FAD121462448FFF7A2
:10365000C8FF10BD10B501211D48FFF711F960B179
:103660002048008840F400401E4908800121184885
:10367000FFF717F90020FFF7DDFE10BD10B540F28F
:1036800025511548FDF73BFB00B31348FDF775FACC
:10369000C4B214480088C82812DA00210C48FEF78A
:1036A00085FD1048008810B90120FFF7C3FE0D48C2
:1036B00001880088401C0B4A10800B48445405E0E8
:1036C0000848008840F400400649088010BD00000A
:1036D000000800400004024000380140A002002021
:1036E000446002403A0000206803002000F1080115
:1036F00041604FF0FF31816000F10801C16001615C
:1037000000210160704700210161704742685368E1
:103710004B6043688B6053689960516041600861F9
:1037200003685B1C0360704710B502460B685C1CA5
:103730000CB9106907E002F1080000E04068446835
:1037400024689C42FAD944684C604C68A160886047
:1037500041600A611468641C146010BDD0E9013234
:103760009A60D0E901235A6001694A68824201D116
:1037700082684A60002202610A68521E0A6070472D
:1037800010B5002407E004EB8401FE4A02EB81003F
:10379000FFF7ACFF641C042CF5D3FB48FFF7A6FF32
:1037A000FA48FFF7A3FFFA48FFF7A0FFF948FFF731
:1037B0009DFFF548F8490860F448F849086010BDD5
:1037C0002DE9F04104460E4615469846069F102204
:1037D000314604F1340000F0BFFD002143200155C3
:1037E000042D00D30325E5626564201DFFF78BFFE0
:1037F00004F11800FFF787FF2461C5F10400A06100
:103800006462BDE8F08170B505460E46482000F0C0
:10381000ADFC044694B11EB9A80000F0A7FC00E07E
:1038200030462063206B20B9204600F000FD0024C4
:1038300004E0A900A522206B00F07CFD204670BDAD
:103840002DE9FF4F81B0804615469946DDE90E7A95
:1038500028461099FFF7D7FF0446002C56D0681E63
:10386000216B01EB800B2BF0070B00953A462046AD
:10387000119B0299FFF7A4FF4A464146584600F0C3
:1038800001FD2060BAF1000F01D0CAF8004000F03D
:103890002AFDC3480068401CC1490860C14800684F
:1038A00040B9C04804600846006801280CD1FFF701
:1038B00067FF09E0BC48006830B9BA480068C06AD0
:1038C000B84201D8B7480460B849E06A096888423C
:1038D00002D9B649E06A0860B5480068401CB4499E
:1038E0000860B449E06A0968884202D9B149E06ACF
:1038F0000860E16A01EB8101A24A02EB8100211D0F
:10390000FFF704FF012600F0F7FC01E04FF0FF365F
:10391000012E09D1A448006830B1A2480068C06AED
:10392000B84201D200F0D9FC304605B0BDE8F08FB6
:1039300070B5A1480068002866D1A0480068401C06
:103940009E4908600846006808BB93490868934987
:103950000968914A11609149086099490968491CB0
:10396000974A11608C490968096809B9012100E08A
:10397000002121B14FF0FF31924A116006E08649E3
:103980000968C968CC688F4A6168116000BF8B48BC
:1039900000688C490968884235D300BF7E480068BA
:1039A000006808B9012000E0002020B14FF0FF308E
:1039B0008449086026E078480068C068C468656883
:1039C0007E480068A84202D27E4805601AE0201DA9
:1039D000FFF7C4FEA06A18B104F11800FFF7BEFE9D
:1039E0007449E06A0968884202D97249E06A08604D
:1039F000E16A01EB8101634A02EB8100211DFFF7BF
:103A000085FECBE700BF04E06F480068401C6E49AC
:103A1000086070BD70B5002500F065FC6648006860
:103A2000401E654908600846006800284CD15C4883
:103A30000068002848D0002621E05548C068C468C6
:103A400004F11800FFF78AFE201DFFF787FE594991
:103A5000E06A0968884202D95649E06A0860E16A6A
:103A600001EB8101474A02EB8100211DFFF74EFE69
:103A70004C49E06A0968C96A884200D30126444873
:103A8000006808B9012000E000200028D5D04E4889
:103A9000006860B106E0FFF74BFF4B480068401E2E
:103AA00049490860484800680028F4D10126012EE1
:103AB00003D046480068012805D10125002043496C
:103AC000086000F00AFC00BF00F016FC284670BD3C
:103AD00010B50446334800684460384800688442A2
:103AE00007D230480168091D2C480068FFF71CFE0A
:103AF0000CE02C480168091D27480068FFF714FEF8
:103B000030480068844201D22E48046010BD2A4823
:103B10000068401C2849086070472DE9F0410446C0
:103B20000F464FF00008FFF7F2FF2068C519234940
:103B300020680968884209D92068A8420FD91F481F
:103B4000006885420BD94FF0010808E02068A842C0
:103B500003D81A480068854201D94FF00108256052
:103B6000B8F1000F07D00F480068001DFFF7F6FD01
:103B70002846FFF7ADFFFFF74DFF06460EB900F0F0
:103B8000ACFB25E0300400208004002094040020D9
:103B9000A8040020BC0400204000002044000020B5
:103BA000480000203C000020580000205000002069
:103BB0006C000020540000205C0000204C0000201D
:103BC00068000020700000206000002064000020D9
:103BD000BDE8F08170B5044600267CB1FFF797FF81
:103BE000F74800680519F7480068001DFFF7B6FDA3
:103BF0002846FFF76DFFFFF70DFF06460EB900F0F0
:103C00006CFB70BD70B5044600F06DFB14B9ED4857
:103C1000006800E020460646F56A00F06DFB284685
:103C200070BD2DE9F04106460D464FF00008042D09
:103C300000D3032500F057FBE2480068864200D11C
:103C4000002616B9DF48006800E030460446676C7D
:103C5000AF4232D0BD4203D92EB14FF0010802E08D
:103C60000EB94FF00108E16A606C884200D1E5624C
:103C70006564C5F10400A06107EB8701D24A02EB3D
:103C800081016069884213D1201DFFF767FDCF498C
:103C9000E06A0968884202D9CC49E06A0860E16AB2
:103CA00001EB8101C84A02EB8100211DFFF72EFDC7
:103CB000B8F1010F01D100F010FB00F01DFBBDE8D1
:103CC000F081C348006818B10120C249086025E0AE
:103CD00004E0BE480068401EBC490860BB4800685C
:103CE00000EB8000B84951F820000028F1D0B74916
:103CF000096801EB8101B44A02EB8100416849681F
:103D0000416000F1080142688A4202D14168496875
:103D100041604168C968AB4A116000BF704770B527
:103D2000044600F0E0FAA7480068844200D100246D
:103D300014B9A448006800E020460546281DFFF796
:103D40000DFDA86A18B105F11800FFF707FD291D40
:103D5000A148FFF7DBFC00F0CFFA8CB99F48006860
:103D600010B100F0BAFA0BE09B4800689C49096862
:103D7000884203D100209349086001E0FFF7A1FFCA
:103D800070BD10B5014600200A46934C5369A3420A
:103D900001D1012300E0002383B1924C936AA34236
:103DA00001D1012300E00023012B07D0936A0BB956
:103DB000012300E00023012B00D1012010BD70B5CC
:103DC00005462C4644B37F480068844224D000F066
:103DD0008AFA2046FFF7D5FF01281BD1201DFFF7E7
:103DE000BDFC7A49E06A0968884202D97749E06AED
:103DF0000860E16A01EB8101734A02EB8100211D39
:103E0000FFF784FC6F49E06A0968C96A884201D3F8
:103E100000F063FA00F070FA70BD2DE9F04105463C
:103E200000262C460027FCF7A7F92046FFF7A9FF3C
:103E3000012826D166480068F0B96249E06A09683D
:103E4000C96A884201D3012000E000200646201DF7
:103E5000FFF784FC5D49E06A0968884202D95B4942
:103E6000E06A0860E16A01EB8101574A02EB8100D8
:103E7000211DFFF74BFC04E004F118015948FFF73E
:103E800045FCFCF780F93046BDE8F081704700BF83
:103E9000FFF7FCFF4C4800680128F9D900F01DFA33
:103EA000F6E71FB5002000900190029003468022A3
:103EB0004DA103904E48FFF7C3FC0446012C09D1E5
:103EC000FCF75AF901204549086000203C49086088
:103ED00000F0EDF91FBD10B5FCF74EF900203F4989
:103EE000086000F0F9F910BD10B500F0FCF9344895
:103EF000046800F001FA204610BD70B50025FCF7FB
:103F00003BF92F480468FCF73EF9204670BD344861
:103F10000068704770B506460C462A48016818319B
:103F20003046FFF701FC27480068001DFFF716FC2C
:103F3000601C30B923480168091D2748FFF7E6FBDC
:103F400005E01F48006805192846FFF7C1FD70BD50
:103F500070B50646F068C46804F11800FFF7FEFB70
:103F60001B480068A0B9201DFFF7F8FB1749E06A5D
:103F70000968884202D91549E06A0860E16A01EBE4
:103F80008101114A02EB8100211DFFF7BFFB04E014
:103F900004F118011348FFF7B9FB0A49E06A096800
:103FA000C96A884201D3012500E00025284670BD7A
:103FB00010490968016002490968416070470000C2
:103FC0004C0000203C000020300400205400002061
:103FD0005C00002064000020BC0400205800002089
:103FE00048000020A804002049444C45000000007F
:103FF0008F3E00086800002070B504460D4600F0B2
:1040000072F92868401C08B900261FE05149206851
:104010000968884206D0504960680968884201D81A
:10402000012613E04C4960680968081A296888422B
:104030000BD22868484A61681268511A401A2860F1
:104040002046FFF7B5FF002600E0012600F054F9F6
:10405000304670BD0120414908607047014600208C
:1040600002E0491C421C90B20A78A52AF9D08008C7
:1040700070472DE9F041044614B93948006800E062
:10408000204607463D6B2846FFF7E8FF06463046C8
:10409000BDE8F08132490868704770B505462C4686
:1040A0002F49E06A0968C96A88422FD22C48006803
:1040B000C06AC0F10400A061E16A01EB8101294AF4
:1040C00002EB81016069884201D1012000E00020FB
:1040D000C0B1201DFFF742FB21480068C06AE062C2
:1040E0002149E06A0968884202D91F49E06A0860EC
:1040F000E16A01EB81011B4A02EB8100211DFFF700
:1041000005FB03E016480068C06AE06270BD70B548
:1041100005462C46EDB1616CE06A884219D0201D3D
:10412000FFF71CFB606CE062E06AC0F10400A06174
:104130000D49E06A0968884202D90B49E06A0860C3
:10414000E16A01EB8101074A02EB8100211DFFF7C3
:10415000DDFA70BD680000204C00002064000020E3
:104160003C00002030040020540000202DE9F041E4
:1041700004464FF00008FFF7CAFC3D48006898B9B4
:104180003C493D4A1160002151604FF4C0513B4A07
:1041900051600021116037484FF4C0514160114611
:1041A000016001203249086044B1103404F0070076
:1041B00020B104F00700C0F108000444002C31D005
:1041C000B4F5C05F2ED22C4F3846056801E02F466B
:1041D0002D686868A04202D228680028F7D12748D5
:1041E00085421FD0386800F1100828683860686878
:1041F000001B202810D92E196868001B70606C60A5
:1042000071681D4800E00068026852688A42FAD36B
:1042100002683260066000BF194968680968081AB8
:1042200017490860FFF7F6FB4046BDE8F08170B51E
:1042300006463546B6B1103D2C46FFF768FC61686E
:104240000D4800E00068026852688A42FAD30268AA
:10425000226004600A4960680968084408490860E7
:10426000FFF7D8FB70BD0648006870477047000034
:1042700088000020D0040020740000207C00002072
:1042800084000020001F4FF080730360001F016056
:10429000001F00230360143802602038704747F67F
:1042A000FF404FF0E021486107200861704710B5DA
:1042B0001E48006840F47F001C49086008460068FA
:1042C00040F07F400860FFF7EAFF002018490860CF
:1042D000FBF72AFF002010BD70474FF080501349B4
:1042E0001C390860704710B5FBF746FF104800689E
:1042F000401C0F49086010BD10B50D480068401EF5
:104300000B4908600846006808B9FBF73CFF10BD80
:1043100010B54FF0805005491C3908600024FBF7A8
:104320002BFFFFF705FBFBF72EFF10BD20ED00E094
:104330008C000020D2B201E000F8012B491EFBD214
:1043400070470022F6E710B513460A4604461946A0
:10435000FFF7F0FF204610BD10B5044604E00B78CF
:1043600000F8013B03B1491C521EF8D2204610BD93
:10437000421C10F8011B0029FBD1801A704730B590
:104380000B46014600202022012409E021FA02F513
:104390009D4205D303FA02F5491B04FA02F52844AD
:1043A000151EA2F10102F1DC30BD2DE9F05F0546DA
:1043B000002092469B4688460646814640241BE0E4
:1043C000284641464746224600F0F5F953465A46EC
:1043D000C01A914110D311461846224600F0DCF96C
:1043E0002D1A67EB01084F4622460120002100F0FC
:1043F000D3F917EB00094E41201EA4F10104DFDCC4
:10440000484631462A464346BDE8F09F2DE9FE4F17
:10441000804681EA0300C00F0C46009021F0004165
:1044200023F00045B8EB0200A94105D240462146E1
:1044300090461C460B46024623F00040104347D0EE
:10444000270DC7F30A00C3F30A510290401A0190E6
:1044500040286BDAC3F3130040F4801B00989246A7
:1044600020B10023D2EB030A63EB0B0B01985946F2
:10447000C0F14002504600F08FF906460D46504606
:104480005946019A00F0A7F910EB08006141002499
:1044900087EA115284EAE7731A4340D0009A62B364
:1044A000019A012A4FEA075215DC001B61EB020159
:1044B0004FF0004202EA0752CDE90042001C41F5EC
:1044C000801132462B4600F0A5F903B0BDE8F08F0D
:1044D00040462146F9E7001B61EB0201001C41F553
:1044E000801300185B412018A2F5001747EB030169
:1044F00040EAD570B6196D4111E06D084FEA3606F5
:1045000045EAC0754FEA0752001B61EB0201001C2F
:1045100041F5801149084FEA3000001951413246F7
:104520002B4603B0BDE8F04F00F067B900980122B8
:1045300040000023D0EB020263EBE07300982146B9
:104540004FEAE074B8EB000061EB0401E9E783F0A7
:1045500000435BE781F0004158E72DE9FE4F81EA17
:10456000030404F0004421F0004100944FF0000BDC
:1045700023F0004350EA01045ED052EA03045BD00A
:10458000C3F30A54C1F30A552C44A4F2F334019442
:10459000A0FB0254C1F3130141F48011C3F31303D0
:1045A00043F4801301FB024400FB034E840A970A84
:1045B00044EA815447EA8357A4FB076802958D0AB1
:1045C00005FB07854FEA932C04FB0C542705029D3D
:1045D0004FEA065847EA1637B5EB08056EEB070CAD
:1045E000870E920E47EA811742EA8312A7FB020167
:1045F000B6EB0B0164EB00042B0D43EA0C335E18A1
:1046000044EB1C50DA465146E7FB0201C5F31304A4
:104610004FEA0B3343EA14534FEA0432019C43EA56
:104620000603A4F10C040294009CCDE900B400F050
:10463000F1F803B0BDE8F08F00200146F9E72DE95D
:10464000F04D81EA030404F0004B21F000451446CC
:104650004FF0000A23F0004150EA050220D054EA4E
:1046600001021DD0C5F30A570246C5F31303C1F377
:104670001300C1F30A5640F4801543F48013A7EBEE
:104680000608101BD64608F2FD3873EB050002D36E
:1046900008F1010801E092185B41B8F1000F03DA5C
:1046A00000200146BDE8F08D00204FF48011064641
:1046B00084460EE0171B73EB050705D3121B63EB53
:1046C000050306434CEA010C49084FEA30009218F2
:1046D0005B4150EA0107EDD152EA030012D082EAB1
:1046E000040083EA0501084305D0101BAB4106D244
:1046F0000122002306E000224FF0004302E06FF0A9
:10470000010253101AEB06004CEB085110EB0A00A3
:1047100041EB0B01BDE8F04D00F06FB8C1F30A5258
:10472000C1F3130140F2FF3341F480119A4202DADF
:1047300000200146704740F233439A42A2F23342CE
:1047400002DC524200F037B800F026B830B500293C
:1047500004DB4FF00044404264EB0101002B04DB1A
:104760004FF00044524264EB0303994208BF904269
:1047700030BD0000064C074D06E0E06840F0010344
:1047800094E8070098471034AC42F6D3FBF7B6FC28
:10479000F45B0008145C0008202A04DB203A00FACD
:1047A00002F1002070479140C2F1200320FA03F388
:1047B000194390407047202A04DB203A21FA02F086
:1047C0000021704721FA02F3D040C2F1200291404B
:1047D000084319467047202A06DBCB17203A41FAD6
:1047E00002F043EAE07306E041FA02F3D040C2F17E
:1047F0002002914008431946704710B5002B08DA93
:10480000401C41F1000192185B411A4301D120F094
:10481000010010BD2DE9F04D92469B4611B1B1FA51
:1048200081F202E0B0FA80F220329046FFF7B4FF46
:1048300004460F4640EA0A0041EA0B0153465A4635
:10484000084313D0114653EA010019D0C8F14002C1
:104850005046FFF7B0FF05460E46504659464246C1
:10486000FFF79AFF084305D0012004E020463946AF
:10487000BDE8F08D0020054346EAE0762C4337433F
:104880000A986305E40AA0EB08000022FD0A44EA46
:1048900047540A3002D500200146E9E70105101906
:1048A0006941DDE9084500196941BDE8F04DA4E71B
:1048B00037B514460846064B6A46214600F0CCF848
:1048C00004466946002000F05EFC20463EBD000024
:1048D0008751000802E008C8121F08C1002AFAD157
:1048E00070477047002001E001C1121F002AFBD170
:1048F000704700002DE9FF5FDDE90220010DDDF8C2
:1049000038B0024318D044F61050A1F2FF314143B1
:104910000D140F98012820D0A5EB0B00401C5FEA76
:10492000000A4FF00004474EDFF81C91A0465046A5
:1049300016D5CAF1000728E00F98012443A20128E8
:1049400008D0002100980F9BC0E90021C0E9024374
:10495000BDE8FF9F6FEA0B01F4E7CBF10000DEE753
:10496000074612E0F80707D022463346404649463C
:10497000FFF7F3FD80468946224633461046194626
:10498000FFF7EBFD04460E467F10002FEAD1DDE96C
:104990000201BAF1000F42464B4602DAFFF7DDFD95
:1049A00001E0FFF74CFE04460E460022284BFFF7BD
:1049B000CDFE03D84FF0FF30014607E00022254B23
:1049C00020463146FFF722FDFFF7A8FE102409E03C
:1049D000002C0ADB0A220023FFF7E7FC019B3032A0
:1049E0001A55641E50EA0102F2D1641C019AC4F106
:1049F000110314440F9A012A03D0012208430DD158
:104A00000AE0084304D000204FF0110B0F9080E71C
:104A1000A3EB0B056D1E0DE05B4504DD4FF00002BE
:104A200005F1010504E003DA4FF00002A5F10105EC
:104A3000002AECD000980F99C0E90231C0E9004586
:104A400086E70000000024400000F03F3000000036
:104A50000000F0430000E03F2DE9FF4F95B09B467A
:104A60008946064600250FE2252877D100242746EF
:104A7000F84A0121059400E0044316F8013F203B69
:104A800001FA03F01042F7D130782A2811D06FF0E4
:104A90002F033078A0F13002092A16D8059A44F085
:104AA000020402EB820203EB42021044761C0590E2
:104AB000EFE759F8042B0592002A03DA504244F438
:104AC0000054059044F00204761C30782E2816D14C
:104AD00016F8010F44F004042A280DD06FF02F02BD
:104AE0003078A0F13003092B09D807EB870302EBDC
:104AF0004303C718761CF3E759F8047B761C30781B
:104B00006C280FD006DC4C2817D068280DD06A28F6
:104B100014D104E0742810D07A280FD10DE044F4A9
:104B200000140AE044F4801401E044F44014727864
:104B3000824202D104F58014761C761C30786628F7
:104B40000BD013DC582877D009DC002875D0452815
:104B5000F6D04628F4D047281AD19DE118E0632802
:104B600035D0642879D0652812D195E1702873D0AA
:104B700008DC6728F1D069286FD06E280DD06F2827
:104B800006D1B5E073282CD0752875D0782874D05C
:104B90005A46179990476D1C75E1C4F302500228DC
:104BA00009D003280DD0D9F8001004280DD00D60CD
:104BB00009F1040967E1D9F80010EA17C1E90052C8
:104BC000F6E7D9F800100D80F2E70D70F0E719F85C
:104BD000041B8DF8001000208DF80100EA4601202A
:104BE00003E059F804AB4FF0FF3061074FF00001CC
:104BF00002D40DE008F101018846B9420FDA804580
:104C0000F8DB1AF808100029F4D108E008F10101D6
:104C100088468142FADB1AF808100029F6D1059877
:104C20005B46A0EB080721463846179A00F094FA35
:104C3000284400EB080507E04DE029E10DE01AF8F3
:104C4000010B5A4617999047B8F10108F7D25B4615
:104C500021463846179A13E142E00A220092C4F333
:104C600002524FF0000A022A08D059F804CB032A56
:104C70004FEAEC710AD00DE029E02AE009F10701C2
:104C800021F00702F2E802C1914609E00FFA8CFC1C
:104C90004FEAEC71042A03D14FFA8CFC4FEAEC7115
:104CA000002907DA0A460021DCF1000C61EB020161
:104CB0002D2202E0220504D52B228DF804200122AA
:104CC00003E0E20701D02022F7E7904659E00A21ED
:104CD00002E010220DE010214FF0000A00910BE0DD
:104CE00010224FF0000A44F004040827009203E069
:104CF00008224FF0000A0092C4F30252022A05D0A3
:104D000059F804CB0021032A08D009E009F1070172
:104D100021F00702F2E802C1914605E01FFA8CFC7F
:104D2000042A01D10CF0FF0C4FF00008220728D50F
:104D3000702806D0009B83F0100353EA0A0305D0C5
:104D40000EE040228DF80420012208E05CEA010216
:104D500006D030228DF804208DF8050002229046FE
:104D6000009B83F0080353EA0A030AD15CEA0102BC
:104D700001D1620705D530228DF804204FF00108DB
:104D80007F1E582804D034A003900EA802900DE096
:104D900036A0F9E753466046009AFFF706FB8446C3
:104DA0000398825C0298401E029002705CEA010047
:104DB000F0D1029806A9081A00F1200A600702D56E
:104DC00024F4803400E00127574502DDA7EB0A00F8
:104DD00000E0002000EB0A01009005984144401AD1
:104DE0000590E00306D45B462146179A059800F02B
:104DF000B3F90544002706E001A85A46C05D17999B
:104E000090476D1C7F1C4745F6DBE0030CD55B46E5
:104E10002146179A059800F09FF9054404E03020D8
:104E20005A46179990476D1C0099481E009000291A
:104E3000F5DC08E0029802995A460078491C029174
:104E4000179990476D1CBAF10001AAF1010AF1DC33
:104E500065E100000928010030313233343536373E
:104E600038396162636465660000000030313233B6
:104E70003435363738394142434445460000000056
:104E800000F058F90544761C307800287FF4ECAD2A
:104E900019B02846BDE8F08F620700D4062709F153
:104EA000070222F0070CFCE80223E14603F0004869
:104EB0005FEA080C02D00FF2702C0DE05FEA045C90
:104EC00002D50FF2682C07E05FEAC47C02D00FF233
:104ED000602C01E0AFF2700C4FF0FF3823F000437C
:104EE000CDF850C065280CD006DC452809D04628EE
:104EF0001DD047283DD13DE0662818D067287ED1D7
:104F000038E00021112F01DB112000E0781CCDE9F1
:104F1000000106A90EA8FFF7EDFCDDE90F010E9ACE
:104F200003910021009207F1010A04914DE04FF036
:104F300000400097CDE9011006A90EA8FFF7DAFCA2
:104F4000DDE90F0203920E9B11990022DDF80CA0FF
:104F50000093049211B9791C00EB010AB7EB0A0027
:104F600004D4C0F1FF3007F1010A0490AAEB070056
:104F7000019044E0012F00DA01270021112F01DD0B
:104F8000112000E03846CDE9000106A90EA8FFF780
:104F9000B1FCDDE90F010E9A03910021049100920A
:104FA000BA4621070CD40399514500DA8A46BAF172
:104FB000010F05DD009AAAF10101515C302908D0EA
:104FC000B84202DA10F1040F06DA0121CDE901102E
:104FD00015E0AAF10101E9E7002805DC0499014484
:104FE0000491AAEB000102E0411C514500DD8A4614
:104FF0000499401A401C01904FF000400290200795
:1050000004D40198504501DBCDF8048000208DF8D0
:105010004F0002980DF14F07B0F1004F25D02B2023
:105020000E9002984FF0020800280CDA40420290DD
:105030002D200E9007E00A210298FFF7A0F93031E9
:10504000029007F8011DB8F10001A8F10108F2DC97
:1050500002980028EFD1791E0E980870307800F081
:10506000200040F0450007F8020D12A8C01B00F117
:1050700007081498007800B1012000EB0A0101989C
:1050800001EBE07105984144401A401E0590E00391
:1050900006D45B462146179A059800F05DF8054452
:1050A0001498007818B15A46179990476D1CE00380
:1050B00024D55B462146179A059800F04DF8054423
:1050C0001CE00498002807DBDDE90301884203DDCA
:1050D0000098405C179901E0179930205A46904794
:1050E000049805F10105401C04900198401E0190B0
:1050F00004D12E205A46179990476D1CBAF1000131
:10510000AAF1010ADDDC05E017F8010B5A461799F0
:1051100090476D1CB8F10001A8F10108F4DC5B4672
:105120002146179A0598ABE62D0000002B000000E1
:10513000200000002DE9F041044600251E461746D8
:10514000880404D405E039462020B0476D1C641E55
:10515000F9D52846BDE8F0812DE9F0410446002547
:105160001E469046C80301D5302700E0202788045A
:1051700004D505E041463846B0476D1C641EF9D59C
:105180002846BDE8F0810A68531C0B601070704718
:10519000000000000000000000000000000000000F
:1051A0003F400000000000000000300040003000E0
:1051B0004000000009000BC03D000BC03D0009008D
:1051C00018C024407FE0224031800000180024C035
:1051D0001B000D803240018003801C4027401C8052
:1051E00007400040100060000000000000000000C8
:1051F0000000000000001F802040402000004020F0
:1052000020401F8000000000090006001F800600EB
:1052100009000000040004003F80040004000000B6
:105220000010006000000000000000000400040006
:105230000400040004000000000000400000000022
:1052400000000000002001C00600380040000000FF
:105250001F802040204020401F80000000001040A0
:105260003FC000400000000018C021402240244000
:105270001840000010802040244024401B80000083
:1052800002000D0011003FC0014000003C8024409E
:1052900024402440238000001F80244024403440C8
:1052A000038000003000200027C0380020000000EC
:1052B0001B802440244024401B8000001C0022C08E
:1052C000224022401F800000000000000840000033
:1052D000000000000000000004600000000000006A
:1052E000000004000A00110020804040090009006D
:1052F0000900090009000000000040402080110062
:105300000A000400180020002340240018000000B8
:105310001F802040274029401F400000004007C058
:1053200039000F0001C0004020403FC0244024400D
:105330001B8000001F802040204020403080000063
:1053400020403FC0204020401F80000020403FC040
:1053500024402E4030C0000020403FC024402E009A
:10536000300000000F0010802040224033800200F7
:1053700020403FC0040004003FC0204020402040A7
:105380003FC02040204000000060202020203FC07F
:105390002000200020403FC024400B0030C02040AF
:1053A00020403FC020400040004000C03FC03C00C3
:1053B00003C03C003FC0000020403FC00C40230021
:1053C0003FC020001F802040204020401F80000060
:1053D00020403FC024402400180000001F802140CE
:1053E000214020E01FA0000020403FC024402600B4
:1053F00019C0004018C024402440224031800000E1
:10540000300020403FC020403000000020003F809E
:10541000004000403F80200020003E0001C0070007
:1054200038002000380007C03C0007C038000000EA
:10543000204039C0060039C020400000200038401C
:1054400007C0384020000000304021C026403840CE
:1054500020C00000000000007FE04020402000004D
:10546000000070000C00038000400000000040209D
:1054700040207FE0000000000000200040002000ED
:1054800000000000001000100010001000100010BC
:10549000000000004000000000000000000002804A
:1054A0000540054003C0004020003FC004400440C8
:1054B0000380000000000380044004400640000018
:1054C00000000380044024403FC0004000000380EF
:1054D0000540054003400000000004401FC0244078
:1054E00024402000000002E0055005500650042032
:1054F00020403FC00440040003C0004000000440BE
:1055000027C000400000000000100010041027E039
:105510000000000020403FC00140070004C00440DC
:10552000204020403FC000400040000007C0040071
:1055300007C0040003C00000044007C0044004008A
:1055400003C00040000003800440044003800000CA
:10555000041007F0045004400380000000000380A2
:105560000440045007F00010044007C0024004004B
:1055700004000000000006400540054004C0000093
:10558000000004001F800440004000000400078069
:105590000040044007C000400400070004C0018030
:1055A00006000400060001C0070001C0060000005C
:1055B000044006C0010006C00440000004100710AB
:1055C00004E00180060004000000044005C006401D
:1055D000044000000000000004007BE040200000C8
:1055E000000000000000FFF000000000000040206C
:1055F0007BE004000000000040008000400020002C
:10560000200040000000000000000000000000003A
:10561000000000000000000000001FCC000C000093
:1056200000000000000008003000600008003000AA
:1056300060000000022003FC1E20022003FC1E204C
:105640000220000000000E1811043FFF10840C78A7
:10565000000000000F0010840F3800C00778188485
:105660000078000000780F8410C411240E9800E424
:1056700000840008080068007000000000000000BE
:105680000000000000000000000007E018182004DF
:1056900040020000000040022004181807E000004B
:1056A000000000000240024001800FF00180024033
:1056B000024000000080008000800FF80080008021
:1056C000008000000001000D000E0000000000003E
:1056D000000000000000008000800080008000804A
:1056E000008000800000000C000C000000000000A2
:1056F00000000000000000060018006001800600A5
:1057000018002000000007F0080810041004080822
:1057100007F000000000080408041FFC0004000457
:105720000000000000000E0C10141024104411841E
:105730000E0C000000000C18100411041104128853
:105740000C700000000000E00320042408241FFC6B
:105750000024000000001F98108411041104108818
:1057600010700000000007F0088811041104188868
:105770000070000000001C00100010FC13001C0052
:105780001000000000000E381144108410841144F1
:105790000E38000000000700088C104410440888F0
:1057A00007F00000000000000000030C030C0000E4
:1057B00000000000000000000001010600000000E1
:1057C00000000000000000800140022004100808D2
:1057D00010040000022002200220022002200220E9
:1057E00002200000000010040808041002200140FC
:1057F0000080000000000E001200100C106C1080E1
:105800000F00000003E00C1813E4142417C4082848
:1058100007D000000004003C03C41C40074000E423
:10582000001C000410041FFC1104110411040E8854
:105830000070000003E00C1810041004100410089D
:105840001C10000010041FFC1004100410040808B1
:1058500007F0000010041FFC1104110417C4100409
:105860000818000010041FFC1104110017C01000DC
:105870000800000003E00C181004100410441C7809
:105880000040000010041FFC108400800080108481
:105890001FFC10040000100410041FFC100410046E
:1058A0000000000000030001100110011FFE1000A5
:1058B0001000000010041FFC110403801464181C65
:1058C0001004000010041FFC100400040004000475
:1058D000000C000010041FFC1F0000FC1F001FFC38
:1058E0001004000010041FFC0C04030000E010185A
:1058F0001FFC100007F0080810041004100408082A
:1059000007F0000010041FFC10841080108010802D
:105910000F00000007F0081810241024101C080ABB
:1059200007F2000010041FFC1104110011C0113017
:105930000E0C000400000E1C11041084108410448E
:105940001C3800001800100010041FFC1004100088
:105950001800000010001FF81004000400041004D8
:105960001FF8100010001E0011E0001C00701380D2
:105970001C0010001FC0103C00E01F0000E0103CA5
:105980001FC000001004180C163401C001C01634EA
:10599000180C100410001C00130400FC13041C005D
:1059A000100000000804101C1064108413041C0470
:1059B000101800000000000000007FFE40024002BE
:1059C00040020000000030000C0003800060001C5A
:1059D0000003000000004002400240027FFE000081
:1059E00000000000000000002000400040004000D7
:1059F0002000000000010001000100010001000181
:105A000000010001000040004000200000000000F4
:105A100000000000000000980124014401440144FA
:105A200000FC000410001FFC008801040104008831
:105A300000700000000000700088010401040104EF
:105A400000880000000000700088010401041108B3
:105A50001FFC0004000000F801440144014401441B
:105A600000C800000000010401040FFC110411042F
:105A700011001800000000D601290129012901C9DF
:105A80000106000010041FFC008401000100010455
:105A900000FC000400000104190419FC00040004C7
:105AA000000000000000000300010101190119FEBF
:105AB0000000000010041FFC0024004001B4010C91
:105AC000010400000000100410041FFC0004000486
:105AD00000000000010401FC0104010001FC0104BC
