:020000040800F2
:1000000040060020090100088D0100088F0100084A
:1000100093010008970100089B0100080000000000
:100020000000000000000000000000009F01000828
:10003000A101000800000000A3010008A5010008BC
:100040002301000823010008230100082301000800
:1000500023010008230100082301000823010008F0
:1000600023010008230100082301000823010008E0
:1000700023010008230100082301000823010008D0
:1000800023010008230100082301000823010008C0
:1000900023010008230100082301000823010008B0
:1000A00023010008230100082301000823010008A0
:1000B0002301000823010008230100082301000890
:1000C0002301000823010008230100082301000880
:1000D0002301000823010008230100082301000870
:1000E0002301000823010008230100082301000860
:1000F00023010008DFF80CD000F08EFF0048004715
:100100002D010008400600200648804706480047A9
:10011000FEE7FEE7FEE7FEE7FEE7FEE7FEE7FEE7B7
:10012000FEE7FEE773090008F500000808B500F0D7
:1001300070FD1020022319220021009000F000FF22
:1001400010A21021002000F045FF00F00DFD20243A
:1001500016E001201023224619460090302000F0BE
:100160008AFE00F001FD601CC4B27E2C00DD20245C
:1001700010200323224601460090672000F0E0FE95
:10018000E7E700004348415200000000704700BF0D
:10019000FEE700BFFEE700BFFEE700BFFEE77047D7
:1001A000704770477047000010B504468548844288
:1001B00008D10121084600F0BCFA0021012000F01E
:1001C000B8FA52E08048844208D10121022000F0B0
:1001D000B0FA0021022000F0ACFA46E07B488442ED
:1001E00008D10121042000F0A4FA0021042000F02D
:1001F000A0FA3AE07648844208D10121082000F0B4
:1002000098FA0021082000F094FA2EE07148844208
:1002100008D10121102000F08CFA0021102000F0FC
:1002200088FA22E06C48844208D10121402000F085
:1002300080FA0021402000F07CFA16E067488442F2
:1002400008D10121802000F074FA0021802000F004
:1002500070FA0AE06248844207D10121202000F0B0
:1002600068FA0021202000F064FA10BDF0B50A46BB
:1002700000210023002400BF3DE0012505FA01F321
:10028000156805EA03049C4234D105684F00032633
:10029000BE40B543056015794E00B540066835434C
:1002A00005601579012D02D01579022D16D18568CA
:1002B0004F000326BE40B543856055794E00B540DA
:1002C000866835438560858801268E40B5438580E4
:1002D000858896798E40B6B235438580C5684F00D3
:1002E0000326BE40B543C560D5794E00B540C6680B
:1002F0003543C560491C1029BFD3F0BD4FF6FF71CF
:1003000001600021017141718171C171704708B5AF
:100310004FF480320092009A0A430092009AC26120
:10032000C161009AC261C2690092C269009208BDAF
:1003300002460020138A0B4201D0012000E0002079
:1003400070470146088A704702460020938A0B4294
:1003500001D0012000E0002070470146888A7047E4
:1003600001837047418370470AB1018300E04183F4
:10037000704781827047828A4A4082827047F0B516
:10038000002300244D07ED0E02FA05F3CE1000F114
:10039000200555F826504E07F70E0F26BE40B543F0
:1003A000CF1000F1200646F82750CE1000F12005AE
:1003B00055F8265045EA0304CE1000F1200545F813
:1003C0002640F0BD00000240000402400008024048
:1003D000000C02400010024000180240001C0240C5
:1003E00000140240F948006840F48070F749086042
:1003F000F64808300068F6490840F44908310860BA
:10040000F2480068F3490840F0490860084600686F
:1004100020F480200860ED480830006820F47D005A
:10042000EA49083108600020091D08607047002172
:10043000E64A921C117011460870704710B50146CB
:100440000022002300204A11012A02D1DF4C236838
:1004500002E0DE4C3434236801F01F020124944092
:100460001C4201D0012000E0002010BD38B5002062
:1004700000900024002500BF3120FFF7DFFF054674
:100480000098401C00900098B0F5A06F01D0002D9E
:10049000F2D03120FFF7D2FF08B1012400E00024A0
:1004A000204638BDC949C91D087070470146002063
:1004B000C64A121D106820F460400843106070475F
:1004C000C5490862704701460020C04A121D1068E5
:1004D00020F4F85040EA012010607047BE490860DF
:1004E00070470021B94A35321170114608707047C3
:1004F000BA490860704710B541EA02030343B34CA0
:100500000A34237010BDB44908667047B2490867C1
:100510007047B2492C310860704740EA0102AB4B8A
:100520000B331A70704701460020A84A0832106841
:1005300020F00300084310607047A44808300068AA
:1005400000F00C00704701460020A04A08321068F5
:1005500020F0F000084310607047014600209B4ADD
:100560000832106820F4E0600843106070470146CC
:100570000020964A0832106820F4605040EAC1001A
:1005800010607047F0B500210022002300260024EF
:1005900000258E4F08373F6807F00C0131B1042960
:1005A00012D0082913D00C2937D113E0874F3F1DF3
:1005B0003F68C7F342356F1C4FF0010C0CFA07FC83
:1005C0004FEACC37076036E0854F076033E0854F50
:1005D000076030E07D4F08373F6807F470127B4FAB
:1005E00008373F6807F440037F4F07EB92473A789C
:1005F000012707EB9353754F08373F6807F48036A0
:100600002EB9774F5743B7FBF3F7076004E0754FF8
:100610005743B7FBF3F707600DE06C4F3F1D3F6892
:10062000C7F342356F1C4FF0010C0CFA07FC4FEA80
:10063000CC37076000BF00BF644F08373F6807F042
:10064000F0010909694F7C5C0768E74047605F4F2C
:1006500008373F6807F4E061090A644F7C5C47682B
:10066000E7408760594F08373F6807F46051C90A6F
:100670005E4F7C5C4768E740C760F0BD002100F436
:100680004032B2F5403F08D1504A116821F0C041D4
:1006900000F0C04211434D4A11604C4A3432126896
:1006A00022F44032494B34331A601A46126800F47F
:1006B00040331A43454B34331A6070474749583129
:1006C0000860704745495C310860704739B13F4A5E
:1006D0001C32126802433D4B1C331A6006E03B4A51
:1006E0001C3212688243394B1C331A60704739B18F
:1006F000364A203212680243344B20331A6006E037
:10070000324A203212688243304B20331A607047DD
:1007100039B12E4A2432126802432C4B24331A601A
:1007200006E02A4A243212688243284B24331A6096
:10073000704739B1254A103212680243234B1033F7
:100740001A6006E0214A1032126882431F4B1033B0
:100750001A60704739B11D4A1432126802431B4BAC
:1007600014331A6006E0194A143212688243174B98
:1007700014331A60704739B1144A183212680243B0
:10078000124B18331A6006E0104A1832126882437E
:100790000E4B18331A60704739B10C4A2832126870
:1007A00002430A4B28331A6006E0084A28321268CE
:1007B0008243064B28331A607047C9B1034A2C3272
:1007C00012680243014B2C331A6016E000380240D5
:1007D0000CC0FF88FEFFFEEE000047428006474245
:1007E0000024F40000127A0000000020090000201C
:1007F0001F4A126882431E4B1A60704739B11C4A67
:10080000121D126802431A4B1B1D1A6006E0184A9B
:10081000121D12688243164B1B1D1A60704739B1B6
:10082000134A1F3A12780243114B1F3B1A7006E01D
:100830000F4A1F3A127882430D4B1F3B1A707047C4
:100840000B480830006840F08070094908310860A2
:10085000704701460020064A203A12680A4201D039
:10086000012000E00020704701491E3908707047E0
:100870002C3802400CB5002001900090864800689A
:1008800040F480308449086000BF8348006800F469
:10089000003000900198401C0190009818B9019810
:1008A000B0F5A06FF1D17C48006810F4003F02D091
:1008B0000120009001E0002000900098012857D10D
:1008C0007648006840F004007449086008460068F3
:1008D00040F0020008600846006840F0010008602F
:1008E0006D482430006840F080506B492431086026
:1008F000C8146B49086000BF6948406810F0100FC9
:10090000FAD1654808300068634908310860084634
:10091000006808600846006808600846006820F41F
:100920007D0008600846006840F4110008605A48DD
:10093000006840F080705849086000BF5648006861
:1009400010F0007FFAD054480830006820F003000F
:100950005149083108600846006840F0030008600B
:1009600000BF4D480830006800F00C000C28F8D19A
:100970000CBD10B54848006840F4807046490860D6
:100980004548083000684749084043490831086035
:1009900041480068444908403F49086008460068EB
:1009A00020F4802008603C480830006820F47D0076
:1009B0003949083108600020091D0860FFF75AFF17
:1009C0004FF000603949086010BD70B5002200206A
:1009D000002100240023304D08352D6805F00C025D
:1009E00032B1042A10D0082A12D00C2A39D113E0CF
:1009F000294D2D1D2D68C5F342335D1C0126AE40E7
:100A0000F5032B4E356038E02A4D294E356034E031
:100A1000294D274E356030E01F4D08352D6805F40F
:100A200070101D4D08352D6805F44001234D05EB70
:100A300090452878012505EB9151174D08352D6813
:100A400005F4803434B91B4D4543B5FBF1F5184E20
:100A5000356005E0184D4543B5FBF1F5144E3560A2
:100A60000BE00D4D2D1D2D68C5F342335D1C012695
:100A7000AE40F5030E4E356000BF00BF064D083591
:100A80002D68C5F303150E4E725D094D2D68D540D6
:100A9000074E356070BD000000380240003C024047
:100AA000007000400CC0FF88FEFFFEEE08ED00E085
:100AB0001C0000200024F40000127A002000002016
:100AC0002900002010B50121FA48FFF749FC022156
:100AD000F848FFF745FC0121F648FFF743FC0221E7
:100AE000F448FFF73FFC10BD10B50121F148FFF7B6
:100AF00039FC0221EF48FFF733FC0121ED48FFF7F5
:100B00002FFC10BD10B50121EA48FFF72BFC022194
:100B1000E848FFF725FC0221E648FFF723FC10BD5B
:100B200070B5044608250221E248FFF71BFC15E0DA
:100B300014F0800F04D00121DE48FFF711FC03E020
:100B40000121DC48FFF70EFC0221DA48FFF708FC20
:100B50000221D848FFF706FC6006040E2800A5F124
:100B60000101CDB2E4D170BD70B5FFF7ABFF7820C5
:100B7000FFF7D6FFFFF7C6FF4020FFF7D1FFFFF7D3
:100B8000C1FF00240FE0002509E0CB4901EB8501FE
:100B9000085DFFF7C5FFFFF7B5FF681CC5B2802DE4
:100BA000F3DB601CC4B2042CEDDBFFF79DFF70BDCE
:100BB00070B500240CE0002506E00020BE4901EBE2
:100BC00085010855681CC5B2802DF6DB601CC4B2D7
:100BD000042CF0DBFFF7C8FF70BD70B505460C466E
:100BE000FFF770FF7820FFF79BFFFFF78BFF1CB923
:100BF0000020FFF795FF02E04020FFF791FFFFF78D
:100C000081FF2846FFF78CFFFFF77CFFFFF76CFFA3
:100C100070BD1CB501210320FFF758FD0120009095
:100C20008DF8040000208DF8060003208DF80500E3
:100C30006946A048FFF71AFB0220009001208DF8BA
:100C4000040000208DF8060003208DF80500694699
:100C50009848FFF70BFB8020009001208DF80400DE
:100C600000208DF8060003208DF8050069469348A2
:100C7000FFF7FCFA80219148FFF772FB01218D48B4
:100C8000FFF76EFB02218B48FFF76AFB80218B4840
:100C9000FFF768FB42F2107401E0601E84B2012C81
:100CA000FBDC80218548FFF75BFB0021AE20FFF7CE
:100CB00094FF0021D520FFF790FF00218020FFF74F
:100CC0008CFF0021A820FFF788FF00211F20FFF7DD
:100CD00084FF0021D320FFF780FF00210846FFF7A3
:100CE0007CFF00214020FFF778FF00218D20FFF7D7
:100CF00074FF00211420FFF770FF0021A120FFF7EF
:100D00006CFF0021C820FFF768FF0021DA20FFF701
:100D100064FF00210220FFF760FF00218120FFF720
:100D20005CFF00218F20FFF758FF0021D920FFF73B
:100D300054FF0021F120FFF750FF0021DB20FFF7D7
:100D40004CFF00214020FFF748FF0021A420FFF7BF
:100D500044FF0021A620FFF740FF00212020FFF7DD
:100D60003CFF00210846FFF738FF00212120FFF754
:100D700034FF00210846FFF730FF00217F20FFF7F6
:100D80002CFF00212220FFF728FF00210846FFF753
:100D900024FF00210320FFF720FF0021AF20FFF7F1
:100DA0001CFFFFF705FF1CBD10B500218D20FFF7CC
:100DB00014FF00211420FFF710FF0021AF20FFF7E0
:100DC0000CFF10BD10B500218D20FFF706FF00219C
:100DD0001020FFF702FF0021AE20FFF7FEFE10BD3E
:100DE000F0B5144600267F2801DC1F2900DDF0BD88
:100DF0000B46CF1701EB5777C7F3C702CF1701EBAD
:100E00005777FF10A1EBC707FDB20123AB40DEB25D
:100E10004CB1294B03EB80039B5C3343264F07EB1C
:100E20008007BB5408E0244B03EB80039B5CB34377
:100E3000214F07EB8007BB5400BFD8E72DE9F047EF
:100E400006460F4690469946DDF820A034460CE051
:100E50003D4606E0524629462046FFF7C1FF681C82
:100E6000C5B24D45F6DD601CC4B24445F0DDFFF768
:100E70007BFEBDE8F0872DE9F04F80460C46154615
:100E80001E46A346A5F12000C5B2002749E00C2E5E
:100E900007D105EB45000A4901EB800010F80790E7
:100EA00004E0084800EB051010F807904FF0000A26
:100EB00031E00000000402403C000020000002403D
:100EC0005A100008CE14000819F0800F05D02146F2
:100ED0004046099AFFF784FF09E0099808B9012004
:100EE00000E00020024621464046FFF779FF4FEA26
:100EF00049604FEA1069601CC4B2A4EB0B00B04219
:100F000005D15C4608F1010000F0FF0806E00AF197
:100F1000010000F0FF0ABAF1080FD5DB00BF781C12
:100F2000C7B2B742B3DBBDE8F08F10B5024601206F
:100F300000E050430B00A1F10104E1B2F9D110BD72
:100F40002DE9FF4F81B0074691461E460E9D4FF09A
:100F5000000A002439E0301B401EC1B20A20FFF70E
:100F6000E4FFB9FBF0F00A21B0FBF1F201FB12083B
:100F7000BAF1000F16D1701EA04213DDB8F1000FB8
:100F80000ED10120AB4605EBDB71491001FB04716A
:100F90000090C8B22B4620220299FFF76CFF12E0A6
:100FA0004FF0010A0120AB4605EBDB71491001FB54
:100FB00004710090C8B208F13001CAB22B46029900
:100FC000FFF759FF00BF601CC4B2B442C3DB05B0D9
:100FD000BDE8F08FF8B505460E46144618E07A2DA8
:100FE00003DD002506F11000C6B21A2E04DD002034
:100FF00005460646FFF7DCFD01200090227810230D
:1010000031462846FFF737FF05F10800C5B2641CDA
:1010100020780028E3D1F8BD064C074D06E0E068D3
:1010200040F0010394E8070098471034AC42F6D32F
:10103000FFF764F8C01A0008E01A000802E008C8C8
:10104000121F08C1002AFAD170477047002001E042
:1010500001C1121F002AFBD17047000000000000F0
:10106000000000000000000000003F400000000001
:101070000000000030004000300040000000090087
:101080000BC03D000BC03D00090018C024407FE0AC
:10109000224031800000180024C01B000D80324027
:1010A000018003801C4027401C8007400040100046
:1010B00060000000000000000000000000000000D0
:1010C0001F80204040200000402020401F80000062
:1010D0000000090006001F8006000900000004004F
:1010E00004003F80040004000000001000600000C5
:1010F00000000000000004000400040004000400DC
:10110000000000000040000000000000000000207F
:1011100001C006003800400000001F802040204031
:1011200020401F800000000010403FC00040000031
:10113000000018C0214022402440184000001080C8
:101140002040244024401B80000002000D001100BC
:101150003FC0014000003C802440244024402380C4
:1011600000001F80244024403440038000003000F1
:10117000200027C03800200000001B8024402440AD
:1011800024401B8000001C0022C0224022401F80FF
:101190000000000000000840000000000000000007
:1011A00000000460000000000000000004000A00CD
:1011B00011002080404009000900090009000900D1
:1011C000000000004040208011000A0004001800C8
:1011D000200023402400180000001F8020402740EA
:1011E00029401F400000004007C039000F0001C027
:1011F000004020403FC0244024401B8000001F804E
:101200002040204020403080000020403FC020404F
:1012100020401F80000020403FC024402E4030C0AE
:10122000000020403FC024402E00300000000F008E
:101230001080204022403380020020403FC0040044
:1012400004003FC02040204020403FC020402040BC
:1012500000000060202020203FC02000200020400F
:101260003FC024400B0030C0204020403FC0204001
:101270000040004000C03FC03C0003C03C003FC0F5
:10128000000020403FC00C4023003FC020001F80D2
:101290002040204020401F80000020403FC02440CC
:1012A0002400180000001F802140214020E01FA0E2
:1012B000000020403FC02440260019C0004018C054
:1012C00024402440224031800000300020403FC0B4
:1012D00020403000000020003F80004000403F8060
:1012E000200020003E0001C0070038002000380028
:1012F00007C03C0007C038000000204039C006008D
:1013000039C0204000002000384007C0384020008D
:101310000000304021C02640384020C000000000BE
:1013200000007FE0402040200000000070000C0022
:101330000380004000000000402040207FE00000CB
:10134000000000002000400020000000000000100D
:1013500000100010001000100010000000004000FD
:10136000000000000000000002800540054003C0AE
:10137000004020003FC00440044003800000000003
:101380000380044004400640000000000380044045
:1013900024403FC00040000003800540054003405A
:1013A0000000000004401FC0244024402000000032
:1013B00002E0055005500650042020403FC0044084
:1013C000040003C000400000044027C000400000AB
:1013D000000000100010041027E000000000204072
:1013E0003FC00140070004C00440204020403FC0EF
:1013F00000400040000007C0040007C0040003C014
:101400000000044007C00440040003C00040000086
:1014100003800440044003800000041007F00450DF
:10142000044003800000000003800440045007F0E3
:101430000010044007C00240040004000000000047
:1014400006400540054004C00000000004001F8065
:10145000044000400000040007800040044007C032
:1014600000400400070004C00180060004000600DC
:1014700001C0070001C006000000044006C00100D2
:1014800006C0044000000410071004E001800600BC
:1014900004000000044005C00640044000000000B5
:1014A000000004007BE0402000000000000000007D
:1014B000FFF000000000000040207BE0040000007E
:1014C000000040008000400020002000400000009C
:1014D000000000000000000000000000000000000C
:1014E000000000001FCC000C000000000000000005
:1014F000080030006000080030006000000002209A
:1015000003FC1E20022003FC1E200220000000001D
:101510000E1811043FFF10840C78000000000F002B
:1015200010840F3800C00778188400780000007815
:101530000F8410C411240E9800E4008400080800F1
:1015400068007000000000000000000000000000C3
:101550000000000007E0181820044002000000000E
:1015600040022004181807E00000000000000240BC
:10157000024001800FF00180024002400000008024
:10158000008000800FF800800080008000000001D3
:10159000000D000E00000000000000000000000030
:1015A00000800080008000800080008000800000BB
:1015B000000C000C00000000000000000000000013
:1015C00000060018006001800600180020000000DE
:1015D00007F0080810041004080807F000000000D5
:1015E000080408041FFC00040004000000000000C0
:1015F0000E0C10141024104411840E0C0000000076
:101600000C1810041104110412880C700000000062
:1016100000E00320042408241FFC00240000000034
:101620001F9810841104110410881070000000002D
:1016300007F00888110411041888007000000000E9
:101640001C00100010FC13001C0010000000000023
:101650000E3811441084108411440E38000000002C
:101660000700088C10441044088807F000000000B0
:1016700000000000030C030C00000000000000004C
:101680000000000101060000000000000000000052
:10169000008001400220041008081004000002200D
:1016A000022002200220022002200220000000006E
:1016B000100408080410022001400080000000000F
:1016C0000E001200100C106C10800F00000003E0E0
:1016D0000C1813E4142417C4082807D000000004D1
:1016E000003C03C41C40074000E4001C000410043C
:1016F0001FFC1104110411040E880070000003E0A7
:101700000C1810041004100410081C100000100421
:101710001FFC100410041004080807F00000100457
:101720001FFC1104110417C4100408180000100451
:101730001FFC1104110017C010000800000003E096
:101740000C181004100410441C7800400000100411
:101750001FFC10840080008010841FFC1004000017
:10176000100410041FFC100410040000000000030B
:101770000001100110011FFE1000100000001004F5
:101780001FFC110403801464181C100400001004D2
:101790001FFC1004000400040004000C00001004EE
:1017A0001FFC1F0000FC1F001FFC100400001004A1
:1017B0001FFC0C04030000E010181FFC100007F0D1
:1017C0000808100410041004080807F000001004B2
:1017D0001FFC10841080108010800F00000007F0A4
:1017E000081810241024101C080A07F20000100426
:1017F0001FFC1104110011C011300E0C0004000078
:101800000E1C11041084108410441C3800001800B1
:10181000100010041FFC100410001800000010003D
:101820001FF810040004000410041FF8100010003A
:101830001E0011E0001C007013801C0010001FC06F
:10184000103C00E01F0000E0103C1FC0000010042E
:10185000180C163401C001C01634180C1004100006
:101860001C00130400FC13041C00100000000804FA
:10187000101C1064108413041C04101800000000D5
:10188000000000007FFE4002400240020000000015
:1018900030000C0003800060001C0003000000000A
:1018A0004002400240027FFE0000000000000000F5
:1018B0000000200040004000400020000000000127
:1018C0000001000100010001000100010001000011
:1018D0004000400020000000000000000000000068
:1018E0000098012401440144014400FC000410005C
:1018F0001FFC008801040104008800700000000043
:101900000070008801040104010400880000000048
:10191000007000880104010411081FFC000400008D
:1019200000F8014401440144014400C800000000E3
:10193000010401040FFC110411041100180000003F
:1019400000D601290129012901C90106000010045E
:101950001FFC008401000100010400FC00040000E1
:101960000104190419FC0004000400000000000038
:10197000000300010101190119FE0000000010041C
:101980001FFC0024004001B4010C01040000000011
:10199000100410041FFC00040004000000000104F7
:1019A00001FC0104010001FC0104010000FC010430
:1019B00001FC008401000100010400FC000400009F
:1019C00000F8010401040104010400F80000010111
:1019D00001FF008501040104008800700000000080
:1019E0000070008801040104010501FF00010104E9
:1019F000010401FC008401040100018000000000DA
:101A000000CC0124012401240124019800000000DD
:101A10000100010007F801040104000000000100BA
:101A200001F8000400040004010801FC00040100A6
:101A300001800170000C001001600180010001F0C4
:101A4000010C003001C00030010C01F00100000069
:101A50000104018C00740170018C0104000001017B
:101A600001810171000E0018016001800100000079
:101A70000184010C013401440184010C00000000C8
:101A800000000000000001003EFC40024002000097
:101A9000000000000000FFFF000000000000000048
:101AA000400240023EFC0100000000000000000077
:101AB0006000800080004000400020002000000006
:101AC000E01A0008000000203C0000003C10000864
:101AD0001C1B00083C000020040600004C100008FD
:101AE000030406080C101820300000000001020357
:101AF0000401020304060708090000000048E80189
:101B0000030406080C10182030000000000000003C
:0C1B1000000102030406070809000000A1
:0400000508000109E5
:00000001FF
