:020000040800F2
:10000000301F002095010008650200086702000803
:100010006B0200086F020008730200080000000075
:1000200000000000000000000000000009010008BE
:1000300079020008000000003D010008051D0008CD
:10004000AF010008AF010008AF010008AF010008D0
:10005000AF010008AF010008AF010008AF010008C0
:10006000AF010008AF010008AF010008AF010008B0
:10007000AF010008AF010008AF010008AF010008A0
:10008000AF010008AF010008AF010008AF01000890
:10009000AF010008AF010008AF010008AF01000880
:1000A000AF010008AF010008AF010008AF01000870
:1000B000AF010008AF010008AF010008AF01000860
:1000C000AF010008AF010008AF010008AF01000850
:1000D000AF010008AF010008AF010008AF01000840
:1000E000AF010008AF010008AF010008AF01000830
:1000F000AF010008DFF80CD001F034FE00480047E3
:1001000013020008301F00201A4B19680868B0E875
:10011000F00F80F309884FF0000080F311884EF053
:100120000D0E70470000000003480068006880F36F
:10013000088862B600DF00BF08ED00E0EFF3098039
:100140000C4B1A6820E9F00F106008B54FF0BF00A3
:1001500080F3118801F0AFFA4FF0000080F31188AE
:10016000BDE8084019680868B0E8F00F80F3098816
:10017000704700BF3C00002001B44FF0BF0080F387
:10018000118801BC704701B44FF0000080F3118862
:1001900001BC70470648804706480047FEE7FEE777
:1001A000FEE7FEE7FEE7FEE7FEE7FEE7FEE7FEE727
:1001B000450A0008F50000081CB500BF322401F014
:1001C0008DFB019000F08DFD1BA20021084600F080
:1001D00065FF1DA21021002000F060FF1CA210216D
:1001E0003F2000F05BFF13E000F026FD601CC4B26E
:1001F0003B2C00DD00241020032322460146009002
:10020000672000F001FF4FF47A7101A801F07FF937
:10021000EAE71FB500200223CDE900300290034633
:1002200080220DA10390AFF26F0001F003F801F0FE
:1002300032FB00BFFEE70000302E393627204F4C3E
:10024000454420544553540041534349493A000022
:10025000434F44453A0000004F4C45445F545259C7
:1002600000000000704700BFFEE700BFFEE700BFD0
:10027000FEE700BFFEE77047704770477047000019
:1002800010B504468548844208D10121084600F093
:10029000BCFA0021012000F0B8FA52E08048844204
:1002A00008D10121022000F0B0FA0021022000F064
:1002B000ACFA46E07B48844208D10121042000F0DA
:1002C000A4FA0021042000F0A0FA3AE07648844223
:1002D00008D10121082000F098FA0021082000F040
:1002E00094FA2EE07148844208D10121102000F0D8
:1002F0008CFA0021102000F088FA22E06C48844239
:1003000008D10121402000F080FA0021402000F0B7
:100310007CFA16E06748844208D10121802000F071
:1003200074FA0021802000F070FA0AE062488442EA
:1003300007D10121202000F068FA0021202000F0E0
:1003400064FA10BDF0B50A4600210023002400BF66
:100350003DE0012505FA01F3156805EA03049C4216
:1003600034D105684F000326BE40B54305601579BA
:100370004E00B5400668354305601579012D02D061
:100380001579022D16D185684F000326BE40B5436E
:10039000856055794E00B54086683543856085880F
:1003A00001268E40B5438580858896798E40B6B209
:1003B00035438580C5684F000326BE40B543C56000
:1003C000D5794E00B540C6683543C560491C102933
:1003D000BFD3F0BD4FF6FF71016000210171417183
:1003E0008171C171704708B54FF480320092009A54
:1003F0000A430092009AC261C161009AC261C26957
:100400000092C269009208BD02460020138A0B4286
:1004100001D0012000E0002070470146088A7047A3
:1004200002460020938A0B4201D0012000E0002008
:1004300070470146888A704701837047418370473F
:100440000AB1018300E04183704781827047828A4C
:100450004A4082827047F0B5002300244D07ED0E1C
:1004600002FA05F3CE1000F1200555F826504E078C
:10047000F70E0F26BE40B543CF1000F1200646F818
:100480002750CE1000F1200555F8265045EA030408
:10049000CE1000F1200545F82640F0BD00000240D6
:1004A0000004024000080240000C0240001002401C
:1004B00000180240001C024000140240F948006885
:1004C00040F48070F7490860F64808300068F64943
:1004D0000840F44908310860F2480068F3490840D0
:1004E000F04908600846006820F480200860ED4864
:1004F0000830006820F47D00EA49083108600020D7
:10050000091D086070470021E64A921C11701146CF
:100510000870704710B501460022002300204A11E0
:10052000012A02D1DF4C236802E0DE4C3434236818
:1005300001F01F02012494401C4201D0012000E080
:10054000002010BD38B5002000900024002500BF19
:100550003120FFF7DFFF05460098401C009000980F
:10056000B0F5A06F01D0002DF2D03120FFF7D2FFFF
:1005700008B1012400E00024204638BDC949C91D46
:100580000870704701460020C64A121D106820F40A
:100590006040084310607047C549086270470146D3
:1005A0000020C04A121D106820F4F85040EA0120D3
:1005B00010607047BE49086070470021B94A353263
:1005C0001170114608707047BA490860704710B53D
:1005D00041EA02030343B34C0A34237010BDB4490B
:1005E00008667047B24908677047B2492C31086005
:1005F000704740EA0102AB4B0B331A70704701465B
:100600000020A84A0832106820F003000843106058
:100610007047A4480830006800F00C00704701469D
:100620000020A04A0832106820F0F0000843106053
:100630007047014600209B4A0832106820F4E060B1
:1006400008431060704701460020964A083210683F
:1006500020F4605040EAC10010607047F0B50021FE
:10066000002200230026002400258E4F08373F6813
:1006700007F00C0131B1042912D0082913D00C293C
:1006800037D113E0874F3F1D3F68C7F342356F1CDA
:100690004FF0010C0CFA07FC4FEACC37076036E04C
:1006A000854F076033E0854F076030E07D4F0837A6
:1006B0003F6807F470127B4F08373F6807F4400328
:1006C0007F4F07EB92473A78012707EB9353754F1B
:1006D00008373F6807F480362EB9774F5743B7FB8A
:1006E000F3F7076004E0754F5743B7FBF3F7076074
:1006F0000DE06C4F3F1D3F68C7F342356F1C4FF054
:10070000010C0CFA07FC4FEACC37076000BF00BFB2
:10071000644F08373F6807F0F0010909694F7C5CB6
:100720000768E74047605F4F08373F6807F4E061BC
:10073000090A644F7C5C4768E7408760594F083777
:100740003F6807F46051C90A5E4F7C5C4768E74028
:10075000C760F0BD002100F44032B2F5403F08D13F
:10076000504A116821F0C04100F0C04211434D4A87
:1007700011604C4A3432126822F44032494B34330F
:100780001A601A46126800F440331A43454B34335A
:100790001A607047474958310860704745495C31D5
:1007A0000860704739B13F4A1C32126802433D4B22
:1007B0001C331A6006E03B4A1C3212688243394BF4
:1007C0001C331A60704739B1364A2032126802432E
:1007D000344B20331A6006E0324A203212688243DA
:1007E000304B20331A60704739B12E4A24321268D8
:1007F00002432C4B24331A6006E02A4A2432126842
:100800008243284B24331A60704739B1254A10328D
:1008100012680243234B10331A6006E0214A10325B
:10082000126882431F4B10331A60704739B11D4A5A
:100830001432126802431B4B14331A6006E0194A43
:10084000143212688243174B14331A60704739B15F
:10085000144A183212680243124B18331A6006E029
:10086000104A1832126882430E4B18331A607047D0
:1008700039B10C4A2832126802430A4B28331A60F5
:1008800006E0084A283212688243064B28331A6071
:100890007047C9B1034A2C3212680243014B2C3312
:1008A0001A6016E0003802400CC0FF88FEFFFEEE22
:1008B00000004742800647420024F40000127A00FC
:1008C00000000020090000201F4A126882431E4BCE
:1008D0001A60704739B11C4A121D126802431A4B44
:1008E0001B1D1A6006E0184A121D12688243164B3F
:1008F0001B1D1A60704739B1134A1F3A1278024320
:10090000114B1F3B1A7006E00F4A1F3A12788243C0
:100910000D4B1F3B1A7070470B480830006840F0C1
:100920008070094908310860704701460020064A76
:10093000203A12680A4201D0012000E000207047EE
:1009400001491E39087070472C3802400CB5002050
:10095000019000908448006840F0010082490860DE
:1009600000BF8148006800F002000090009818B9AC
:100970000198B0F5A06FF4D17B48006810F0020F29
:1009800002D00120009001E0002000900098012892
:1009900057D17648006820F0010074490860084685
:1009A000006820F0020008600846006820F004009B
:1009B00008606D482430006840F080506A49243156
:1009C0000860C8146A49086000BF6948406810F0B0
:1009D000100FFAD164480830006863490831086094
:1009E0000846006808600846006808600846006815
:1009F00020F47D0008600846006840F400000860AC
:100A00005948006840F080705749086000BF564858
:100A1000006810F0007FFAD053480830006820F0DA
:100A200003005149083108600846006840F003009F
:100A3000086000BF4C480830006800F00C000C282B
:100A4000F8D10CBD10B54848006840F480704649A4
:100A50000860454808300068464908404249083166
:100A6000086041480068444908403F49086008461A
:100A7000006820F4802008603B480830006820F4BB
:100A80007D003949083108600020091D0860FFF722
:100A90005DFF4FF000603949086010BD70B500225D
:100AA00000200021002400232F4D08352D6805F07B
:100AB0000C0232B1042A10D0082A12D00C2A39D1E3
:100AC00013E0294D2D1D2D68C5F342335D1C012611
:100AD000AE40F5032A4E356038E02A4D284E356089
:100AE00034E0294D264E356030E01F4D08352D6825
:100AF00005F470101C4D08352D6805F44001234D98
:100B000005EB90452878012505EB9151164D0835E8
:100B10002D6805F4803434B91A4D4543B5FBF1F521
:100B2000174E356005E0184D4543B5FBF1F5144E01
:100B300035600BE00C4D2D1D2D68C5F342335D1C57
:100B40000126AE40F5030E4E356000BF00BF064DD6
:100B500008352D68C5F303150D4E725D084D2D68DF
:100B6000D540074E356070BD00380240003C024061
:100B7000007000400CC0FF88FEFFFEEE08ED00E0B4
:100B80001C0000200024F40000127A002000002045
:100B90002900002010B50121F848FFF74DFC022183
:100BA000F648FFF749FC0121F448FFF747FC022112
:100BB000F248FFF743FC10BD10B50121EF48FFF7E5
:100BC0003DFC0221ED48FFF737FC0121EB48FFF720
:100BD00033FC10BD10B50121E848FFF72FFC0221BE
:100BE000E648FFF729FC0221E448FFF727FC10BD87
:100BF00070B5044608250221E048FFF71FFC15E008
:100C000014F0800F04D00121DC48FFF715FC03E04D
:100C10000121DA48FFF712FC0221D848FFF70CFC4B
:100C20000221D648FFF70AFC6006040E2800A5F151
:100C30000101CDB2E4D170BD70B5FFF7ABFF7820F4
:100C4000FFF7D6FFFFF7C6FF4020FFF7D1FFFFF702
:100C5000C1FF00240FE0002509E0C94901EB85012F
:100C6000085DFFF7C5FFFFF7B5FF681CC5B2802D13
:100C7000F3DB601CC4B2042CEDDBFFF79DFF70BDFD
:100C800070B500240CE0002506E00020BC4901EB13
:100C900085010855681CC5B2802DF6DB601CC4B206
:100CA000042CF0DBFFF7C8FF70BD70B505460C469D
:100CB000FFF770FF7820FFF79BFFFFF78BFF1CB952
:100CC0000020FFF795FF02E04020FFF791FFFFF7BC
:100CD00081FF2846FFF78CFFFFF77CFFFFF76CFFD3
:100CE00070BD1CB501210320FFF75CFD01200090C1
:100CF0008DF8040000208DF8060003208DF8050013
:100D000069469E48FFF71EFB0220009001208DF8E7
:100D1000040000208DF8060003208DF805006946C8
:100D20009648FFF70FFB8020009001208DF804000B
:100D300000208DF8060003208DF8050069469148D3
:100D4000FFF700FB80218F48FFF776FB01218B48DE
:100D5000FFF772FB02218948FFF76EFB802189486B
:100D6000FFF76CFB0A2000F02FFC80218548FFF77D
:100D700063FB0021AE20FFF798FF0021D520FFF78D
:100D800094FF00218020FFF790FF0021A820FFF7AB
:100D90008CFF00211F20FFF788FF0021D320FFF7E1
:100DA00084FF00210846FFF780FF00214020FFF765
:100DB0007CFF00218D20FFF778FF00211420FFF732
:100DC00074FF0021A120FFF770FF0021C820FFF76A
:100DD0006CFF0021DA20FFF768FF00210220FFF7F7
:100DE00064FF00218120FFF760FF00218F20FFF7C3
:100DF0005CFF0021D920FFF758FF0021F120FFF709
:100E000054FF0021DB20FFF750FF00214020FFF7B7
:100E10004CFF0021A420FFF748FF0021A620FFF788
:100E200044FF00212020FFF740FF00210846FFF784
:100E30003CFF00212120FFF738FF00210846FFF783
:100E400034FF00217F20FFF730FF00212220FFF731
:100E50002CFF00210846FFF728FF00210320FFF7A1
:100E600024FF0021AF20FFF720FFFFF709FF1CBD83
:100E700010B500218D20FFF718FF00211420FFF787
:100E800014FF0021AF20FFF710FF10BD10B50021A7
:100E90008D20FFF70AFF00211020FFF706FF002139
:100EA000AE20FFF702FF10BDF0B5144600267F28E4
:100EB00001DC1F2900DDF0BD0B46CF1701EB577792
:100EC000C7F3C702CF1701EB5777FF10A1EBC70796
:100ED000FDB20123AB40DEB24CB1294B03EB8003E2
:100EE0009B5C3343264F07EB8007BB5408E0244B41
:100EF00003EB80039B5CB343214F07EB8007BB549C
:100F000000BFD8E72DE9F04706460F4690469946C0
:100F1000DDF820A034460CE03D4606E05246294666
:100F20002046FFF7C1FF681CC5B24D45F6DD601CC9
:100F3000C4B24445F0DDFFF77FFEBDE8F0872DE940
:100F4000F04F80460C4615461E46A346A5F12000EC
:100F5000C5B2002749E00C2E07D105EB45000A4930
:100F600001EB800010F8079004E0084800EB051042
:100F700010F807904FF0000A31E000000004024032
:100F80009000002000000240A61D00081A22000860
:100F900019F0800F05D021464046099AFFF784FFDB
:100FA00009E0099808B9012000E000200246214626
:100FB0004046FFF779FF4FEA49604FEA1069601C2D
:100FC000C4B2A4EB0B00B04205D15C4608F10100AD
:100FD00000F0FF0806E00AF1010000F0FF0ABAF194
:100FE000080FD5DB00BF781CC7B2B742B3DBBDE842
:100FF000F08F10B50246012000E050430B00A1F134
:101000000104E1B2F9D110BD2DE9FF4F81B00746CF
:1010100091461E460E9D4FF0000A002439E0301B19
:10102000401EC1B20A20FFF7E4FFB9FBF0F00A212D
:10103000B0FBF1F201FB1208BAF1000F16D1701EDD
:10104000A04213DDB8F1000F0ED10120AB4605EB35
:10105000DB71491001FB04710090C8B22B462022BD
:101060000299FFF76CFF12E04FF0010A0120AB4636
:1010700005EBDB71491001FB04710090C8B208F167
:101080003001CAB22B460299FFF759FF00BF601C1E
:10109000C4B2B442C3DB05B0BDE8F08FF8B5054675
:1010A0000E46144618E07A2D03DD002506F11000E7
:1010B000C6B21A2E04DD002005460646FFF7E0FD05
:1010C000012000902278102331462846FFF737FF91
:1010D00005F10800C5B2641C20780028E3D1F8BDF2
:1010E00000F1080141604FF0FF31816000F108011B
:1010F000C1600161002101607047002101617047FA
:10110000426853684B6043688B60536899605160D4
:101110004160086103685B1C0360704710B50246BC
:101120000B685C1C01D1106907E002F1080000E0C7
:101130004068446824689C42FAD944684C604C6812
:10114000A160886041600A611468641C146010BD6D
:10115000D0E901329A60D0E901235A6001694A68F6
:10116000824201D182684A60002202610A68521EEE
:101170000A60704710B5002407E004EB8401FE4AC2
:1011800002EB8100FFF7ACFF641C042CF5D3FB4895
:10119000FFF7A6FFFA48FFF7A3FFFA48FFF7A0FF03
:1011A000F948FFF79DFFF548F8490860F448F84909
:1011B000086010BD2DE9F04104460E4615469846DC
:1011C000069F1022314604F1340000F0BFFD0021DB
:1011D00043200155042D00D30325E5626564201DDD
:1011E000FFF78BFF04F11800FFF787FF2461C5F1BB
:1011F0000400A0616462BDE8F08170B505460E464A
:10120000482000F0ADFC044694B11EB9A80000F0DF
:10121000A7FC00E030462063206B20B9204600F098
:1012200000FD002404E0A900A522206B00F07CFD55
:10123000204670BD2DE9FF4F81B080461546994686
:10124000DDE90E7A28461099FFF7D7FF0446002CF7
:1012500056D0681E216B01EB800B2BF0070B00951D
:101260003A462046119B0299FFF7A4FF4A464146A1
:10127000584600F001FD2060BAF1000F01D0CAF815
:10128000004000F02AFDC3480068401CC1490860C6
:10129000C148006840B9C048046008460068012899
:1012A0000CD1FFF767FF09E0BC48006830B9BA48C5
:1012B0000068C06AB84201D8B7480460B849E06A1B
:1012C0000968884202D9B649E06A0860B5480068F2
:1012D000401CB4490860B449E06A0968884202D9F0
:1012E000B149E06A0860E16A01EB8101A24A02EBC0
:1012F0008100211DFFF704FF012600F0F7FC01E04B
:101300004FF0FF36012E09D1A448006830B1A24841
:101310000068C06AB84201D200F0D9FC304605B07E
:10132000BDE8F08F70B5A1480068002866D1A048DC
:101330000068401C9E4908600846006808BB934945
:10134000086893490968914A116091490860994970
:101350000968491C974A11608C490968096809B9EC
:10136000012100E0002121B14FF0FF31924A1160CC
:1013700006E086490968C968CC688F4A61681160CF
:1013800000BF8B4800688C490968884235D300BF8C
:101390007E480068006808B9012000E0002020B104
:1013A0004FF0FF308449086026E078480068C06844
:1013B000C46865687E480068A84202D27E4805601D
:1013C0001AE0201DFFF7C4FEA06A18B104F118004E
:1013D000FFF7BEFE7449E06A0968884202D9724983
:1013E000E06A0860E16A01EB8101634A02EB810077
:1013F000211DFFF785FECBE700BF04E06F480068C2
:10140000401C6E49086070BD70B5002500F065FC99
:1014100066480068401E6549086008460068002864
:101420004CD15C480068002848D0002621E055488F
:10143000C068C46804F11800FFF78AFE201DFFF79A
:1014400087FE5949E06A0968884202D95649E06A2C
:101450000860E16A01EB8101474A02EB8100211D2E
:10146000FFF74EFE4C49E06A0968C96A884200D31A
:1014700001264448006808B9012000E00020002847
:10148000D5D04E48006860B106E0FFF74BFF4B48EF
:101490000068401E49490860484800680028F4D1A7
:1014A0000126012E03D046480068012805D10125F8
:1014B00000204349086000F00AFC00BF00F016FC61
:1014C000284670BD10B5044633480068446038486B
:1014D0000068844207D230480168091D2C48006822
:1014E000FFF71CFE0CE02C480168091D2748006826
:1014F000FFF714FE30480068844201D22E48046091
:1015000010BD2A480068401C2849086070472DE932
:10151000F04104460F464FF00008FFF7F2FF206845
:10152000C519234920680968884209D92068A8425A
:101530000FD91F48006885420BD94FF0010808E019
:101540002068A84203D81A480068854201D94FF0A4
:1015500001082560B8F1000F07D00F480068001D92
:10156000FFF7F6FD2846FFF7ADFFFFF74DFF0646F4
:101570000EB900F0ACFB25E090020020E002002054
:10158000F4020020080300201C0300206C0000204F
:1015900070000020400000203C000020500000208F
:1015A00048000020640000204C000020540000206F
:1015B0004400002060000020680000205800002047
:1015C0005C000020BDE8F08170B5044600267CB1C7
:1015D000FFF797FFF74800680519F7480068001DF6
:1015E000FFF7B6FD2846FFF76DFFFFF70DFF064634
:1015F0000EB900F06CFB70BD70B5044600F06DFBD9
:1016000014B9ED48006800E020460646F56A00F08F
:101610006DFB284670BD2DE9F04106460D464FF0A2
:101620000008042D00D3032500F057FBE2480068B2
:10163000864200D1002616B9DF48006800E0304637
:101640000446676CAF4232D0BD4203D92EB14FF091
:10165000010802E00EB94FF00108E16A606C8842AF
:1016600000D1E5626564C5F10400A06107EB870164
:10167000D24A02EB81016069884213D1201DFFF735
:1016800067FDCF49E06A0968884202D9CC49E06A1F
:101690000860E16A01EB8101C84A02EB8100211D6B
:1016A000FFF72EFDB8F1010F01D100F010FB00F0A3
:1016B0001DFBBDE8F081C348006818B10120C24994
:1016C000086025E004E0BE480068401EBC49086090
:1016D000BB48006800EB8000B84951F820000028A2
:1016E000F1D0B749096801EB8101B44A02EB8100EE
:1016F00041684968416000F1080142688A4202D1AC
:101700004168496841604168C968AB4A116000BFDF
:10171000704770B5044600F0E0FAA74800688442BC
:1017200000D1002414B9A448006800E02046054612
:10173000281DFFF70DFDA86A18B105F11800FFF785
:1017400007FD291DA148FFF7DBFC00F0CFFA8CB99B
:101750009F48006810B100F0BAFA0BE09B4800689F
:101760009C490968884203D100209349086001E040
:10177000FFF7A1FF70BD10B5014600200A46934C4B
:101780005369A34201D1012300E0002383B1924CAD
:10179000936AA34201D1012300E00023012B07D06B
:1017A000936A0BB9012300E00023012B00D1012033
:1017B00010BD70B505462C4644B37F48006884428E
:1017C00024D000F08AFA2046FFF7D5FF01281BD16C
:1017D000201DFFF7BDFC7A49E06A0968884202D9FA
:1017E0007749E06A0860E16A01EB8101734A02EB24
:1017F0008100211DFFF784FC6F49E06A0968C96A0E
:10180000884201D300F063FA00F070FA70BD2DE950
:10181000F041054600262C460027FEF7ADFC204689
:10182000FFF7A9FF012826D166480068F0B9624990
:10183000E06A0968C96A884201D3012000E00020FB
:101840000646201DFFF784FC5D49E06A096888426E
:1018500002D95B49E06A0860E16A01EB8101574AFD
:1018600002EB8100211DFFF74BFC04E004F118019D
:101870005948FFF745FCFEF786FC3046BDE8F0818D
:10188000704700BFFFF7FCFF4C4800680128F9D9FA
:1018900000F01DFAF6E71FB50020009001900290BD
:1018A000034680224DA103904E48FFF7C3FC044637
:1018B000012C09D1FEF760FC012045490860002099
:1018C0003C49086000F0EDF91FBD10B5FEF754FC6F
:1018D00000203F49086000F0F9F910BD10B500F094
:1018E000FCF93448046800F001FA204610BD70B5D8
:1018F0000025FEF741FC2F480468FEF744FC204613
:1019000070BD34480068704770B506460C462A48DA
:10191000016818313046FFF701FC27480068001DB8
:10192000FFF716FC601C06D123480168091D2748F3
:10193000FFF7E6FB05E01F48006805192846FFF79A
:10194000C1FD70BD70B50646F068C46804F11800AA
:10195000FFF7FEFB1B480068A0B9201DFFF7F8FB4E
:101960001749E06A0968884202D91549E06A0860A7
:10197000E16A01EB8101114A02EB8100211DFFF7B1
:10198000BFFB04E004F118011348FFF7B9FB0A4953
:10199000E06A0968C96A884201D3012500E0002590
:1019A000284670BD10490968016002490968416014
:1019B00070470000440000203C00002090020020FE
:1019C0004C000020540000205C0000201C0300207C
:1019D00050000020400000200803002049444C45EE
:1019E00000000000831800086000002070B5044665
:1019F0000D4600F072F92868401C01D100261FE056
:101A0000514920680968884206D0504960680968D1
:101A1000884201D8012613E04C4960680968081A19
:101A2000296888420BD22868484A61681268511AAE
:101A3000401A28602046FFF7B5FF002600E0012687
:101A400000F054F9304670BD0120414908607047EC
:101A50000146002002E0491C421C90B20A78A52AE7
:101A6000F9D0800870472DE9F041044614B939488F
:101A7000006800E0204607463D6B2846FFF7E8FF78
:101A800006463046BDE8F08132490868704770B5B7
:101A900005462C462F49E06A0968C96A88422FD258
:101AA0002C480068C06AC0F10400A061E16A01EB43
:101AB0008101294A02EB81016069884201D101203C
:101AC00000E00020C0B1201DFFF742FB2148006864
:101AD000C06AE0622149E06A0968884202D91F4968
:101AE000E06A0860E16A01EB81011B4A02EB8100B8
:101AF000211DFFF705FB03E016480068C06AE0629D
:101B000070BD70B505462C46EDB1616CE06A884247
:101B100019D0201DFFF71CFB606CE062E06AC0F189
:101B20000400A0610D49E06A0968884202D90B49A6
:101B3000E06A0860E16A01EB8101074A02EB81007B
:101B4000211DFFF7DDFA70BD600000204400002079
:101B50005C0000203C000020900200204C0000208F
:101B60002DE9F04104464FF00008FFF7CAFC3D485C
:101B7000006898B93C493D4A1160002151604FF41A
:101B8000C0513B4A51600021116037484FF4C051A9
:101B900041601146016001203249086044B11034AF
:101BA00014F0070F04D004F00700C0F1080004444B
:101BB000002C31D0B4F5C05F2ED22C4F38460568CA
:101BC00001E02F462D686868A04202D228680028EC
:101BD000F7D1274885421FD0386800F110082868DF
:101BE00038606868001B202810D92E196868001B0F
:101BF00070606C6071681D4800E00068026852689F
:101C00008A42FAD302683260066000BF19496868E8
:101C10000968081A17490860FFF7F6FB4046BDE857
:101C2000F08170B506463546B6B1103D2C46FFF73B
:101C300068FC61680D4800E00068026852688A42EA
:101C4000FAD30268226004600A496068096808449F
:101C500008490860FFF7D8FB70BD06480068704768
:101C60007047000078000020300300207C00002036
:101C70008400002074000020001F4FF08073036078
:101C8000001F0160001F0023036014380260203829
:101C9000704743F67F604FF0E021486107200861FC
:101CA000704710B51E48006840F47F001C4908606A
:101CB0000846006840F07F400860FFF7EAFF002018
:101CC00018490860FEF730FA002010BD70474FF049
:101CD000805013491C390860704710B5FEF74CFA64
:101CE00010480068401C0F49086010BD10B50D4831
:101CF0000068401E0B4908600846006808B9FEF7F6
:101D000042FA10BD10B54FF0805005491C390860EB
:101D10000024FEF731FAFFF705FBFEF734FA10BD99
:101D200020ED00E08C000020D2B201E000F8012B91
:101D3000491EFBD270470022F6E710B513460A464B
:101D400004461946FFF7F0FF204610BD10B50446C3
:101D500004E00B7800F8013B03B1491C521EF8D295
:101D6000204610BD064C074D06E0E06840F0010338
:101D700094E8070098471034AC42F6D3FEF7BEF95A
:101D80000C2800082C28000802E008C8121F08C10F
:101D9000002AFAD170477047002001E001C1121FEC
:101DA000002AFBD170470000000000000000000086
:101DB0000000000000003F400000000000000000A4
:101DC0003000400030004000000009000BC03D0022
:101DD0000BC03D00090018C024407FE02240318044
:101DE0000000180024C01B000D80324001800380D9
:101DF0001C4027401C80074000401000600000008D
:101E00000000000000000000000000001F802040D3
:101E100040200000402020401F80000000000900FA
:101E200006001F80060009000000040004003F8037
:101E3000040004000000001000600000000000002A
:101E4000000004000400040004000400000000007E
:101E500000400000000000000000002001C006005B
:101E60003800400000001F802040204020401F809C
:101E70000000000010403FC000400000000018C0FB
:101E8000214022402440184000001080204024407F
:101E900024401B80000002000D0011003FC00140E3
:101EA00000003C80244024402440238000001F8008
:101EB000244024403440038000003000200027C02C
:101EC0003800200000001B802440244024401B8058
:101ED00000001C0022C0224022401F8000000000A1
:101EE0000000084000000000000000000000046046
:101EF000000000000000000004000A001100208023
:101F00004040090009000900090009000000000024
:101F10004040208011000A000400180020002340E7
:101F20002400180000001F802040274029401F4047
:101F30000000004007C039000F0001C000402040F1
:101F40003FC0244024401B8000001F8020402040D0
:101F500020403080000020403FC0204020401F80B3
:101F6000000020403FC024402E4030C000002040F0
:101F70003FC024402E00300000000F0010802040A1
:101F800022403380020020403FC0040004003FC0D4
:101F90002040204020403FC0204020400000006002
:101FA000202020203FC02000200020403FC02440AF
:101FB0000B0030C0204020403FC020400040004087
:101FC00000C03FC03C0003C03C003FC000002040B8
:101FD0003FC00C4023003FC020001F802040204015
:101FE00020401F80000020403FC0244024001800F3
:101FF00000001F802140214020E01FA00000204061
:102000003FC02440260019C0004018C0244024408E
:10201000224031800000300020403FC0204030008E
:10202000000020003F80004000403F802000200052
:102030003E0001C0070038002000380007C03C0007
:1020400007C038000000204039C0060039C02040D9
:1020500000002000384007C0384020000000304019
:1020600021C02640384020C00000000000007FE072
:10207000402040200000000070000C000380004061
:1020800000000000402040207FE000000000000031
:102090002000400020000000000000100010001090
:1020A00000100010001000000000400000000000C0
:1020B0000000000002800540054003C000402000F1
:1020C0003FC004400440038000000000038004403F
:1020D00004400640000000000380044024403FC04C
:1020E0000040000003800540054003400000000060
:1020F00004401FC0244024402000000002E005509E
:1021000005500650042020403FC00440040003C096
:1021100000400000044027C0004000000000001004
:102120000010041027E00000000020403FC00140E4
:10213000070004C00440204020403FC00040004051
:10214000000007C0040007C0040003C000000440F2
:1021500007C00440040003C00040000003800440A6
:10216000044003800000041007F004500440038082
:102170000000000003800440045007F000100440F9
:1021800007C00240040004000000000006400540B3
:10219000054004C00000000004001F80044000400F
:1021A0000000040007800040044007C00040040015
:1021B000070004C0018006000400060001C00700FB
:1021C00001C006000000044006C0010006C0044033
:1021D00000000410071004E0018006000400000065
:1021E000044005C006400440000000000000040058
:1021F0007BE040200000000000000000FFF0000035
:102200000000000040207BE00400000000004000CF
:10221000800040002000200040000000000000007E
:1022200000000000000000000000000000000000AE
:102230001FCC000C0000000000000000080030006F
:1022400060000800300060000000022003FC1E2037
:10225000022003FC1E200220000000000E181104C2
:102260003FFF10840C78000000000F0010840F382E
:1022700000C0077818840078000000780F8410C42C
:1022800011240E9800E40084000808006800700023
:10229000000000000000000000000000000000003E
:1022A00007E018182004400200000000400220044B
:1022B000181807E000000000000002400240018002
:1022C0000FF001800240024000000080008000808A
:1022D0000FF800800080008000000001000D000E5B
:1022E00000000000000000000000000000800080EE
:1022F000008000800080008000800000000C000C46
:1023000000000000000000000000000000060018AF
:1023100000600180060018002000000007F0080897
:1023200010041004080807F0000000000804080466
:102330001FFC000400040000000000000E0C10143C
:102340001024104411840E0C000000000C1810041E
:102350001104110412880C700000000000E003203A
:10236000042408241FFC0024000000001F9810848F
:1023700011041104108810700000000007F0088894
:102380001104110418880070000000001C001000E7
:1023900010FC13001C001000000000000E38114457
:1023A0001084108411440E38000000000700088CCF
:1023B00010441044088807F00000000000000000EE
:1023C000030C030C000000000000000000000001EE
:1023D0000106000000000000000000000080014035
:1023E000022004100808100400000220022002202D
:1023F0000220022002200220000000001004080831
:102400000410022001400080000000000E001200B5
:10241000100C106C10800F00000003E00C1813E487
:10242000142417C4082807D000000004003C03C48B
:102430001C40074000E4001C000410041FFC1104B1
:10244000110411040E880070000003E00C18100441
:102450001004100410081C10000010041FFC1004CD
:1024600010041004080807F0000010041FFC1104F9
:10247000110417C410040818000010041FFC1104F4
:10248000110017C010000800000003E00C18100431
:10249000100410441C780040000010041FFC10843D
:1024A0000080008010841FFC100400001004100441
:1024B0001FFC1004100400000000000300011001C4
:1024C00010011FFE10001000000010041FFC11047A
:1024D00003801464181C1004000010041FFC100476
:1024E000000400040004000C000010041FFC1F0086
:1024F00000FC1F001FFC1004000010041FFC0C0453
:10250000030000E010181FFC100007F0080810047A
:1025100010041004080807F0000010041FFC1084C9
:102520001080108010800F00000007F008181024A1
:102530001024101C080A07F2000010041FFC1104EC
:10254000110011C011300E0C000400000E1C11040B
:102550001084108410441C3800001800100010046F
:102560001FFC100410001800000010001FF81004D9
:102570000004000410041FF8100010001E0011E0F9
:10258000001C007013801C0010001FC0103C00E0F5
:102590001F0000E0103C1FC000001004180C16348F
:1025A00001C001C01634180C100410001C001304E4
:1025B00000FC13041C00100000000804101C106430
:1025C000108413041C041018000000000000000018
:1025D0007FFE4002400240020000000030000C007C
:1025E00003800060001C0003000000004002400265
:1025F00040027FFE000000000000000000002000FC
:1026000040004000400020000000000100010001E7
:102610000001000100010001000100004000400035
:1026200020000000000000000000000000980124CD
:1026300001440144014400FC000410001FFC008818
:102640000104010400880070000000000070008890
:1026500001040104010400880000000000700088EB
:102660000104010411081FFC0004000000F80144EB
:1026700001440144014400C80000000001040104B9
:102680000FFC1104110411001800000000D60129EC
:102690000129012901C90106000010041FFC008462
:1026A00001000100010400FC000400000104190401
:1026B00019FC0004000400000000000000030001F9
:1026C0000101190119FE0000000010041FFC002484
:1026D000004001B4010C01040000000010041004CB
:1026E0001FFC0004000400000000010401FC0104C0
:1026F000010001FC0104010000FC010401FC008454
:1027000001000100010400FC0004000000F80104C5
:1027100001040104010400F80000010101FF00852B
:1027200001040104008800700000000000700088AF
:1027300001040104010501FF00010104010401FC81
:1027400000840104010001800000000000CC01248D
:10275000012401240124019800000000010001006F
:1027600007F80104010400000000010001F8000462
:1027700000040004010801FC000401000180017054
:10278000000C001001600180010001F0010C00301C
:1027900001C00030010C01F0010000000104018CB7
:1027A00000740170018C01040000010101810171BC
:1027B000000E001801600180010000000184010C7E
:1027C000013401440184010C0000000000000000FD
:1027D000000001003EFC400240020000000000003A
:1027E0000000FFFF00000000000000004002400267
:1027F0003EFC0100000000000000000060008000BE
:102800008000400040002000200000002C2800082C
:102810000000002090000000881D0008BC2800086F
:1028200090000020A01E0000981D00080304060868
:102830000C10182030000000000102030401020304
:1028400004060708090000000024F4000304060839
:102850000C101820300000000000000000010203EE
:102860000406070809000000000000000000000046
:102870000000000000000000000000000000000058
:102880000000000000000000000000000000000048
:1028900000000000FFFFFFFF00000000000000003C
:1028A0000018000000000000000000000000000010
:0C28B0000000000000000000AAAAAAAA74
:040000050800019559
:00000001FF
